{
  "contractName": "Election_step2",
  "abi": [
    {
      "inputs": [],
      "stateMutability": "nonpayable",
      "type": "constructor"
    },
    {
      "anonymous": false,
      "inputs": [
        {
          "indexed": false,
          "internalType": "uint256",
          "name": "id",
          "type": "uint256"
        }
      ],
      "name": "candRegisteredEvent",
      "type": "event"
    },
    {
      "anonymous": false,
      "inputs": [
        {
          "indexed": false,
          "internalType": "enum Election_step2.ElectionStatus",
          "name": "prev",
          "type": "uint8"
        },
        {
          "indexed": false,
          "internalType": "enum Election_step2.ElectionStatus",
          "name": "end",
          "type": "uint8"
        }
      ],
      "name": "statusChangedEvent",
      "type": "event"
    },
    {
      "anonymous": false,
      "inputs": [],
      "name": "voteDoneEvent",
      "type": "event"
    },
    {
      "inputs": [],
      "name": "admin",
      "outputs": [
        {
          "internalType": "address",
          "name": "",
          "type": "address"
        }
      ],
      "stateMutability": "view",
      "type": "function",
      "constant": true
    },
    {
      "inputs": [
        {
          "internalType": "uint256",
          "name": "",
          "type": "uint256"
        }
      ],
      "name": "candidates",
      "outputs": [
        {
          "internalType": "uint256",
          "name": "id",
          "type": "uint256"
        },
        {
          "internalType": "string",
          "name": "name",
          "type": "string"
        },
        {
          "internalType": "uint256",
          "name": "voteCount",
          "type": "uint256"
        }
      ],
      "stateMutability": "view",
      "type": "function",
      "constant": true
    },
    {
      "inputs": [],
      "name": "electionStatus",
      "outputs": [
        {
          "internalType": "enum Election_step2.ElectionStatus",
          "name": "",
          "type": "uint8"
        }
      ],
      "stateMutability": "view",
      "type": "function",
      "constant": true
    },
    {
      "inputs": [],
      "name": "totalCandidateNum",
      "outputs": [
        {
          "internalType": "uint256",
          "name": "",
          "type": "uint256"
        }
      ],
      "stateMutability": "view",
      "type": "function",
      "constant": true
    },
    {
      "inputs": [],
      "name": "totalVoteCount",
      "outputs": [
        {
          "internalType": "uint256",
          "name": "",
          "type": "uint256"
        }
      ],
      "stateMutability": "view",
      "type": "function",
      "constant": true
    },
    {
      "inputs": [
        {
          "internalType": "address",
          "name": "",
          "type": "address"
        }
      ],
      "name": "voters",
      "outputs": [
        {
          "internalType": "bool",
          "name": "",
          "type": "bool"
        }
      ],
      "stateMutability": "view",
      "type": "function",
      "constant": true
    },
    {
      "inputs": [],
      "name": "endRegisterCandSession",
      "outputs": [],
      "stateMutability": "nonpayable",
      "type": "function"
    },
    {
      "inputs": [],
      "name": "startVoteSession",
      "outputs": [],
      "stateMutability": "nonpayable",
      "type": "function"
    },
    {
      "inputs": [],
      "name": "endVoteSession",
      "outputs": [],
      "stateMutability": "nonpayable",
      "type": "function"
    },
    {
      "inputs": [
        {
          "internalType": "string",
          "name": "name",
          "type": "string"
        }
      ],
      "name": "registerCandidate",
      "outputs": [],
      "stateMutability": "nonpayable",
      "type": "function"
    },
    {
      "inputs": [
        {
          "internalType": "uint256",
          "name": "candidateId",
          "type": "uint256"
        }
      ],
      "name": "vote",
      "outputs": [],
      "stateMutability": "nonpayable",
      "type": "function"
    },
    {
      "inputs": [],
      "name": "getTotalCandidateNum",
      "outputs": [
        {
          "internalType": "uint256",
          "name": "",
          "type": "uint256"
        }
      ],
      "stateMutability": "view",
      "type": "function",
      "constant": true
    },
    {
      "inputs": [
        {
          "internalType": "uint256",
          "name": "id",
          "type": "uint256"
        }
      ],
      "name": "getCandidateName",
      "outputs": [
        {
          "internalType": "string",
          "name": "",
          "type": "string"
        }
      ],
      "stateMutability": "view",
      "type": "function",
      "constant": true
    },
    {
      "inputs": [
        {
          "internalType": "uint256",
          "name": "id",
          "type": "uint256"
        }
      ],
      "name": "getCandidateVoteCount",
      "outputs": [
        {
          "internalType": "uint256",
          "name": "",
          "type": "uint256"
        }
      ],
      "stateMutability": "view",
      "type": "function",
      "constant": true
    },
    {
      "inputs": [],
      "name": "getTotalVoteCount",
      "outputs": [
        {
          "internalType": "uint256",
          "name": "",
          "type": "uint256"
        }
      ],
      "stateMutability": "view",
      "type": "function",
      "constant": true
    },
    {
      "inputs": [
        {
          "internalType": "address",
          "name": "addr",
          "type": "address"
        }
      ],
      "name": "getIsAdmin",
      "outputs": [
        {
          "internalType": "bool",
          "name": "",
          "type": "bool"
        }
      ],
      "stateMutability": "view",
      "type": "function",
      "constant": true
    },
    {
      "inputs": [],
      "name": "getElectionStatus",
      "outputs": [
        {
          "internalType": "enum Election_step2.ElectionStatus",
          "name": "",
          "type": "uint8"
        }
      ],
      "stateMutability": "view",
      "type": "function",
      "constant": true
    }
  ],
  "bytecode": "0x608060405234801561001057600080fd5b5033600260016101000a81548173ffffffffffffffffffffffffffffffffffffffff021916908373ffffffffffffffffffffffffffffffffffffffff1602179055506000600260006101000a81548160ff0219169083600381111561007857610077610082565b5b02179055506100b1565b7f4e487b7100000000000000000000000000000000000000000000000000000000600052602160045260246000fd5b611b43806100c06000396000f3fe608060405234801561001057600080fd5b506004361061010b5760003560e01c8063a3ec138d116100a2578063eaef034911610071578063eaef0349146102bc578063f74c168d146102da578063f780dbb8146102e4578063f851a44014610302578063ff594a24146103205761010b565b8063a3ec138d14610222578063aaa9834614610252578063b315c5971461025c578063e13804a71461028c5761010b565b80633477ee2e116100de5780633477ee2e14610186578063822b0ceb146101b8578063893d8f4c146101e85780639eb88db6146102065761010b565b80630121b93f14610110578063122902a61461012c5780631c0115be1461014a578063288c72e814610168575b600080fd5b61012a60048036038101906101259190610f8d565b61032a565b005b610134610542565b6040516101419190611031565b60405180910390f35b610152610559565b60405161015f919061105b565b60405180910390f35b610170610563565b60405161017d919061105b565b60405180910390f35b6101a0600480360381019061019b9190610f8d565b6105fd565b6040516101af93929190611106565b60405180910390f35b6101d260048036038101906101cd91906111a2565b6106af565b6040516101df91906111ea565b60405180910390f35b6101f0610709565b6040516101fd919061105b565b60405180910390f35b610220600480360381019061021b919061133a565b61070f565b005b61023c600480360381019061023791906111a2565b610844565b60405161024991906111ea565b60405180910390f35b61025a610864565b005b61027660048036038101906102719190610f8d565b6109d1565b604051610283919061105b565b60405180910390f35b6102a660048036038101906102a19190610f8d565b610b3b565b6040516102b39190611383565b60405180910390f35b6102c4610c28565b6040516102d19190611031565b60405180910390f35b6102e2610c3b565b005b6102ec610da9565b6040516102f9919061105b565b60405180910390f35b61030a610daf565b60405161031791906113b4565b60405180910390f35b610328610dd5565b005b6002600381111561033e5761033d610fba565b5b600260009054906101000a900460ff1660038111156103605761035f610fba565b5b146103a0576040517f08c379a000000000000000000000000000000000000000000000000000000000815260040161039790611441565b60405180910390fd5b8060035481106103e5576040517f08c379a00000000000000000000000000000000000000000000000000000000081526004016103dc906114ad565b60405180910390fd5b60001515600160003373ffffffffffffffffffffffffffffffffffffffff1673ffffffffffffffffffffffffffffffffffffffff16815260200190815260200160002060009054906101000a900460ff16151514610478576040517f08c379a000000000000000000000000000000000000000000000000000000000815260040161046f9061153f565b60405180910390fd5b60018060003373ffffffffffffffffffffffffffffffffffffffff1673ffffffffffffffffffffffffffffffffffffffff16815260200190815260200160002060006101000a81548160ff02191690831515021790555060008083815260200190815260200160002060020160008154809291906104f59061158e565b91905055506004600081548092919061050d9061158e565b91905055507fa6ea7ea28adf043c0e5563af4f9fd81c766f21418d9b80315cf30b3953a60f2160405160405180910390a15050565b6000600260009054906101000a900460ff16905090565b6000600354905090565b6000600260019054906101000a900473ffffffffffffffffffffffffffffffffffffffff1673ffffffffffffffffffffffffffffffffffffffff163373ffffffffffffffffffffffffffffffffffffffff16146105f5576040517f08c379a00000000000000000000000000000000000000000000000000000000081526004016105ec90611622565b60405180910390fd5b600454905090565b600060205280600052604060002060009150905080600001549080600101805461062690611671565b80601f016020809104026020016040519081016040528092919081815260200182805461065290611671565b801561069f5780601f106106745761010080835404028352916020019161069f565b820191906000526020600020905b81548152906001019060200180831161068257829003601f168201915b5050505050908060020154905083565b6000600260019054906101000a900473ffffffffffffffffffffffffffffffffffffffff1673ffffffffffffffffffffffffffffffffffffffff168273ffffffffffffffffffffffffffffffffffffffff16149050919050565b60045481565b6000600381111561072357610722610fba565b5b600260009054906101000a900460ff16600381111561074557610744610fba565b5b14610785576040517f08c379a000000000000000000000000000000000000000000000000000000000815260040161077c90611714565b60405180910390fd5b60405180606001604052806003548152602001828152602001600081525060008060035481526020019081526020016000206000820151816000015560208201518160010190816107d691906118e0565b5060408201518160020155905050600360008154809291906107f79061158e565b91905055507f7df257de6fe1b563377d932788d3a11eb1915bf8dd8cbfd2f3d72a08baecb61e600160035461082c91906119b2565b604051610839919061105b565b60405180910390a150565b60016020528060005260406000206000915054906101000a900460ff1681565b600260019054906101000a900473ffffffffffffffffffffffffffffffffffffffff1673ffffffffffffffffffffffffffffffffffffffff163373ffffffffffffffffffffffffffffffffffffffff16146108f4576040517f08c379a00000000000000000000000000000000000000000000000000000000081526004016108eb90611622565b60405180910390fd5b6001600381111561090857610907610fba565b5b600260009054906101000a900460ff16600381111561092a57610929610fba565b5b1461096a576040517f08c379a000000000000000000000000000000000000000000000000000000000815260040161096190611a58565b60405180910390fd5b60028060006101000a81548160ff0219169083600381111561098f5761098e610fba565b5b02179055507fda500c6a5bf3f3b57b54896dba1d5e82bf7fedb6c07d60d8013d9420e636e884600160026040516109c7929190611a78565b60405180910390a1565b6000600260019054906101000a900473ffffffffffffffffffffffffffffffffffffffff1673ffffffffffffffffffffffffffffffffffffffff163373ffffffffffffffffffffffffffffffffffffffff1614610a63576040517f08c379a0000000000000000000000000000000000000000000000000000000008152600401610a5a90611622565b60405180910390fd5b600380811115610a7657610a75610fba565b5b600260009054906101000a900460ff166003811115610a9857610a97610fba565b5b14610ad8576040517f08c379a0000000000000000000000000000000000000000000000000000000008152600401610acf90611aed565b60405180910390fd5b816003548110610b1d576040517f08c379a0000000000000000000000000000000000000000000000000000000008152600401610b14906114ad565b60405180910390fd5b60008084815260200190815260200160002060020154915050919050565b6060816003548110610b82576040517f08c379a0000000000000000000000000000000000000000000000000000000008152600401610b79906114ad565b60405180910390fd5b6000808481526020019081526020016000206001018054610ba290611671565b80601f0160208091040260200160405190810160405280929190818152602001828054610bce90611671565b8015610c1b5780601f10610bf057610100808354040283529160200191610c1b565b820191906000526020600020905b815481529060010190602001808311610bfe57829003601f168201915b5050505050915050919050565b600260009054906101000a900460ff1681565b600260019054906101000a900473ffffffffffffffffffffffffffffffffffffffff1673ffffffffffffffffffffffffffffffffffffffff163373ffffffffffffffffffffffffffffffffffffffff1614610ccb576040517f08c379a0000000000000000000000000000000000000000000000000000000008152600401610cc290611622565b60405180910390fd5b60026003811115610cdf57610cde610fba565b5b600260009054906101000a900460ff166003811115610d0157610d00610fba565b5b14610d41576040517f08c379a0000000000000000000000000000000000000000000000000000000008152600401610d3890611441565b60405180910390fd5b6003600260006101000a81548160ff02191690836003811115610d6757610d66610fba565b5b02179055507fda500c6a5bf3f3b57b54896dba1d5e82bf7fedb6c07d60d8013d9420e636e88460026003604051610d9f929190611a78565b60405180910390a1565b60035481565b600260019054906101000a900473ffffffffffffffffffffffffffffffffffffffff1681565b600260019054906101000a900473ffffffffffffffffffffffffffffffffffffffff1673ffffffffffffffffffffffffffffffffffffffff163373ffffffffffffffffffffffffffffffffffffffff1614610e65576040517f08c379a0000000000000000000000000000000000000000000000000000000008152600401610e5c90611622565b60405180910390fd5b60006003811115610e7957610e78610fba565b5b600260009054906101000a900460ff166003811115610e9b57610e9a610fba565b5b14610edb576040517f08c379a0000000000000000000000000000000000000000000000000000000008152600401610ed290611714565b60405180910390fd5b6001600260006101000a81548160ff02191690836003811115610f0157610f00610fba565b5b02179055507fda500c6a5bf3f3b57b54896dba1d5e82bf7fedb6c07d60d8013d9420e636e88460006001604051610f39929190611a78565b60405180910390a1565b6000604051905090565b600080fd5b600080fd5b6000819050919050565b610f6a81610f57565b8114610f7557600080fd5b50565b600081359050610f8781610f61565b92915050565b600060208284031215610fa357610fa2610f4d565b5b6000610fb184828501610f78565b91505092915050565b7f4e487b7100000000000000000000000000000000000000000000000000000000600052602160045260246000fd5b60048110610ffa57610ff9610fba565b5b50565b600081905061100b82610fe9565b919050565b600061101b82610ffd565b9050919050565b61102b81611010565b82525050565b60006020820190506110466000830184611022565b92915050565b61105581610f57565b82525050565b6000602082019050611070600083018461104c565b92915050565b600081519050919050565b600082825260208201905092915050565b60005b838110156110b0578082015181840152602081019050611095565b60008484015250505050565b6000601f19601f8301169050919050565b60006110d882611076565b6110e28185611081565b93506110f2818560208601611092565b6110fb816110bc565b840191505092915050565b600060608201905061111b600083018661104c565b818103602083015261112d81856110cd565b905061113c604083018461104c565b949350505050565b600073ffffffffffffffffffffffffffffffffffffffff82169050919050565b600061116f82611144565b9050919050565b61117f81611164565b811461118a57600080fd5b50565b60008135905061119c81611176565b92915050565b6000602082840312156111b8576111b7610f4d565b5b60006111c68482850161118d565b91505092915050565b60008115159050919050565b6111e4816111cf565b82525050565b60006020820190506111ff60008301846111db565b92915050565b600080fd5b600080fd5b7f4e487b7100000000000000000000000000000000000000000000000000000000600052604160045260246000fd5b611247826110bc565b810181811067ffffffffffffffff821117156112665761126561120f565b5b80604052505050565b6000611279610f43565b9050611285828261123e565b919050565b600067ffffffffffffffff8211156112a5576112a461120f565b5b6112ae826110bc565b9050602081019050919050565b82818337600083830152505050565b60006112dd6112d88461128a565b61126f565b9050828152602081018484840111156112f9576112f861120a565b5b6113048482856112bb565b509392505050565b600082601f83011261132157611320611205565b5b81356113318482602086016112ca565b91505092915050565b6000602082840312156113505761134f610f4d565b5b600082013567ffffffffffffffff81111561136e5761136d610f52565b5b61137a8482850161130c565b91505092915050565b6000602082019050818103600083015261139d81846110cd565b905092915050565b6113ae81611164565b82525050565b60006020820190506113c960008301846113a5565b92915050565b7f4572726f723a20537461747573206973206e6f7420766f74655374617274656460008201527f2e00000000000000000000000000000000000000000000000000000000000000602082015250565b600061142b602183611081565b9150611436826113cf565b604082019050919050565b6000602082019050818103600083015261145a8161141e565b9050919050565b7f4572726f723a20696e76616c69642063616e64696461746549642e0000000000600082015250565b6000611497601b83611081565b91506114a282611461565b602082019050919050565b600060208201905081810360008301526114c68161148a565b9050919050565b7f4572726f723a2074686520766f7465722068617320616c726561647920766f7460008201527f65642e0000000000000000000000000000000000000000000000000000000000602082015250565b6000611529602383611081565b9150611534826114cd565b604082019050919050565b600060208201905081810360008301526115588161151c565b9050919050565b7f4e487b7100000000000000000000000000000000000000000000000000000000600052601160045260246000fd5b600061159982610f57565b91507fffffffffffffffffffffffffffffffffffffffffffffffffffffffffffffffff82036115cb576115ca61155f565b5b600182019050919050565b7f4572726f723a206f6e6c792061646d696e20697320616c6c6f7765642e000000600082015250565b600061160c601d83611081565b9150611617826115d6565b602082019050919050565b6000602082019050818103600083015261163b816115ff565b9050919050565b7f4e487b7100000000000000000000000000000000000000000000000000000000600052602260045260246000fd5b6000600282049050600182168061168957607f821691505b60208210810361169c5761169b611642565b5b50919050565b7f4572726f723a20537461747573206973206e6f7420726567697374657243616e60008201527f64537461727465642e0000000000000000000000000000000000000000000000602082015250565b60006116fe602983611081565b9150611709826116a2565b604082019050919050565b6000602082019050818103600083015261172d816116f1565b9050919050565b60008190508160005260206000209050919050565b60006020601f8301049050919050565b600082821b905092915050565b6000600883026117967fffffffffffffffffffffffffffffffffffffffffffffffffffffffffffffffff82611759565b6117a08683611759565b95508019841693508086168417925050509392505050565b6000819050919050565b60006117dd6117d86117d384610f57565b6117b8565b610f57565b9050919050565b6000819050919050565b6117f7836117c2565b61180b611803826117e4565b848454611766565b825550505050565b600090565b611820611813565b61182b8184846117ee565b505050565b5b8181101561184f57611844600082611818565b600181019050611831565b5050565b601f8211156118945761186581611734565b61186e84611749565b8101602085101561187d578190505b61189161188985611749565b830182611830565b50505b505050565b600082821c905092915050565b60006118b760001984600802611899565b1980831691505092915050565b60006118d083836118a6565b9150826002028217905092915050565b6118e982611076565b67ffffffffffffffff8111156119025761190161120f565b5b61190c8254611671565b611917828285611853565b600060209050601f83116001811461194a5760008415611938578287015190505b61194285826118c4565b8655506119aa565b601f19841661195886611734565b60005b828110156119805784890151825560018201915060208501945060208101905061195b565b8683101561199d5784890151611999601f8916826118a6565b8355505b6001600288020188555050505b505050505050565b60006119bd82610f57565b91506119c883610f57565b92508282039050818111156119e0576119df61155f565b5b92915050565b7f4572726f723a20537461747573206973206e6f7420726567697374657243616e60008201527f64456e6465642e00000000000000000000000000000000000000000000000000602082015250565b6000611a42602783611081565b9150611a4d826119e6565b604082019050919050565b60006020820190508181036000830152611a7181611a35565b9050919050565b6000604082019050611a8d6000830185611022565b611a9a6020830184611022565b9392505050565b7f4572726f723a20537461747573206973206e6f7420766f7465456e6465642e00600082015250565b6000611ad7601f83611081565b9150611ae282611aa1565b602082019050919050565b60006020820190508181036000830152611b0681611aca565b905091905056fea264697066735822122021c06b5978c87bf2b220d986c689c25a9a453dcad2999a150d403411a26513b964736f6c63430008130033",
  "immutableReferences": {},
  "source": "//pragma solidity ^0.8.9;\npragma solidity >=0.4.22 <0.9.0;\n\n//     .\n// ,    ! ( )\n//   \n\ncontract Election_step2 {\n\n    // track what is happening in the contract\n    enum ElectionStatus {\n        registerCandStarted,\n        registerCandEnded,\n        voteStarted,\n        voteEnded\n    }\n\n    struct Candidate {\n        uint id;\n        string name;\n        uint voteCount;\n    }\n\n    mapping(uint => Candidate) public candidates;\n    mapping(address => bool) public voters; // prevent voting more than once (Voter struct   ?)\n\n    ElectionStatus public electionStatus;\n    address public admin;\n    uint public totalCandidateNum; // track candidate id\n    uint public totalVoteCount;\n    \n    // ----- check electionStatus -----\n\n    modifier checkRegisterCandidateStarted() {\n        require (electionStatus == ElectionStatus.registerCandStarted, \"Error: Status is not registerCandStarted.\");\n        _;\n    }\n    modifier checkRegisterCandidateEnded() {\n        require (electionStatus == ElectionStatus.registerCandEnded, \"Error: Status is not registerCandEnded.\");\n        _;\n    }\n    modifier checkVoteStarted() {\n        require (electionStatus == ElectionStatus.voteStarted, \"Error: Status is not voteStarted.\");\n        _;\n    }\n    modifier checkVoteEnded() {\n        require (electionStatus == ElectionStatus.voteEnded, \"Error: Status is not voteEnded.\");\n        _;\n    }\n\n    // ----- check etc -----\n    modifier checkAdmin() {\n        require (msg.sender == admin, \"Error: only admin is allowed.\");\n        _;\n    }\n    modifier checkValidCand(uint candidateId) {\n        require (candidateId < totalCandidateNum, \"Error: invalid candidateId.\");\n        _;\n    }\n\n    // ------ event : contract   log  ---------\n    event statusChangedEvent (ElectionStatus prev, ElectionStatus end);\n    event candRegisteredEvent (uint id); //  \n    event voteDoneEvent (); // TODO:       (ex. voter msg.sender)\n    // ------------------------------------------------------\n    // the very first contract transaction\n    constructor() public {\n        admin = msg.sender;\n        electionStatus = ElectionStatus.registerCandStarted;\n        //   \n    }\n\n    // ================== FUNCTION =======================\n    // ------ status   -------\n\n    //      startRegisterCandidate \n    function endRegisterCandSession() public \n        checkAdmin checkRegisterCandidateStarted  {\n        electionStatus = ElectionStatus.registerCandEnded;\n        emit statusChangedEvent(ElectionStatus.registerCandStarted, ElectionStatus.registerCandEnded);\n    }\n\n    function startVoteSession() public\n        checkAdmin checkRegisterCandidateEnded {\n        electionStatus = ElectionStatus.voteStarted;\n        emit statusChangedEvent(ElectionStatus.registerCandEnded, ElectionStatus.voteStarted);\n    }\n\n    function endVoteSession() public\n        checkAdmin checkVoteStarted {\n        electionStatus = ElectionStatus.voteEnded;\n        emit statusChangedEvent(ElectionStatus.voteStarted, ElectionStatus.voteEnded);\n    }\n    \n\n    // ------     ------\n\n    // NOTE: addCandidate registerCandidate  \n    function registerCandidate (string memory name) public \n        checkRegisterCandidateStarted {\n        candidates[totalCandidateNum] = Candidate(totalCandidateNum, name, 0);\n        totalCandidateNum++; // NOTE:  0   (step1.sol 1 )\n        emit candRegisteredEvent(totalCandidateNum - 1); //    log \n    }\n\n    function vote(uint candidateId) public \n        checkVoteStarted checkValidCand(candidateId) {\n        require(voters[msg.sender] == false, \"Error: the voter has already voted.\");\n        voters[msg.sender] = true;\n        candidates[candidateId].voteCount++;\n        totalVoteCount++;\n\n        emit voteDoneEvent(); //  ?\n    }\n    \n\n    // ------ for client (view functions) --------\n\n    // ex.   4, totalCandidateNum = 4,   0~3 \n    function getTotalCandidateNum() public view returns (uint) {\n        return totalCandidateNum;\n    }\n\n    function getCandidateName(uint id) public \n        checkValidCand(id) view returns (string memory) {\n        return candidates[id].name;\n    }\n\n    function getCandidateVoteCount(uint id) public \n        checkAdmin checkVoteEnded checkValidCand(id) view returns (uint) { //NOTE:   ,         ?\n        return candidates[id].voteCount;\n    }\n    \n    function getTotalVoteCount() public \n        checkAdmin view returns (uint) { //NOTE:   \n        return totalVoteCount;\n    }\n\n    function getIsAdmin(address addr) public view returns(bool) {\n        return addr == admin;\n    }\n\n    function getElectionStatus() public view returns(ElectionStatus) {\n        return electionStatus;\n    }\n\n\n\n    \n    \n\n    \n}",
  "sourcePath": "/Users/joohee/Desktop/23SS/web3/project_/votechain-dapp/backend/contracts/contracts/Election_step2.sol",
  "compiler": {
    "name": "solc",
    "version": "0.8.19+commit.7dd6d404.Emscripten.clang"
  },
  "schemaVersion": "3.4.13",
  "updatedAt": "2023-05-24T14:08:21.202Z",
  "networkType": "ethereum",
  "devdoc": {
    "kind": "dev",
    "methods": {},
    "version": 1
  },
  "userdoc": {
    "kind": "user",
    "methods": {},
    "version": 1
  }
}