{
  "contractName": "Election_step2",
  "abi": [
    {
      "inputs": [
        {
          "internalType": "address",
          "name": "_NFTTokenCA",
          "type": "address"
        }
      ],
      "stateMutability": "nonpayable",
      "type": "constructor"
    },
    {
      "anonymous": false,
      "inputs": [
        {
          "indexed": false,
          "internalType": "uint256",
          "name": "id",
          "type": "uint256"
        }
      ],
      "name": "candRegisteredEvent",
      "type": "event"
    },
    {
      "anonymous": false,
      "inputs": [
        {
          "indexed": false,
          "internalType": "enum Election_step2.ElectionStatus",
          "name": "prev",
          "type": "uint8"
        },
        {
          "indexed": false,
          "internalType": "enum Election_step2.ElectionStatus",
          "name": "end",
          "type": "uint8"
        }
      ],
      "name": "statusChangedEvent",
      "type": "event"
    },
    {
      "anonymous": false,
      "inputs": [],
      "name": "voteDoneEvent",
      "type": "event"
    },
    {
      "inputs": [],
      "name": "NFTTokenCA",
      "outputs": [
        {
          "internalType": "address",
          "name": "",
          "type": "address"
        }
      ],
      "stateMutability": "view",
      "type": "function",
      "constant": true
    },
    {
      "inputs": [],
      "name": "VoteNFT",
      "outputs": [
        {
          "internalType": "contract NFTToken",
          "name": "",
          "type": "address"
        }
      ],
      "stateMutability": "view",
      "type": "function",
      "constant": true
    },
    {
      "inputs": [],
      "name": "admin",
      "outputs": [
        {
          "internalType": "address",
          "name": "",
          "type": "address"
        }
      ],
      "stateMutability": "view",
      "type": "function"
    },
    {
      "inputs": [
        {
          "internalType": "uint256",
          "name": "",
          "type": "uint256"
        }
      ],
      "name": "candidates",
      "outputs": [
        {
          "internalType": "uint256",
          "name": "id",
          "type": "uint256"
        },
        {
          "internalType": "string",
          "name": "name",
          "type": "string"
        },
        {
          "internalType": "uint256",
          "name": "voteCount",
          "type": "uint256"
        }
      ],
      "stateMutability": "view",
      "type": "function"
    },
    {
      "inputs": [],
      "name": "electionStatus",
      "outputs": [
        {
          "internalType": "enum Election_step2.ElectionStatus",
          "name": "",
          "type": "uint8"
        }
      ],
      "stateMutability": "view",
      "type": "function"
    },
    {
      "inputs": [],
      "name": "totalCandidateNum",
      "outputs": [
        {
          "internalType": "uint256",
          "name": "",
          "type": "uint256"
        }
      ],
      "stateMutability": "view",
      "type": "function"
    },
    {
      "inputs": [],
      "name": "totalVoteCount",
      "outputs": [
        {
          "internalType": "uint256",
          "name": "",
          "type": "uint256"
        }
      ],
      "stateMutability": "view",
      "type": "function"
    },
    {
      "inputs": [
        {
          "internalType": "address",
          "name": "",
          "type": "address"
        }
      ],
      "name": "voters",
      "outputs": [
        {
          "internalType": "bool",
          "name": "",
          "type": "bool"
        }
      ],
      "stateMutability": "view",
      "type": "function"
    },
    {
      "inputs": [
        {
          "internalType": "address",
          "name": "",
          "type": "address"
        }
      ],
      "name": "votersToToken",
      "outputs": [
        {
          "internalType": "uint256",
          "name": "",
          "type": "uint256"
        }
      ],
      "stateMutability": "view",
      "type": "function",
      "constant": true
    },
    {
      "inputs": [],
      "name": "endRegisterCandSession",
      "outputs": [],
      "stateMutability": "nonpayable",
      "type": "function"
    },
    {
      "inputs": [],
      "name": "startVoteSession",
      "outputs": [],
      "stateMutability": "nonpayable",
      "type": "function"
    },
    {
      "inputs": [],
      "name": "endVoteSession",
      "outputs": [],
      "stateMutability": "nonpayable",
      "type": "function"
    },
    {
      "inputs": [],
      "name": "restartVoteSession",
      "outputs": [],
      "stateMutability": "nonpayable",
      "type": "function"
    },
    {
      "inputs": [
        {
          "internalType": "string",
          "name": "name",
          "type": "string"
        }
      ],
      "name": "registerCandidate",
      "outputs": [],
      "stateMutability": "nonpayable",
      "type": "function"
    },
    {
      "inputs": [
        {
          "internalType": "uint256",
          "name": "candidateId",
          "type": "uint256"
        }
      ],
      "name": "vote",
      "outputs": [],
      "stateMutability": "nonpayable",
      "type": "function"
    },
    {
      "inputs": [
        {
          "internalType": "uint256",
          "name": "candidateId",
          "type": "uint256"
        }
      ],
      "name": "voteAndGetNFT",
      "outputs": [
        {
          "internalType": "uint256",
          "name": "",
          "type": "uint256"
        }
      ],
      "stateMutability": "nonpayable",
      "type": "function"
    },
    {
      "inputs": [],
      "name": "getTotalCandidateNum",
      "outputs": [
        {
          "internalType": "uint256",
          "name": "",
          "type": "uint256"
        }
      ],
      "stateMutability": "view",
      "type": "function"
    },
    {
      "inputs": [
        {
          "internalType": "uint256",
          "name": "id",
          "type": "uint256"
        }
      ],
      "name": "getCandidateName",
      "outputs": [
        {
          "internalType": "string",
          "name": "",
          "type": "string"
        }
      ],
      "stateMutability": "view",
      "type": "function"
    },
    {
      "inputs": [
        {
          "internalType": "uint256",
          "name": "id",
          "type": "uint256"
        }
      ],
      "name": "getCandidateVoteCount",
      "outputs": [
        {
          "internalType": "uint256",
          "name": "",
          "type": "uint256"
        }
      ],
      "stateMutability": "view",
      "type": "function"
    },
    {
      "inputs": [],
      "name": "getTotalVoteCount",
      "outputs": [
        {
          "internalType": "uint256",
          "name": "",
          "type": "uint256"
        }
      ],
      "stateMutability": "view",
      "type": "function"
    },
    {
      "inputs": [
        {
          "internalType": "address",
          "name": "addr",
          "type": "address"
        }
      ],
      "name": "getIsAdmin",
      "outputs": [
        {
          "internalType": "bool",
          "name": "",
          "type": "bool"
        }
      ],
      "stateMutability": "view",
      "type": "function"
    },
    {
      "inputs": [],
      "name": "getElectionStatus",
      "outputs": [
        {
          "internalType": "enum Election_step2.ElectionStatus",
          "name": "",
          "type": "uint8"
        }
      ],
      "stateMutability": "view",
      "type": "function",
      "constant": true
    },
    {
      "inputs": [
        {
          "internalType": "address",
          "name": "addr",
          "type": "address"
        }
      ],
      "name": "getHasVoted",
      "outputs": [
        {
          "internalType": "bool",
          "name": "",
          "type": "bool"
        }
      ],
      "stateMutability": "view",
      "type": "function",
      "constant": true
    },
    {
      "inputs": [
        {
          "internalType": "address",
          "name": "addr",
          "type": "address"
        }
      ],
      "name": "getTokenId",
      "outputs": [
        {
          "internalType": "uint256",
          "name": "",
          "type": "uint256"
        }
      ],
      "stateMutability": "view",
      "type": "function",
      "constant": true
    },
    {
      "inputs": [],
      "name": "getNFTTokenCA",
      "outputs": [
        {
          "internalType": "address",
          "name": "",
          "type": "address"
        }
      ],
      "stateMutability": "view",
      "type": "function",
      "constant": true
    }
  ],
  "bytecode": "0x60806040523480156200001157600080fd5b5060405162002202380380620022028339818101604052810190620000379190620001ba565b33600560016101000a81548173ffffffffffffffffffffffffffffffffffffffff021916908373ffffffffffffffffffffffffffffffffffffffff1602179055506000600560006101000a81548160ff02191690836003811115620000a157620000a0620001ec565b5b021790555080600160006101000a81548173ffffffffffffffffffffffffffffffffffffffff021916908373ffffffffffffffffffffffffffffffffffffffff160217905550600160009054906101000a900473ffffffffffffffffffffffffffffffffffffffff166000806101000a81548173ffffffffffffffffffffffffffffffffffffffff021916908373ffffffffffffffffffffffffffffffffffffffff160217905550506200021b565b600080fd5b600073ffffffffffffffffffffffffffffffffffffffff82169050919050565b6000620001828262000155565b9050919050565b620001948162000175565b8114620001a057600080fd5b50565b600081519050620001b48162000189565b92915050565b600060208284031215620001d357620001d262000150565b5b6000620001e384828501620001a3565b91505092915050565b7f4e487b7100000000000000000000000000000000000000000000000000000000600052602160045260246000fd5b611fd7806200022b6000396000f3fe608060405234801561001057600080fd5b50600436106101735760003560e01c80639cd066bf116100de578063e9fd3f0511610097578063f74c168d11610071578063f74c168d14610466578063f780dbb814610470578063f851a4401461048e578063ff594a24146104ac57610173565b8063e9fd3f05146103fa578063eaef034914610418578063f15376861461043657610173565b80639cd066bf146103265780639eb88db614610344578063a3ec138d14610360578063aaa9834614610390578063b315c5971461039a578063e13804a7146103ca57610173565b80634868bff2116101305780634868bff21461022a578063613df3b4146102485780636de8bcb9146102785780636e4397c3146102a8578063822b0ceb146102d8578063893d8f4c1461030857610173565b80630121b93f14610178578063122902a6146101945780631ae0b242146101b25780631c0115be146101bc578063288c72e8146101da5780633477ee2e146101f8575b600080fd5b610192600480360381019061018d9190611398565b6104b6565b005b61019c6106a4565b6040516101a9919061143c565b60405180910390f35b6101ba6106bb565b005b6101c46107ed565b6040516101d19190611466565b60405180910390f35b6101e26107f7565b6040516101ef9190611466565b60405180910390f35b610212600480360381019061020d9190611398565b610891565b60405161022193929190611511565b60405180910390f35b610232610943565b60405161023f9190611590565b60405180910390f35b610262600480360381019061025d91906115d7565b610969565b60405161026f9190611466565b60405180910390f35b610292600480360381019061028d91906115d7565b610981565b60405161029f919061161f565b60405180910390f35b6102c260048036038101906102bd9190611398565b6109d7565b6040516102cf9190611466565b60405180910390f35b6102f260048036038101906102ed91906115d7565b610ad0565b6040516102ff919061161f565b60405180910390f35b610310610b2a565b60405161031d9190611466565b60405180910390f35b61032e610b30565b60405161033b9190611590565b60405180910390f35b61035e6004803603810190610359919061176f565b610b5a565b005b61037a600480360381019061037591906115d7565b610c90565b604051610387919061161f565b60405180910390f35b610398610cb0565b005b6103b460048036038101906103af9190611398565b610de3565b6040516103c19190611466565b60405180910390f35b6103e460048036038101906103df9190611398565b610f4e565b6040516103f191906117b8565b60405180910390f35b61040261103c565b60405161040f9190611839565b60405180910390f35b610420611060565b60405161042d919061143c565b60405180910390f35b610450600480360381019061044b91906115d7565b611073565b60405161045d9190611466565b60405180910390f35b61046e6110bc565b005b6104786111ef565b6040516104859190611466565b60405180910390f35b6104966111f5565b6040516104a39190611590565b60405180910390f35b6104b461121b565b005b600260038111156104ca576104c96113c5565b5b600560009054906101000a900460ff1660038111156104ec576104eb6113c5565b5b1461052c576040517f08c379a0000000000000000000000000000000000000000000000000000000008152600401610523906118c6565b60405180910390fd5b806006548110610571576040517f08c379a000000000000000000000000000000000000000000000000000000000815260040161056890611932565b60405180910390fd5b60001515600360003373ffffffffffffffffffffffffffffffffffffffff1673ffffffffffffffffffffffffffffffffffffffff16815260200190815260200160002060009054906101000a900460ff16151514610604576040517f08c379a00000000000000000000000000000000000000000000000000000000081526004016105fb906119c4565b60405180910390fd5b6001600360003373ffffffffffffffffffffffffffffffffffffffff1673ffffffffffffffffffffffffffffffffffffffff16815260200190815260200160002060006101000a81548160ff02191690831515021790555060026000838152602001908152602001600020600201600081548092919061068390611a13565b91905055506007600081548092919061069b90611a13565b91905055505050565b6000600560009054906101000a900460ff16905090565b600560019054906101000a900473ffffffffffffffffffffffffffffffffffffffff1673ffffffffffffffffffffffffffffffffffffffff163373ffffffffffffffffffffffffffffffffffffffff161461074b576040517f08c379a000000000000000000000000000000000000000000000000000000000815260040161074290611aa7565b60405180910390fd5b60038081111561075e5761075d6113c5565b5b600560009054906101000a900460ff1660038111156107805761077f6113c5565b5b146107c0576040517f08c379a00000000000000000000000000000000000000000000000000000000081526004016107b790611b13565b60405180910390fd5b6002600560006101000a81548160ff021916908360038111156107e6576107e56113c5565b5b0217905550565b6000600654905090565b6000600560019054906101000a900473ffffffffffffffffffffffffffffffffffffffff1673ffffffffffffffffffffffffffffffffffffffff163373ffffffffffffffffffffffffffffffffffffffff1614610889576040517f08c379a000000000000000000000000000000000000000000000000000000000815260040161088090611aa7565b60405180910390fd5b600754905090565b60026020528060005260406000206000915090508060000154908060010180546108ba90611b62565b80601f01602080910402602001604051908101604052809291908181526020018280546108e690611b62565b80156109335780601f1061090857610100808354040283529160200191610933565b820191906000526020600020905b81548152906001019060200180831161091657829003601f168201915b5050505050908060020154905083565b600160009054906101000a900473ffffffffffffffffffffffffffffffffffffffff1681565b60046020528060005260406000206000915090505481565b6000600360008373ffffffffffffffffffffffffffffffffffffffff1673ffffffffffffffffffffffffffffffffffffffff16815260200190815260200160002060009054906101000a900460ff169050919050565b60006109e2826104b6565b60008060009054906101000a900473ffffffffffffffffffffffffffffffffffffffff1673ffffffffffffffffffffffffffffffffffffffff166301173a74336040518263ffffffff1660e01b8152600401610a3e9190611590565b6020604051808303816000875af1158015610a5d573d6000803e3d6000fd5b505050506040513d601f19601f82011682018060405250810190610a819190611ba8565b905080600460003373ffffffffffffffffffffffffffffffffffffffff1673ffffffffffffffffffffffffffffffffffffffff1681526020019081526020016000208190555080915050919050565b6000600560019054906101000a900473ffffffffffffffffffffffffffffffffffffffff1673ffffffffffffffffffffffffffffffffffffffff168273ffffffffffffffffffffffffffffffffffffffff16149050919050565b60075481565b6000600160009054906101000a900473ffffffffffffffffffffffffffffffffffffffff16905090565b60006003811115610b6e57610b6d6113c5565b5b600560009054906101000a900460ff166003811115610b9057610b8f6113c5565b5b14610bd0576040517f08c379a0000000000000000000000000000000000000000000000000000000008152600401610bc790611c47565b60405180910390fd5b604051806060016040528060065481526020018281526020016000815250600260006006548152602001908152602001600020600082015181600001556020820151816001019081610c229190611e09565b506040820151816002015590505060066000815480929190610c4390611a13565b91905055507f7df257de6fe1b563377d932788d3a11eb1915bf8dd8cbfd2f3d72a08baecb61e6001600654610c789190611edb565b604051610c859190611466565b60405180910390a150565b60036020528060005260406000206000915054906101000a900460ff1681565b600560019054906101000a900473ffffffffffffffffffffffffffffffffffffffff1673ffffffffffffffffffffffffffffffffffffffff163373ffffffffffffffffffffffffffffffffffffffff1614610d40576040517f08c379a0000000000000000000000000000000000000000000000000000000008152600401610d3790611aa7565b60405180910390fd5b60016003811115610d5457610d536113c5565b5b600560009054906101000a900460ff166003811115610d7657610d756113c5565b5b14610db6576040517f08c379a0000000000000000000000000000000000000000000000000000000008152600401610dad90611f81565b60405180910390fd5b6002600560006101000a81548160ff02191690836003811115610ddc57610ddb6113c5565b5b0217905550565b6000600560019054906101000a900473ffffffffffffffffffffffffffffffffffffffff1673ffffffffffffffffffffffffffffffffffffffff163373ffffffffffffffffffffffffffffffffffffffff1614610e75576040517f08c379a0000000000000000000000000000000000000000000000000000000008152600401610e6c90611aa7565b60405180910390fd5b600380811115610e8857610e876113c5565b5b600560009054906101000a900460ff166003811115610eaa57610ea96113c5565b5b14610eea576040517f08c379a0000000000000000000000000000000000000000000000000000000008152600401610ee190611b13565b60405180910390fd5b816006548110610f2f576040517f08c379a0000000000000000000000000000000000000000000000000000000008152600401610f2690611932565b60405180910390fd5b6002600084815260200190815260200160002060020154915050919050565b6060816006548110610f95576040517f08c379a0000000000000000000000000000000000000000000000000000000008152600401610f8c90611932565b60405180910390fd5b600260008481526020019081526020016000206001018054610fb690611b62565b80601f0160208091040260200160405190810160405280929190818152602001828054610fe290611b62565b801561102f5780601f106110045761010080835404028352916020019161102f565b820191906000526020600020905b81548152906001019060200180831161101257829003601f168201915b5050505050915050919050565b60008054906101000a900473ffffffffffffffffffffffffffffffffffffffff1681565b600560009054906101000a900460ff1681565b6000600460008373ffffffffffffffffffffffffffffffffffffffff1673ffffffffffffffffffffffffffffffffffffffff168152602001908152602001600020549050919050565b600560019054906101000a900473ffffffffffffffffffffffffffffffffffffffff1673ffffffffffffffffffffffffffffffffffffffff163373ffffffffffffffffffffffffffffffffffffffff161461114c576040517f08c379a000000000000000000000000000000000000000000000000000000000815260040161114390611aa7565b60405180910390fd5b600260038111156111605761115f6113c5565b5b600560009054906101000a900460ff166003811115611182576111816113c5565b5b146111c2576040517f08c379a00000000000000000000000000000000000000000000000000000000081526004016111b9906118c6565b60405180910390fd5b6003600560006101000a81548160ff021916908360038111156111e8576111e76113c5565b5b0217905550565b60065481565b600560019054906101000a900473ffffffffffffffffffffffffffffffffffffffff1681565b600560019054906101000a900473ffffffffffffffffffffffffffffffffffffffff1673ffffffffffffffffffffffffffffffffffffffff163373ffffffffffffffffffffffffffffffffffffffff16146112ab576040517f08c379a00000000000000000000000000000000000000000000000000000000081526004016112a290611aa7565b60405180910390fd5b600060038111156112bf576112be6113c5565b5b600560009054906101000a900460ff1660038111156112e1576112e06113c5565b5b14611321576040517f08c379a000000000000000000000000000000000000000000000000000000000815260040161131890611c47565b60405180910390fd5b6001600560006101000a81548160ff02191690836003811115611347576113466113c5565b5b0217905550565b6000604051905090565b600080fd5b600080fd5b6000819050919050565b61137581611362565b811461138057600080fd5b50565b6000813590506113928161136c565b92915050565b6000602082840312156113ae576113ad611358565b5b60006113bc84828501611383565b91505092915050565b7f4e487b7100000000000000000000000000000000000000000000000000000000600052602160045260246000fd5b60048110611405576114046113c5565b5b50565b6000819050611416826113f4565b919050565b600061142682611408565b9050919050565b6114368161141b565b82525050565b6000602082019050611451600083018461142d565b92915050565b61146081611362565b82525050565b600060208201905061147b6000830184611457565b92915050565b600081519050919050565b600082825260208201905092915050565b60005b838110156114bb5780820151818401526020810190506114a0565b60008484015250505050565b6000601f19601f8301169050919050565b60006114e382611481565b6114ed818561148c565b93506114fd81856020860161149d565b611506816114c7565b840191505092915050565b60006060820190506115266000830186611457565b818103602083015261153881856114d8565b90506115476040830184611457565b949350505050565b600073ffffffffffffffffffffffffffffffffffffffff82169050919050565b600061157a8261154f565b9050919050565b61158a8161156f565b82525050565b60006020820190506115a56000830184611581565b92915050565b6115b48161156f565b81146115bf57600080fd5b50565b6000813590506115d1816115ab565b92915050565b6000602082840312156115ed576115ec611358565b5b60006115fb848285016115c2565b91505092915050565b60008115159050919050565b61161981611604565b82525050565b60006020820190506116346000830184611610565b92915050565b600080fd5b600080fd5b7f4e487b7100000000000000000000000000000000000000000000000000000000600052604160045260246000fd5b61167c826114c7565b810181811067ffffffffffffffff8211171561169b5761169a611644565b5b80604052505050565b60006116ae61134e565b90506116ba8282611673565b919050565b600067ffffffffffffffff8211156116da576116d9611644565b5b6116e3826114c7565b9050602081019050919050565b82818337600083830152505050565b600061171261170d846116bf565b6116a4565b90508281526020810184848401111561172e5761172d61163f565b5b6117398482856116f0565b509392505050565b600082601f8301126117565761175561163a565b5b81356117668482602086016116ff565b91505092915050565b60006020828403121561178557611784611358565b5b600082013567ffffffffffffffff8111156117a3576117a261135d565b5b6117af84828501611741565b91505092915050565b600060208201905081810360008301526117d281846114d8565b905092915050565b6000819050919050565b60006117ff6117fa6117f58461154f565b6117da565b61154f565b9050919050565b6000611811826117e4565b9050919050565b600061182382611806565b9050919050565b61183381611818565b82525050565b600060208201905061184e600083018461182a565b92915050565b7f4572726f723a20537461747573206973206e6f7420766f74655374617274656460008201527f2e00000000000000000000000000000000000000000000000000000000000000602082015250565b60006118b060218361148c565b91506118bb82611854565b604082019050919050565b600060208201905081810360008301526118df816118a3565b9050919050565b7f4572726f723a20696e76616c69642063616e64696461746549642e0000000000600082015250565b600061191c601b8361148c565b9150611927826118e6565b602082019050919050565b6000602082019050818103600083015261194b8161190f565b9050919050565b7f4572726f723a2074686520766f7465722068617320616c726561647920766f7460008201527f65642e0000000000000000000000000000000000000000000000000000000000602082015250565b60006119ae60238361148c565b91506119b982611952565b604082019050919050565b600060208201905081810360008301526119dd816119a1565b9050919050565b7f4e487b7100000000000000000000000000000000000000000000000000000000600052601160045260246000fd5b6000611a1e82611362565b91507fffffffffffffffffffffffffffffffffffffffffffffffffffffffffffffffff8203611a5057611a4f6119e4565b5b600182019050919050565b7f4572726f723a206f6e6c792061646d696e20697320616c6c6f7765642e000000600082015250565b6000611a91601d8361148c565b9150611a9c82611a5b565b602082019050919050565b60006020820190508181036000830152611ac081611a84565b9050919050565b7f4572726f723a20537461747573206973206e6f7420766f7465456e6465642e00600082015250565b6000611afd601f8361148c565b9150611b0882611ac7565b602082019050919050565b60006020820190508181036000830152611b2c81611af0565b9050919050565b7f4e487b7100000000000000000000000000000000000000000000000000000000600052602260045260246000fd5b60006002820490506001821680611b7a57607f821691505b602082108103611b8d57611b8c611b33565b5b50919050565b600081519050611ba28161136c565b92915050565b600060208284031215611bbe57611bbd611358565b5b6000611bcc84828501611b93565b91505092915050565b7f4572726f723a20537461747573206973206e6f7420726567697374657243616e60008201527f64537461727465642e0000000000000000000000000000000000000000000000602082015250565b6000611c3160298361148c565b9150611c3c82611bd5565b604082019050919050565b60006020820190508181036000830152611c6081611c24565b9050919050565b60008190508160005260206000209050919050565b60006020601f8301049050919050565b600082821b905092915050565b600060088302611cc97fffffffffffffffffffffffffffffffffffffffffffffffffffffffffffffffff82611c8c565b611cd38683611c8c565b95508019841693508086168417925050509392505050565b6000611d06611d01611cfc84611362565b6117da565b611362565b9050919050565b6000819050919050565b611d2083611ceb565b611d34611d2c82611d0d565b848454611c99565b825550505050565b600090565b611d49611d3c565b611d54818484611d17565b505050565b5b81811015611d7857611d6d600082611d41565b600181019050611d5a565b5050565b601f821115611dbd57611d8e81611c67565b611d9784611c7c565b81016020851015611da6578190505b611dba611db285611c7c565b830182611d59565b50505b505050565b600082821c905092915050565b6000611de060001984600802611dc2565b1980831691505092915050565b6000611df98383611dcf565b9150826002028217905092915050565b611e1282611481565b67ffffffffffffffff811115611e2b57611e2a611644565b5b611e358254611b62565b611e40828285611d7c565b600060209050601f831160018114611e735760008415611e61578287015190505b611e6b8582611ded565b865550611ed3565b601f198416611e8186611c67565b60005b82811015611ea957848901518255600182019150602085019450602081019050611e84565b86831015611ec65784890151611ec2601f891682611dcf565b8355505b6001600288020188555050505b505050505050565b6000611ee682611362565b9150611ef183611362565b9250828203905081811115611f0957611f086119e4565b5b92915050565b7f4572726f723a20537461747573206973206e6f7420726567697374657243616e60008201527f64456e6465642e00000000000000000000000000000000000000000000000000602082015250565b6000611f6b60278361148c565b9150611f7682611f0f565b604082019050919050565b60006020820190508181036000830152611f9a81611f5e565b905091905056fea2646970667358221220c57a46de8ca80a95b2b32d37e22ad784998183e9500c130a8113a012e6fae94a64736f6c63430008130033",
  "immutableReferences": {},
  "source": "pragma solidity >=0.4.22 <0.9.0;\n\nimport \"./NFTToken.sol\";\n\ncontract Election_step2 {\n\n    NFTToken public VoteNFT;\n    address public NFTTokenCA;\n\n    // track what is happening in the contract\n    enum ElectionStatus {\n        registerCandStarted,\n        registerCandEnded,\n        voteStarted,\n        voteEnded\n    }\n\n    struct Candidate {\n        uint id;\n        string name;\n        uint voteCount;\n    }\n\n    mapping(uint => Candidate) public candidates;\n    mapping(address => bool) public voters; // prevent voting more than once (Voter struct   ?)\n    mapping(address => uint) public votersToToken;\n\n    ElectionStatus public electionStatus;\n    address public admin; // NOTE: onlyOwner (Ownable.sol) ??\n    uint public totalCandidateNum; // track candidate id\n    uint public totalVoteCount;\n    \n    // ----- check electionStatus -----\n\n    modifier checkRegisterCandidateStarted() {\n        require (electionStatus == ElectionStatus.registerCandStarted, \"Error: Status is not registerCandStarted.\");\n        _;\n    }\n    modifier checkRegisterCandidateEnded() {\n        require (electionStatus == ElectionStatus.registerCandEnded, \"Error: Status is not registerCandEnded.\");\n        _;\n    }\n    modifier checkVoteStarted() {\n        require (electionStatus == ElectionStatus.voteStarted, \"Error: Status is not voteStarted.\");\n        _;\n    }\n    modifier checkVoteEnded() {\n        require (electionStatus == ElectionStatus.voteEnded, \"Error: Status is not voteEnded.\");\n        _;\n    }\n\n    // ----- check etc -----\n    modifier checkAdmin() {\n        require (msg.sender == admin, \"Error: only admin is allowed.\");\n        _;\n    }\n    modifier checkValidCand(uint candidateId) {\n        require (candidateId < totalCandidateNum, \"Error: invalid candidateId.\");\n        _;\n    }\n\n    // ------ event : contract   log  ---------\n    event statusChangedEvent (ElectionStatus prev, ElectionStatus end);\n    event candRegisteredEvent (uint id); //  \n    event voteDoneEvent (); // TODO:       (ex. voter msg.sender)\n    // ------------------------------------------------------\n    // the very first contract transaction\n    constructor(address _NFTTokenCA) public {\n        admin = msg.sender;\n        electionStatus = ElectionStatus.registerCandStarted; //   \n\n        NFTTokenCA = _NFTTokenCA;\n        VoteNFT = NFTToken(NFTTokenCA);\n    }\n\n    // ================== FUNCTION =======================\n    // ------ status   -------\n\n    //      startRegisterCandidate \n    function endRegisterCandSession() public \n        checkAdmin checkRegisterCandidateStarted  {\n        electionStatus = ElectionStatus.registerCandEnded;\n        //emit statusChangedEvent(ElectionStatus.registerCandStarted, ElectionStatus.registerCandEnded);\n    }\n\n    function startVoteSession() public\n        checkAdmin checkRegisterCandidateEnded {\n        electionStatus = ElectionStatus.voteStarted;\n        //emit statusChangedEvent(ElectionStatus.registerCandEnded, ElectionStatus.voteStarted);\n    }\n\n    function endVoteSession() public\n        checkAdmin checkVoteStarted {\n        electionStatus = ElectionStatus.voteEnded;\n        //emit statusChangedEvent(ElectionStatus.voteStarted, ElectionStatus.voteEnded);\n    }\n    // special funciton~~\n    function restartVoteSession()  public\n        checkAdmin checkVoteEnded {\n        electionStatus = ElectionStatus.voteStarted;\n    }\n    \n\n    // ------     ------\n\n    // NOTE: addCandidate registerCandidate  \n    function registerCandidate (string memory name) public \n        checkRegisterCandidateStarted {\n        candidates[totalCandidateNum] = Candidate(totalCandidateNum, name, 0);\n        totalCandidateNum++; // NOTE:  0   (step1.sol 1 )\n        emit candRegisteredEvent(totalCandidateNum - 1); //    log \n    }\n\n    function vote(uint candidateId) public \n        checkVoteStarted checkValidCand(candidateId) {\n        require(voters[msg.sender] == false, \"Error: the voter has already voted.\");\n        voters[msg.sender] = true;\n        candidates[candidateId].voteCount++;\n        totalVoteCount++;\n        //emit voteDoneEvent(); //  ?\n    }\n\n    function voteAndGetNFT(uint candidateId) public returns (uint){\n        vote(candidateId);\n        uint tokenId = VoteNFT.mintToken(msg.sender); //    (  ..)\n        votersToToken[msg.sender] = tokenId;\n\n        return tokenId; //NOTE:   \n    }\n\n\n    // ------ Getter --------\n\n    // ex.   4, totalCandidateNum = 4,   0~3 \n    function getTotalCandidateNum() public view returns (uint) {\n        return totalCandidateNum;\n    }\n\n    function getCandidateName(uint id) public \n        checkValidCand(id) view returns (string memory) {\n        return candidates[id].name;\n    }\n\n    function getCandidateVoteCount(uint id) public \n        checkAdmin checkVoteEnded checkValidCand(id) view returns (uint) { //NOTE:   ,         ?\n        return candidates[id].voteCount;\n    }\n    \n    function getTotalVoteCount() public \n        checkAdmin view returns (uint) { //NOTE:   \n        return totalVoteCount;\n    }\n\n    function getIsAdmin(address addr) public view returns(bool) {\n        return addr == admin;\n    }\n\n    function getElectionStatus() public view returns(ElectionStatus) {\n        return electionStatus;\n    }\n\n    function getHasVoted(address addr) public view returns(bool) {\n        return voters[addr];\n    }\n\n    function getTokenId(address addr) public view returns(uint) {\n        return votersToToken[addr];\n    }\n\n    function getNFTTokenCA() public view returns(address) {\n        return NFTTokenCA;\n    }\n\n    \n}",
  "sourcePath": "/Users/joohee/Desktop/23SS/web3/project_/votechain-dapp/backend/contracts/contracts/Election_step2.sol",
  "compiler": {
    "name": "solc",
    "version": "0.8.19+commit.7dd6d404.Emscripten.clang"
  },
  "schemaVersion": "3.4.13",
  "updatedAt": "2023-05-26T13:47:55.687Z",
  "networkType": "ethereum",
  "devdoc": {
    "kind": "dev",
    "methods": {},
    "version": 1
  },
  "userdoc": {
    "kind": "user",
    "methods": {},
    "version": 1
  }
}