{
  "contractName": "Election_step1",
  "abi": [
    {
      "inputs": [],
      "stateMutability": "nonpayable",
      "type": "constructor"
    },
    {
      "inputs": [
        {
          "internalType": "uint256",
          "name": "",
          "type": "uint256"
        }
      ],
      "name": "candidates",
      "outputs": [
        {
          "internalType": "uint256",
          "name": "id",
          "type": "uint256"
        },
        {
          "internalType": "string",
          "name": "name",
          "type": "string"
        },
        {
          "internalType": "uint256",
          "name": "voteCount",
          "type": "uint256"
        }
      ],
      "stateMutability": "view",
      "type": "function"
    },
    {
      "inputs": [],
      "name": "totalCandidateNum",
      "outputs": [
        {
          "internalType": "uint256",
          "name": "",
          "type": "uint256"
        }
      ],
      "stateMutability": "view",
      "type": "function"
    },
    {
      "inputs": [
        {
          "internalType": "address",
          "name": "",
          "type": "address"
        }
      ],
      "name": "voters",
      "outputs": [
        {
          "internalType": "bool",
          "name": "",
          "type": "bool"
        }
      ],
      "stateMutability": "view",
      "type": "function"
    },
    {
      "inputs": [
        {
          "internalType": "string",
          "name": "name",
          "type": "string"
        }
      ],
      "name": "addCandidate",
      "outputs": [],
      "stateMutability": "nonpayable",
      "type": "function"
    },
    {
      "inputs": [
        {
          "internalType": "uint256",
          "name": "candidateId",
          "type": "uint256"
        }
      ],
      "name": "vote",
      "outputs": [],
      "stateMutability": "nonpayable",
      "type": "function"
    },
    {
      "inputs": [
        {
          "internalType": "uint256",
          "name": "candidateId",
          "type": "uint256"
        }
      ],
      "name": "voteResultFor",
      "outputs": [
        {
          "internalType": "uint256",
          "name": "",
          "type": "uint256"
        }
      ],
      "stateMutability": "view",
      "type": "function"
    }
  ],
  "bytecode": "0x60806040523480156200001157600080fd5b50620000586040518060400160405280600581526020017f47656573650000000000000000000000000000000000000000000000000000008152506200013060201b60201c565b6200009e6040518060400160405280600781526020017f4e75706a756b69000000000000000000000000000000000000000000000000008152506200013060201b60201c565b620000e46040518060400160405280600f81526020017f4b6169737420507265736964656e7400000000000000000000000000000000008152506200013060201b60201c565b6200012a6040518060400160405280600381526020017f43617400000000000000000000000000000000000000000000000000000000008152506200013060201b60201c565b6200058a565b6000808154809291906200014490620001e6565b919050555060405180606001604052806000548152602001828152602001600081525060016000805481526020019081526020016000206000820151816000015560208201518160010190816200019c9190620004a3565b506040820151816002015590505050565b7f4e487b7100000000000000000000000000000000000000000000000000000000600052601160045260246000fd5b6000819050919050565b6000620001f382620001dc565b91507fffffffffffffffffffffffffffffffffffffffffffffffffffffffffffffffff8203620002285762000227620001ad565b5b600182019050919050565b600081519050919050565b7f4e487b7100000000000000000000000000000000000000000000000000000000600052604160045260246000fd5b7f4e487b7100000000000000000000000000000000000000000000000000000000600052602260045260246000fd5b60006002820490506001821680620002b557607f821691505b602082108103620002cb57620002ca6200026d565b5b50919050565b60008190508160005260206000209050919050565b60006020601f8301049050919050565b600082821b905092915050565b600060088302620003357fffffffffffffffffffffffffffffffffffffffffffffffffffffffffffffffff82620002f6565b620003418683620002f6565b95508019841693508086168417925050509392505050565b6000819050919050565b6000620003846200037e6200037884620001dc565b62000359565b620001dc565b9050919050565b6000819050919050565b620003a08362000363565b620003b8620003af826200038b565b84845462000303565b825550505050565b600090565b620003cf620003c0565b620003dc81848462000395565b505050565b5b818110156200040457620003f8600082620003c5565b600181019050620003e2565b5050565b601f82111562000453576200041d81620002d1565b6200042884620002e6565b8101602085101562000438578190505b620004506200044785620002e6565b830182620003e1565b50505b505050565b600082821c905092915050565b6000620004786000198460080262000458565b1980831691505092915050565b600062000493838362000465565b9150826002028217905092915050565b620004ae8262000233565b67ffffffffffffffff811115620004ca57620004c96200023e565b5b620004d682546200029c565b620004e382828562000408565b600060209050601f8311600181146200051b576000841562000506578287015190505b62000512858262000485565b86555062000582565b601f1984166200052b86620002d1565b60005b8281101562000555578489015182556001820191506020850194506020810190506200052e565b8683101562000575578489015162000571601f89168262000465565b8355505b6001600288020188555050505b505050505050565b610b87806200059a6000396000f3fe608060405234801561001057600080fd5b50600436106100625760003560e01c80630121b93f146100675780633477ee2e14610083578063462e91ec146100b5578063a3ec138d146100d1578063d80b863c14610101578063f780dbb814610131575b600080fd5b610081600480360381019061007c919061042c565b61014f565b005b61009d6004803603810190610098919061042c565b61021e565b6040516100ac939291906104f8565b60405180910390f35b6100cf60048036038101906100ca919061066b565b6102d0565b005b6100eb60048036038101906100e69190610712565b610349565b6040516100f8919061075a565b60405180910390f35b61011b6004803603810190610116919061042c565b610369565b6040516101289190610775565b60405180910390f35b6101396103d1565b6040516101469190610775565b60405180910390f35b610158816103d7565b610197576040517f08c379a000000000000000000000000000000000000000000000000000000000815260040161018e906107dc565b60405180910390fd5b6001600260003373ffffffffffffffffffffffffffffffffffffffff1673ffffffffffffffffffffffffffffffffffffffff16815260200190815260200160002060006101000a81548160ff0219169083151502179055506001600082815260200190815260200160002060020160008154809291906102169061082b565b919050555050565b6001602052806000526040600020600091509050806000015490806001018054610247906108a2565b80601f0160208091040260200160405190810160405280929190818152602001828054610273906108a2565b80156102c05780601f10610295576101008083540402835291602001916102c0565b820191906000526020600020905b8154815290600101906020018083116102a357829003601f168201915b5050505050908060020154905083565b6000808154809291906102e29061082b565b919050555060405180606001604052806000548152602001828152602001600081525060016000805481526020019081526020016000206000820151816000015560208201518160010190816103389190610a7f565b506040820151816002015590505050565b60026020528060005260406000206000915054906101000a900460ff1681565b6000610374826103d7565b6103b3576040517f08c379a00000000000000000000000000000000000000000000000000000000081526004016103aa906107dc565b60405180910390fd5b60016000838152602001908152602001600020600201549050919050565b60005481565b600060019050919050565b6000604051905090565b600080fd5b600080fd5b6000819050919050565b610409816103f6565b811461041457600080fd5b50565b60008135905061042681610400565b92915050565b600060208284031215610442576104416103ec565b5b600061045084828501610417565b91505092915050565b610462816103f6565b82525050565b600081519050919050565b600082825260208201905092915050565b60005b838110156104a2578082015181840152602081019050610487565b60008484015250505050565b6000601f19601f8301169050919050565b60006104ca82610468565b6104d48185610473565b93506104e4818560208601610484565b6104ed816104ae565b840191505092915050565b600060608201905061050d6000830186610459565b818103602083015261051f81856104bf565b905061052e6040830184610459565b949350505050565b600080fd5b600080fd5b7f4e487b7100000000000000000000000000000000000000000000000000000000600052604160045260246000fd5b610578826104ae565b810181811067ffffffffffffffff8211171561059757610596610540565b5b80604052505050565b60006105aa6103e2565b90506105b6828261056f565b919050565b600067ffffffffffffffff8211156105d6576105d5610540565b5b6105df826104ae565b9050602081019050919050565b82818337600083830152505050565b600061060e610609846105bb565b6105a0565b90508281526020810184848401111561062a5761062961053b565b5b6106358482856105ec565b509392505050565b600082601f83011261065257610651610536565b5b81356106628482602086016105fb565b91505092915050565b600060208284031215610681576106806103ec565b5b600082013567ffffffffffffffff81111561069f5761069e6103f1565b5b6106ab8482850161063d565b91505092915050565b600073ffffffffffffffffffffffffffffffffffffffff82169050919050565b60006106df826106b4565b9050919050565b6106ef816106d4565b81146106fa57600080fd5b50565b60008135905061070c816106e6565b92915050565b600060208284031215610728576107276103ec565b5b6000610736848285016106fd565b91505092915050565b60008115159050919050565b6107548161073f565b82525050565b600060208201905061076f600083018461074b565b92915050565b600060208201905061078a6000830184610459565b92915050565b7f5468652063616e646964617465206973206e6f742076616c69642e0000000000600082015250565b60006107c6601b83610473565b91506107d182610790565b602082019050919050565b600060208201905081810360008301526107f5816107b9565b9050919050565b7f4e487b7100000000000000000000000000000000000000000000000000000000600052601160045260246000fd5b6000610836826103f6565b91507fffffffffffffffffffffffffffffffffffffffffffffffffffffffffffffffff8203610868576108676107fc565b5b600182019050919050565b7f4e487b7100000000000000000000000000000000000000000000000000000000600052602260045260246000fd5b600060028204905060018216806108ba57607f821691505b6020821081036108cd576108cc610873565b5b50919050565b60008190508160005260206000209050919050565b60006020601f8301049050919050565b600082821b905092915050565b6000600883026109357fffffffffffffffffffffffffffffffffffffffffffffffffffffffffffffffff826108f8565b61093f86836108f8565b95508019841693508086168417925050509392505050565b6000819050919050565b600061097c610977610972846103f6565b610957565b6103f6565b9050919050565b6000819050919050565b61099683610961565b6109aa6109a282610983565b848454610905565b825550505050565b600090565b6109bf6109b2565b6109ca81848461098d565b505050565b5b818110156109ee576109e36000826109b7565b6001810190506109d0565b5050565b601f821115610a3357610a04816108d3565b610a0d846108e8565b81016020851015610a1c578190505b610a30610a28856108e8565b8301826109cf565b50505b505050565b600082821c905092915050565b6000610a5660001984600802610a38565b1980831691505092915050565b6000610a6f8383610a45565b9150826002028217905092915050565b610a8882610468565b67ffffffffffffffff811115610aa157610aa0610540565b5b610aab82546108a2565b610ab68282856109f2565b600060209050601f831160018114610ae95760008415610ad7578287015190505b610ae18582610a63565b865550610b49565b601f198416610af7866108d3565b60005b82811015610b1f57848901518255600182019150602085019450602081019050610afa565b86831015610b3c5784890151610b38601f891682610a45565b8355505b6001600288020188555050505b50505050505056fea264697066735822122010e381dfa39e24b387359537c64759fce91c04e7383148be7219ea9991dfafe264736f6c63430008130033",
  "immutableReferences": {},
  "source": "//pragma solidity ^0.8.9;\npragma solidity >=0.4.22 <0.9.0;\n\ncontract Election_step1 {\n    struct Candidate {\n        uint id;\n        string name;\n        uint voteCount;\n    }\n    uint public totalCandidateNum; // track candidate id\n    mapping(uint => Candidate) public candidates;\n    mapping(address => bool) public voters; // prevent voting more than once\n\n    // register candidate\n    function addCandidate (string memory name) public {\n        totalCandidateNum++;\n        candidates[totalCandidateNum] = Candidate(totalCandidateNum, name, 0);\n    }\n\n    function validCandidate(uint candidateId) private view returns (bool){\n        return true;\n    }\n\n    function vote(uint candidateId) public {\n        require(validCandidate(candidateId),\"The candidate is not valid.\");\n        voters[msg.sender] = true;\n        candidates[candidateId].voteCount++;\n    }\n\n    function voteResultFor(uint candidateId) public view returns(uint){\n        require(validCandidate(candidateId),\"The candidate is not valid.\");\n        return candidates[candidateId].voteCount;\n    }\n\n    \n    constructor() public {\n        addCandidate('Geese');\n        addCandidate('Nupjuki');\n        addCandidate('Kaist President');\n        addCandidate('Cat');\n    }\n\n    \n}",
  "sourcePath": "/Users/joohee/Desktop/23SS/web3/project_/votechain-dapp/backend/contracts/contracts/Election_step1.sol",
  "compiler": {
    "name": "solc",
    "version": "0.8.19+commit.7dd6d404.Emscripten.clang"
  },
  "schemaVersion": "3.4.13",
  "updatedAt": "2023-05-26T07:35:46.426Z",
  "devdoc": {
    "kind": "dev",
    "methods": {},
    "version": 1
  },
  "userdoc": {
    "kind": "user",
    "methods": {},
    "version": 1
  }
}