{
  "contractName": "NFTToken",
  "abi": [
    {
      "inputs": [
        {
          "internalType": "string",
          "name": "_name",
          "type": "string"
        },
        {
          "internalType": "string",
          "name": "_symbol",
          "type": "string"
        }
      ],
      "stateMutability": "nonpayable",
      "type": "constructor"
    },
    {
      "anonymous": false,
      "inputs": [
        {
          "indexed": true,
          "internalType": "address",
          "name": "owner",
          "type": "address"
        },
        {
          "indexed": true,
          "internalType": "address",
          "name": "approved",
          "type": "address"
        },
        {
          "indexed": true,
          "internalType": "uint256",
          "name": "tokenId",
          "type": "uint256"
        }
      ],
      "name": "Approval",
      "type": "event"
    },
    {
      "anonymous": false,
      "inputs": [
        {
          "indexed": true,
          "internalType": "address",
          "name": "owner",
          "type": "address"
        },
        {
          "indexed": true,
          "internalType": "address",
          "name": "operator",
          "type": "address"
        },
        {
          "indexed": false,
          "internalType": "bool",
          "name": "approved",
          "type": "bool"
        }
      ],
      "name": "ApprovalForAll",
      "type": "event"
    },
    {
      "anonymous": false,
      "inputs": [
        {
          "indexed": false,
          "internalType": "uint256",
          "name": "_fromTokenId",
          "type": "uint256"
        },
        {
          "indexed": false,
          "internalType": "uint256",
          "name": "_toTokenId",
          "type": "uint256"
        }
      ],
      "name": "BatchMetadataUpdate",
      "type": "event"
    },
    {
      "anonymous": false,
      "inputs": [
        {
          "indexed": false,
          "internalType": "uint256",
          "name": "_tokenId",
          "type": "uint256"
        }
      ],
      "name": "MetadataUpdate",
      "type": "event"
    },
    {
      "anonymous": false,
      "inputs": [
        {
          "indexed": true,
          "internalType": "address",
          "name": "previousOwner",
          "type": "address"
        },
        {
          "indexed": true,
          "internalType": "address",
          "name": "newOwner",
          "type": "address"
        }
      ],
      "name": "OwnershipTransferred",
      "type": "event"
    },
    {
      "anonymous": false,
      "inputs": [
        {
          "indexed": true,
          "internalType": "address",
          "name": "from",
          "type": "address"
        },
        {
          "indexed": true,
          "internalType": "address",
          "name": "to",
          "type": "address"
        },
        {
          "indexed": true,
          "internalType": "uint256",
          "name": "tokenId",
          "type": "uint256"
        }
      ],
      "name": "Transfer",
      "type": "event"
    },
    {
      "inputs": [],
      "name": "MAX_TOKEN_AVAIL",
      "outputs": [
        {
          "internalType": "uint256",
          "name": "",
          "type": "uint256"
        }
      ],
      "stateMutability": "view",
      "type": "function",
      "constant": true
    },
    {
      "inputs": [],
      "name": "MAX_TOKEN_TOMINT",
      "outputs": [
        {
          "internalType": "uint256",
          "name": "",
          "type": "uint256"
        }
      ],
      "stateMutability": "view",
      "type": "function",
      "constant": true
    },
    {
      "inputs": [
        {
          "internalType": "address",
          "name": "to",
          "type": "address"
        },
        {
          "internalType": "uint256",
          "name": "tokenId",
          "type": "uint256"
        }
      ],
      "name": "approve",
      "outputs": [],
      "stateMutability": "nonpayable",
      "type": "function"
    },
    {
      "inputs": [
        {
          "internalType": "uint256",
          "name": "",
          "type": "uint256"
        }
      ],
      "name": "availTokenList",
      "outputs": [
        {
          "internalType": "uint256",
          "name": "",
          "type": "uint256"
        }
      ],
      "stateMutability": "view",
      "type": "function",
      "constant": true
    },
    {
      "inputs": [
        {
          "internalType": "address",
          "name": "owner",
          "type": "address"
        }
      ],
      "name": "balanceOf",
      "outputs": [
        {
          "internalType": "uint256",
          "name": "",
          "type": "uint256"
        }
      ],
      "stateMutability": "view",
      "type": "function",
      "constant": true
    },
    {
      "inputs": [
        {
          "internalType": "uint256",
          "name": "tokenId",
          "type": "uint256"
        }
      ],
      "name": "getApproved",
      "outputs": [
        {
          "internalType": "address",
          "name": "",
          "type": "address"
        }
      ],
      "stateMutability": "view",
      "type": "function",
      "constant": true
    },
    {
      "inputs": [
        {
          "internalType": "address",
          "name": "owner",
          "type": "address"
        },
        {
          "internalType": "address",
          "name": "operator",
          "type": "address"
        }
      ],
      "name": "isApprovedForAll",
      "outputs": [
        {
          "internalType": "bool",
          "name": "",
          "type": "bool"
        }
      ],
      "stateMutability": "view",
      "type": "function",
      "constant": true
    },
    {
      "inputs": [],
      "name": "metadataURI",
      "outputs": [
        {
          "internalType": "string",
          "name": "",
          "type": "string"
        }
      ],
      "stateMutability": "view",
      "type": "function",
      "constant": true
    },
    {
      "inputs": [],
      "name": "name",
      "outputs": [
        {
          "internalType": "string",
          "name": "",
          "type": "string"
        }
      ],
      "stateMutability": "view",
      "type": "function",
      "constant": true
    },
    {
      "inputs": [],
      "name": "owner",
      "outputs": [
        {
          "internalType": "address",
          "name": "",
          "type": "address"
        }
      ],
      "stateMutability": "view",
      "type": "function",
      "constant": true
    },
    {
      "inputs": [
        {
          "internalType": "uint256",
          "name": "tokenId",
          "type": "uint256"
        }
      ],
      "name": "ownerOf",
      "outputs": [
        {
          "internalType": "address",
          "name": "",
          "type": "address"
        }
      ],
      "stateMutability": "view",
      "type": "function",
      "constant": true
    },
    {
      "inputs": [],
      "name": "renounceOwnership",
      "outputs": [],
      "stateMutability": "nonpayable",
      "type": "function"
    },
    {
      "inputs": [
        {
          "internalType": "address",
          "name": "from",
          "type": "address"
        },
        {
          "internalType": "address",
          "name": "to",
          "type": "address"
        },
        {
          "internalType": "uint256",
          "name": "tokenId",
          "type": "uint256"
        }
      ],
      "name": "safeTransferFrom",
      "outputs": [],
      "stateMutability": "nonpayable",
      "type": "function"
    },
    {
      "inputs": [
        {
          "internalType": "address",
          "name": "from",
          "type": "address"
        },
        {
          "internalType": "address",
          "name": "to",
          "type": "address"
        },
        {
          "internalType": "uint256",
          "name": "tokenId",
          "type": "uint256"
        },
        {
          "internalType": "bytes",
          "name": "data",
          "type": "bytes"
        }
      ],
      "name": "safeTransferFrom",
      "outputs": [],
      "stateMutability": "nonpayable",
      "type": "function"
    },
    {
      "inputs": [
        {
          "internalType": "address",
          "name": "operator",
          "type": "address"
        },
        {
          "internalType": "bool",
          "name": "approved",
          "type": "bool"
        }
      ],
      "name": "setApprovalForAll",
      "outputs": [],
      "stateMutability": "nonpayable",
      "type": "function"
    },
    {
      "inputs": [
        {
          "internalType": "bytes4",
          "name": "interfaceId",
          "type": "bytes4"
        }
      ],
      "name": "supportsInterface",
      "outputs": [
        {
          "internalType": "bool",
          "name": "",
          "type": "bool"
        }
      ],
      "stateMutability": "view",
      "type": "function",
      "constant": true
    },
    {
      "inputs": [],
      "name": "symbol",
      "outputs": [
        {
          "internalType": "string",
          "name": "",
          "type": "string"
        }
      ],
      "stateMutability": "view",
      "type": "function",
      "constant": true
    },
    {
      "inputs": [],
      "name": "totalMintedTokenCount",
      "outputs": [
        {
          "internalType": "uint256",
          "name": "",
          "type": "uint256"
        }
      ],
      "stateMutability": "view",
      "type": "function",
      "constant": true
    },
    {
      "inputs": [
        {
          "internalType": "address",
          "name": "from",
          "type": "address"
        },
        {
          "internalType": "address",
          "name": "to",
          "type": "address"
        },
        {
          "internalType": "uint256",
          "name": "tokenId",
          "type": "uint256"
        }
      ],
      "name": "transferFrom",
      "outputs": [],
      "stateMutability": "nonpayable",
      "type": "function"
    },
    {
      "inputs": [
        {
          "internalType": "address",
          "name": "newOwner",
          "type": "address"
        }
      ],
      "name": "transferOwnership",
      "outputs": [],
      "stateMutability": "nonpayable",
      "type": "function"
    },
    {
      "inputs": [
        {
          "internalType": "address",
          "name": "voter_addr",
          "type": "address"
        }
      ],
      "name": "mintToken",
      "outputs": [
        {
          "internalType": "uint256",
          "name": "",
          "type": "uint256"
        }
      ],
      "stateMutability": "nonpayable",
      "type": "function"
    },
    {
      "inputs": [
        {
          "internalType": "uint256",
          "name": "_tokenId",
          "type": "uint256"
        }
      ],
      "name": "tokenURI",
      "outputs": [
        {
          "internalType": "string",
          "name": "",
          "type": "string"
        }
      ],
      "stateMutability": "view",
      "type": "function",
      "constant": true
    },
    {
      "inputs": [],
      "name": "getTotalMintedTokenCount",
      "outputs": [
        {
          "internalType": "uint256",
          "name": "",
          "type": "uint256"
        }
      ],
      "stateMutability": "view",
      "type": "function",
      "constant": true
    },
    {
      "inputs": [],
      "name": "getAvailTokenList",
      "outputs": [
        {
          "internalType": "uint256[]",
          "name": "",
          "type": "uint256[]"
        }
      ],
      "stateMutability": "view",
      "type": "function",
      "constant": true
    },
    {
      "inputs": [],
      "name": "getTotalAvailTokenCount",
      "outputs": [
        {
          "internalType": "uint256",
          "name": "",
          "type": "uint256"
        }
      ],
      "stateMutability": "view",
      "type": "function",
      "constant": true
    }
  ],
  "bytecode": "0x60806040523480156200001157600080fd5b5060405162003b8a38038062003b8a833981810160405281019062000037919062000341565b8181620000596200004d620000e260201b60201c565b620000ea60201b60201c565b81600190816200006a919062000611565b5080600290816200007c919062000611565b50505060005b6020811015620000d95760086001826200009d919062000727565b90806001815401808255809150506001900390600052602060002001600090919091909150558080620000d09062000762565b91505062000082565b505050620007af565b600033905090565b60008060009054906101000a900473ffffffffffffffffffffffffffffffffffffffff169050816000806101000a81548173ffffffffffffffffffffffffffffffffffffffff021916908373ffffffffffffffffffffffffffffffffffffffff1602179055508173ffffffffffffffffffffffffffffffffffffffff168173ffffffffffffffffffffffffffffffffffffffff167f8be0079c531659141344cd1fd0a4f28419497f9722a3daafe3b4186f6b6457e060405160405180910390a35050565b6000604051905090565b600080fd5b600080fd5b600080fd5b600080fd5b6000601f19601f8301169050919050565b7f4e487b7100000000000000000000000000000000000000000000000000000000600052604160045260246000fd5b6200021782620001cc565b810181811067ffffffffffffffff82111715620002395762000238620001dd565b5b80604052505050565b60006200024e620001ae565b90506200025c82826200020c565b919050565b600067ffffffffffffffff8211156200027f576200027e620001dd565b5b6200028a82620001cc565b9050602081019050919050565b60005b83811015620002b75780820151818401526020810190506200029a565b60008484015250505050565b6000620002da620002d48462000261565b62000242565b905082815260208101848484011115620002f957620002f8620001c7565b5b6200030684828562000297565b509392505050565b600082601f830112620003265762000325620001c2565b5b815162000338848260208601620002c3565b91505092915050565b600080604083850312156200035b576200035a620001b8565b5b600083015167ffffffffffffffff8111156200037c576200037b620001bd565b5b6200038a858286016200030e565b925050602083015167ffffffffffffffff811115620003ae57620003ad620001bd565b5b620003bc858286016200030e565b9150509250929050565b600081519050919050565b7f4e487b7100000000000000000000000000000000000000000000000000000000600052602260045260246000fd5b600060028204905060018216806200041957607f821691505b6020821081036200042f576200042e620003d1565b5b50919050565b60008190508160005260206000209050919050565b60006020601f8301049050919050565b600082821b905092915050565b600060088302620004997fffffffffffffffffffffffffffffffffffffffffffffffffffffffffffffffff826200045a565b620004a586836200045a565b95508019841693508086168417925050509392505050565b6000819050919050565b6000819050919050565b6000620004f2620004ec620004e684620004bd565b620004c7565b620004bd565b9050919050565b6000819050919050565b6200050e83620004d1565b620005266200051d82620004f9565b84845462000467565b825550505050565b600090565b6200053d6200052e565b6200054a81848462000503565b505050565b5b8181101562000572576200056660008262000533565b60018101905062000550565b5050565b601f821115620005c1576200058b8162000435565b62000596846200044a565b81016020851015620005a6578190505b620005be620005b5856200044a565b8301826200054f565b50505b505050565b600082821c905092915050565b6000620005e660001984600802620005c6565b1980831691505092915050565b6000620006018383620005d3565b9150826002028217905092915050565b6200061c82620003c6565b67ffffffffffffffff811115620006385762000637620001dd565b5b62000644825462000400565b6200065182828562000576565b600060209050601f83116001811462000689576000841562000674578287015190505b620006808582620005f3565b865550620006f0565b601f198416620006998662000435565b60005b82811015620006c3578489015182556001820191506020850194506020810190506200069c565b86831015620006e35784890151620006df601f891682620005d3565b8355505b6001600288020188555050505b505050505050565b7f4e487b7100000000000000000000000000000000000000000000000000000000600052601160045260246000fd5b60006200073482620004bd565b91506200074183620004bd565b92508282019050808211156200075c576200075b620006f8565b5b92915050565b60006200076f82620004bd565b91507fffffffffffffffffffffffffffffffffffffffffffffffffffffffffffffffff8203620007a457620007a3620006f8565b5b600182019050919050565b6133cb80620007bf6000396000f3fe608060405234801561001057600080fd5b50600436106101735760003560e01c806370a08231116100de5780639b6b5d7611610097578063c87b56dd11610071578063c87b56dd1461043c578063d623946d1461046c578063e985e9c51461048a578063f2fde38b146104ba57610173565b80639b6b5d76146103e6578063a22cb46514610404578063b88d4fde1461042057610173565b806370a0823114610322578063715018a6146103525780637fc6da9c1461035c5780638da5cb5b1461038c57806395d89b41146103aa57806396d54e72146103c857610173565b8063095ea7b311610130578063095ea7b31461026257806323b872dd1461027e578063292cb1101461029a57806342842e0e146102b85780634f6a79eb146102d45780636352211e146102f257610173565b806301173a741461017857806301ffc9a7146101a857806303ee438c146101d857806303f80fc0146101f657806306fdde0314610214578063081812fc14610232575b600080fd5b610192600480360381019061018d9190611e83565b6104d6565b60405161019f9190611ec9565b60405180910390f35b6101c260048036038101906101bd9190611f3c565b61058b565b6040516101cf9190611f84565b60405180910390f35b6101e06105ec565b6040516101ed919061202f565b60405180910390f35b6101fe610608565b60405161020b9190611ec9565b60405180910390f35b61021c61060d565b604051610229919061202f565b60405180910390f35b61024c6004803603810190610247919061207d565b61069f565b60405161025991906120b9565b60405180910390f35b61027c600480360381019061027791906120d4565b6106e5565b005b61029860048036038101906102939190612114565b6107fc565b005b6102a261085c565b6040516102af9190611ec9565b60405180910390f35b6102d260048036038101906102cd9190612114565b610869565b005b6102dc610889565b6040516102e99190611ec9565b60405180910390f35b61030c6004803603810190610307919061207d565b61088f565b60405161031991906120b9565b60405180910390f35b61033c60048036038101906103379190611e83565b610915565b6040516103499190611ec9565b60405180910390f35b61035a6109cc565b005b6103766004803603810190610371919061207d565b6109e0565b6040516103839190611ec9565b60405180910390f35b610394610a04565b6040516103a191906120b9565b60405180910390f35b6103b2610a2d565b6040516103bf919061202f565b60405180910390f35b6103d0610abf565b6040516103dd9190611ec9565b60405180910390f35b6103ee610ac9565b6040516103fb9190611ec9565b60405180910390f35b61041e60048036038101906104199190612193565b610ace565b005b61043a60048036038101906104359190612308565b610ae4565b005b6104566004803603810190610451919061207d565b610b46565b604051610463919061202f565b60405180910390f35b610474610baa565b6040516104819190612449565b60405180910390f35b6104a4600480360381019061049f919061246b565b610c02565b6040516104b19190611f84565b60405180910390f35b6104d460048036038101906104cf9190611e83565b610c96565b005b60006020600954111561051e576040517f08c379a00000000000000000000000000000000000000000000000000000000081526004016105159061251d565b60405180910390fd5b6000600954905060006105318483610d19565b905080600a60008481526020019081526020016000208190555060016009600082825461055e919061256c565b9250508190555061056f8483610e0b565b6105818261057c84610b46565b611028565b8192505050919050565b6000634906490660e01b7bffffffffffffffffffffffffffffffffffffffffffffffffffffffff1916827bffffffffffffffffffffffffffffffffffffffffffffffffffffffff191614806105e557506105e4826110cc565b5b9050919050565b6040518060800160405280605081526020016133466050913981565b602081565b60606001805461061c906125cf565b80601f0160208091040260200160405190810160405280929190818152602001828054610648906125cf565b80156106955780601f1061066a57610100808354040283529160200191610695565b820191906000526020600020905b81548152906001019060200180831161067857829003601f168201915b5050505050905090565b60006106aa826111ae565b6005600083815260200190815260200160002060009054906101000a900473ffffffffffffffffffffffffffffffffffffffff169050919050565b60006106f08261088f565b90508073ffffffffffffffffffffffffffffffffffffffff168373ffffffffffffffffffffffffffffffffffffffff1603610760576040517f08c379a000000000000000000000000000000000000000000000000000000000815260040161075790612672565b60405180910390fd5b8073ffffffffffffffffffffffffffffffffffffffff1661077f6111f9565b73ffffffffffffffffffffffffffffffffffffffff1614806107ae57506107ad816107a86111f9565b610c02565b5b6107ed576040517f08c379a00000000000000000000000000000000000000000000000000000000081526004016107e490612704565b60405180910390fd5b6107f78383611201565b505050565b61080d6108076111f9565b826112ba565b61084c576040517f08c379a000000000000000000000000000000000000000000000000000000000815260040161084390612796565b60405180910390fd5b61085783838361134f565b505050565b6000600880549050905090565b61088483838360405180602001604052806000815250610ae4565b505050565b60095481565b60008061089b83611648565b9050600073ffffffffffffffffffffffffffffffffffffffff168173ffffffffffffffffffffffffffffffffffffffff160361090c576040517f08c379a000000000000000000000000000000000000000000000000000000000815260040161090390612802565b60405180910390fd5b80915050919050565b60008073ffffffffffffffffffffffffffffffffffffffff168273ffffffffffffffffffffffffffffffffffffffff1603610985576040517f08c379a000000000000000000000000000000000000000000000000000000000815260040161097c90612894565b60405180910390fd5b600460008373ffffffffffffffffffffffffffffffffffffffff1673ffffffffffffffffffffffffffffffffffffffff168152602001908152602001600020549050919050565b6109d4611685565b6109de6000611703565b565b600881815481106109f057600080fd5b906000526020600020016000915090505481565b60008060009054906101000a900473ffffffffffffffffffffffffffffffffffffffff16905090565b606060028054610a3c906125cf565b80601f0160208091040260200160405190810160405280929190818152602001828054610a68906125cf565b8015610ab55780601f10610a8a57610100808354040283529160200191610ab5565b820191906000526020600020905b815481529060010190602001808311610a9857829003601f168201915b5050505050905090565b6000600954905090565b602081565b610ae0610ad96111f9565b83836117c7565b5050565b610af5610aef6111f9565b836112ba565b610b34576040517f08c379a0000000000000000000000000000000000000000000000000000000008152600401610b2b90612796565b60405180910390fd5b610b4084848484611933565b50505050565b60606000610b66600a60008581526020019081526020016000205461198f565b90506040518060800160405280605081526020016133466050913981604051602001610b93929190612988565b604051602081830303815290604052915050919050565b60606008805480602002602001604051908101604052809291908181526020018280548015610bf857602002820191906000526020600020905b815481526020019060010190808311610be4575b5050505050905090565b6000600660008473ffffffffffffffffffffffffffffffffffffffff1673ffffffffffffffffffffffffffffffffffffffff16815260200190815260200160002060008373ffffffffffffffffffffffffffffffffffffffff1673ffffffffffffffffffffffffffffffffffffffff16815260200190815260200160002060009054906101000a900460ff16905092915050565b610c9e611685565b600073ffffffffffffffffffffffffffffffffffffffff168173ffffffffffffffffffffffffffffffffffffffff1603610d0d576040517f08c379a0000000000000000000000000000000000000000000000000000000008152600401610d0490612a34565b60405180910390fd5b610d1681611703565b50565b600080607b90506000600880549050858584604051602001610d3d93929190612abd565b6040516020818303038152906040528051906020012060001c610d609190612b29565b9050600060088281548110610d7857610d77612b5a565b5b9060005260206000200154905060086001600880549050610d999190612b89565b81548110610daa57610da9612b5a565b5b906000526020600020015460088381548110610dc957610dc8612b5a565b5b90600052602060002001819055506008805480610de957610de8612bbd565b5b6001900381819060005260206000200160009055905580935050505092915050565b600073ffffffffffffffffffffffffffffffffffffffff168273ffffffffffffffffffffffffffffffffffffffff1603610e7a576040517f08c379a0000000000000000000000000000000000000000000000000000000008152600401610e7190612c38565b60405180910390fd5b610e8381611a5d565b15610ec3576040517f08c379a0000000000000000000000000000000000000000000000000000000008152600401610eba90612ca4565b60405180910390fd5b610ed1600083836001611a9e565b610eda81611a5d565b15610f1a576040517f08c379a0000000000000000000000000000000000000000000000000000000008152600401610f1190612ca4565b60405180910390fd5b6001600460008473ffffffffffffffffffffffffffffffffffffffff1673ffffffffffffffffffffffffffffffffffffffff16815260200190815260200160002060008282540192505081905550816003600083815260200190815260200160002060006101000a81548173ffffffffffffffffffffffffffffffffffffffff021916908373ffffffffffffffffffffffffffffffffffffffff160217905550808273ffffffffffffffffffffffffffffffffffffffff16600073ffffffffffffffffffffffffffffffffffffffff167fddf252ad1be2c89b69c2b068fc378daa952ba7f163c4a11628f55a4df523b3ef60405160405180910390a4611024600083836001611aa4565b5050565b61103182611a5d565b611070576040517f08c379a000000000000000000000000000000000000000000000000000000000815260040161106790612d36565b60405180910390fd5b806007600084815260200190815260200160002090816110909190612f02565b507ff8e1a15aba9398e019f0b49df1a4fde98ee17ae345cb5f6b5e2c27f5033e8ce7826040516110c09190611ec9565b60405180910390a15050565b60007f80ac58cd000000000000000000000000000000000000000000000000000000007bffffffffffffffffffffffffffffffffffffffffffffffffffffffff1916827bffffffffffffffffffffffffffffffffffffffffffffffffffffffff1916148061119757507f5b5e139f000000000000000000000000000000000000000000000000000000007bffffffffffffffffffffffffffffffffffffffffffffffffffffffff1916827bffffffffffffffffffffffffffffffffffffffffffffffffffffffff1916145b806111a757506111a682611aaa565b5b9050919050565b6111b781611a5d565b6111f6576040517f08c379a00000000000000000000000000000000000000000000000000000000081526004016111ed90612802565b60405180910390fd5b50565b600033905090565b816005600083815260200190815260200160002060006101000a81548173ffffffffffffffffffffffffffffffffffffffff021916908373ffffffffffffffffffffffffffffffffffffffff160217905550808273ffffffffffffffffffffffffffffffffffffffff166112748361088f565b73ffffffffffffffffffffffffffffffffffffffff167f8c5be1e5ebec7d5bd14f71427d1e84f3dd0314c0f7b2291e5b200ac8c7c3b92560405160405180910390a45050565b6000806112c68361088f565b90508073ffffffffffffffffffffffffffffffffffffffff168473ffffffffffffffffffffffffffffffffffffffff16148061130857506113078185610c02565b5b8061134657508373ffffffffffffffffffffffffffffffffffffffff1661132e8461069f565b73ffffffffffffffffffffffffffffffffffffffff16145b91505092915050565b8273ffffffffffffffffffffffffffffffffffffffff1661136f8261088f565b73ffffffffffffffffffffffffffffffffffffffff16146113c5576040517f08c379a00000000000000000000000000000000000000000000000000000000081526004016113bc90613046565b60405180910390fd5b600073ffffffffffffffffffffffffffffffffffffffff168273ffffffffffffffffffffffffffffffffffffffff1603611434576040517f08c379a000000000000000000000000000000000000000000000000000000000815260040161142b906130d8565b60405180910390fd5b6114418383836001611a9e565b8273ffffffffffffffffffffffffffffffffffffffff166114618261088f565b73ffffffffffffffffffffffffffffffffffffffff16146114b7576040517f08c379a00000000000000000000000000000000000000000000000000000000081526004016114ae90613046565b60405180910390fd5b6005600082815260200190815260200160002060006101000a81549073ffffffffffffffffffffffffffffffffffffffff02191690556001600460008573ffffffffffffffffffffffffffffffffffffffff1673ffffffffffffffffffffffffffffffffffffffff168152602001908152602001600020600082825403925050819055506001600460008473ffffffffffffffffffffffffffffffffffffffff1673ffffffffffffffffffffffffffffffffffffffff16815260200190815260200160002060008282540192505081905550816003600083815260200190815260200160002060006101000a81548173ffffffffffffffffffffffffffffffffffffffff021916908373ffffffffffffffffffffffffffffffffffffffff160217905550808273ffffffffffffffffffffffffffffffffffffffff168473ffffffffffffffffffffffffffffffffffffffff167fddf252ad1be2c89b69c2b068fc378daa952ba7f163c4a11628f55a4df523b3ef60405160405180910390a46116438383836001611aa4565b505050565b60006003600083815260200190815260200160002060009054906101000a900473ffffffffffffffffffffffffffffffffffffffff169050919050565b61168d6111f9565b73ffffffffffffffffffffffffffffffffffffffff166116ab610a04565b73ffffffffffffffffffffffffffffffffffffffff1614611701576040517f08c379a00000000000000000000000000000000000000000000000000000000081526004016116f890613144565b60405180910390fd5b565b60008060009054906101000a900473ffffffffffffffffffffffffffffffffffffffff169050816000806101000a81548173ffffffffffffffffffffffffffffffffffffffff021916908373ffffffffffffffffffffffffffffffffffffffff1602179055508173ffffffffffffffffffffffffffffffffffffffff168173ffffffffffffffffffffffffffffffffffffffff167f8be0079c531659141344cd1fd0a4f28419497f9722a3daafe3b4186f6b6457e060405160405180910390a35050565b8173ffffffffffffffffffffffffffffffffffffffff168373ffffffffffffffffffffffffffffffffffffffff1603611835576040517f08c379a000000000000000000000000000000000000000000000000000000000815260040161182c906131b0565b60405180910390fd5b80600660008573ffffffffffffffffffffffffffffffffffffffff1673ffffffffffffffffffffffffffffffffffffffff16815260200190815260200160002060008473ffffffffffffffffffffffffffffffffffffffff1673ffffffffffffffffffffffffffffffffffffffff16815260200190815260200160002060006101000a81548160ff0219169083151502179055508173ffffffffffffffffffffffffffffffffffffffff168373ffffffffffffffffffffffffffffffffffffffff167f17307eab39ab6107e8899845ad3d59bd9653f200f220920489ca2b5937696c31836040516119269190611f84565b60405180910390a3505050565b61193e84848461134f565b61194a84848484611b14565b611989576040517f08c379a000000000000000000000000000000000000000000000000000000000815260040161198090613242565b60405180910390fd5b50505050565b60606000600161199e84611c9b565b01905060008167ffffffffffffffff8111156119bd576119bc6121dd565b5b6040519080825280601f01601f1916602001820160405280156119ef5781602001600182028036833780820191505090505b509050600082602001820190505b600115611a52578080600190039150507f3031323334353637383961626364656600000000000000000000000000000000600a86061a8153600a8581611a4657611a45612afa565b5b049450600085036119fd575b819350505050919050565b60008073ffffffffffffffffffffffffffffffffffffffff16611a7f83611648565b73ffffffffffffffffffffffffffffffffffffffff1614159050919050565b50505050565b50505050565b60007f01ffc9a7000000000000000000000000000000000000000000000000000000007bffffffffffffffffffffffffffffffffffffffffffffffffffffffff1916827bffffffffffffffffffffffffffffffffffffffffffffffffffffffff1916149050919050565b6000611b358473ffffffffffffffffffffffffffffffffffffffff16611dee565b15611c8e578373ffffffffffffffffffffffffffffffffffffffff1663150b7a02611b5e6111f9565b8786866040518563ffffffff1660e01b8152600401611b8094939291906132b7565b6020604051808303816000875af1925050508015611bbc57506040513d601f19601f82011682018060405250810190611bb99190613318565b60015b611c3e573d8060008114611bec576040519150601f19603f3d011682016040523d82523d6000602084013e611bf1565b606091505b506000815103611c36576040517f08c379a0000000000000000000000000000000000000000000000000000000008152600401611c2d90613242565b60405180910390fd5b805181602001fd5b63150b7a0260e01b7bffffffffffffffffffffffffffffffffffffffffffffffffffffffff1916817bffffffffffffffffffffffffffffffffffffffffffffffffffffffff191614915050611c93565b600190505b949350505050565b600080600090507a184f03e93ff9f4daa797ed6e38ed64bf6a1f0100000000000000008310611cf9577a184f03e93ff9f4daa797ed6e38ed64bf6a1f0100000000000000008381611cef57611cee612afa565b5b0492506040810190505b6d04ee2d6d415b85acef81000000008310611d36576d04ee2d6d415b85acef81000000008381611d2c57611d2b612afa565b5b0492506020810190505b662386f26fc100008310611d6557662386f26fc100008381611d5b57611d5a612afa565b5b0492506010810190505b6305f5e1008310611d8e576305f5e1008381611d8457611d83612afa565b5b0492506008810190505b6127108310611db3576127108381611da957611da8612afa565b5b0492506004810190505b60648310611dd65760648381611dcc57611dcb612afa565b5b0492506002810190505b600a8310611de5576001810190505b80915050919050565b6000808273ffffffffffffffffffffffffffffffffffffffff163b119050919050565b6000604051905090565b600080fd5b600080fd5b600073ffffffffffffffffffffffffffffffffffffffff82169050919050565b6000611e5082611e25565b9050919050565b611e6081611e45565b8114611e6b57600080fd5b50565b600081359050611e7d81611e57565b92915050565b600060208284031215611e9957611e98611e1b565b5b6000611ea784828501611e6e565b91505092915050565b6000819050919050565b611ec381611eb0565b82525050565b6000602082019050611ede6000830184611eba565b92915050565b60007fffffffff0000000000000000000000000000000000000000000000000000000082169050919050565b611f1981611ee4565b8114611f2457600080fd5b50565b600081359050611f3681611f10565b92915050565b600060208284031215611f5257611f51611e1b565b5b6000611f6084828501611f27565b91505092915050565b60008115159050919050565b611f7e81611f69565b82525050565b6000602082019050611f996000830184611f75565b92915050565b600081519050919050565b600082825260208201905092915050565b60005b83811015611fd9578082015181840152602081019050611fbe565b60008484015250505050565b6000601f19601f8301169050919050565b600061200182611f9f565b61200b8185611faa565b935061201b818560208601611fbb565b61202481611fe5565b840191505092915050565b600060208201905081810360008301526120498184611ff6565b905092915050565b61205a81611eb0565b811461206557600080fd5b50565b60008135905061207781612051565b92915050565b60006020828403121561209357612092611e1b565b5b60006120a184828501612068565b91505092915050565b6120b381611e45565b82525050565b60006020820190506120ce60008301846120aa565b92915050565b600080604083850312156120eb576120ea611e1b565b5b60006120f985828601611e6e565b925050602061210a85828601612068565b9150509250929050565b60008060006060848603121561212d5761212c611e1b565b5b600061213b86828701611e6e565b935050602061214c86828701611e6e565b925050604061215d86828701612068565b9150509250925092565b61217081611f69565b811461217b57600080fd5b50565b60008135905061218d81612167565b92915050565b600080604083850312156121aa576121a9611e1b565b5b60006121b885828601611e6e565b92505060206121c98582860161217e565b9150509250929050565b600080fd5b600080fd5b7f4e487b7100000000000000000000000000000000000000000000000000000000600052604160045260246000fd5b61221582611fe5565b810181811067ffffffffffffffff82111715612234576122336121dd565b5b80604052505050565b6000612247611e11565b9050612253828261220c565b919050565b600067ffffffffffffffff821115612273576122726121dd565b5b61227c82611fe5565b9050602081019050919050565b82818337600083830152505050565b60006122ab6122a684612258565b61223d565b9050828152602081018484840111156122c7576122c66121d8565b5b6122d2848285612289565b509392505050565b600082601f8301126122ef576122ee6121d3565b5b81356122ff848260208601612298565b91505092915050565b6000806000806080858703121561232257612321611e1b565b5b600061233087828801611e6e565b945050602061234187828801611e6e565b935050604061235287828801612068565b925050606085013567ffffffffffffffff81111561237357612372611e20565b5b61237f878288016122da565b91505092959194509250565b600081519050919050565b600082825260208201905092915050565b6000819050602082019050919050565b6123c081611eb0565b82525050565b60006123d283836123b7565b60208301905092915050565b6000602082019050919050565b60006123f68261238b565b6124008185612396565b935061240b836123a7565b8060005b8381101561243c57815161242388826123c6565b975061242e836123de565b92505060018101905061240f565b5085935050505092915050565b6000602082019050818103600083015261246381846123eb565b905092915050565b6000806040838503121561248257612481611e1b565b5b600061249085828601611e6e565b92505060206124a185828601611e6e565b9150509250929050565b7f4572726f723a20546f6b656e206973206e6f7420617661696c61626c6520616e60008201527f796d6f72652e0000000000000000000000000000000000000000000000000000602082015250565b6000612507602683611faa565b9150612512826124ab565b604082019050919050565b60006020820190508181036000830152612536816124fa565b9050919050565b7f4e487b7100000000000000000000000000000000000000000000000000000000600052601160045260246000fd5b600061257782611eb0565b915061258283611eb0565b925082820190508082111561259a5761259961253d565b5b92915050565b7f4e487b7100000000000000000000000000000000000000000000000000000000600052602260045260246000fd5b600060028204905060018216806125e757607f821691505b6020821081036125fa576125f96125a0565b5b50919050565b7f4552433732313a20617070726f76616c20746f2063757272656e74206f776e6560008201527f7200000000000000000000000000000000000000000000000000000000000000602082015250565b600061265c602183611faa565b915061266782612600565b604082019050919050565b6000602082019050818103600083015261268b8161264f565b9050919050565b7f4552433732313a20617070726f76652063616c6c6572206973206e6f7420746f60008201527f6b656e206f776e6572206f7220617070726f76656420666f7220616c6c000000602082015250565b60006126ee603d83611faa565b91506126f982612692565b604082019050919050565b6000602082019050818103600083015261271d816126e1565b9050919050565b7f4552433732313a2063616c6c6572206973206e6f7420746f6b656e206f776e6560008201527f72206f7220617070726f76656400000000000000000000000000000000000000602082015250565b6000612780602d83611faa565b915061278b82612724565b604082019050919050565b600060208201905081810360008301526127af81612773565b9050919050565b7f4552433732313a20696e76616c696420746f6b656e2049440000000000000000600082015250565b60006127ec601883611faa565b91506127f7826127b6565b602082019050919050565b6000602082019050818103600083015261281b816127df565b9050919050565b7f4552433732313a2061646472657373207a65726f206973206e6f74206120766160008201527f6c6964206f776e65720000000000000000000000000000000000000000000000602082015250565b600061287e602983611faa565b915061288982612822565b604082019050919050565b600060208201905081810360008301526128ad81612871565b9050919050565b600081905092915050565b60006128ca82611f9f565b6128d481856128b4565b93506128e4818560208601611fbb565b80840191505092915050565b7f2f00000000000000000000000000000000000000000000000000000000000000600082015250565b60006129266001836128b4565b9150612931826128f0565b600182019050919050565b7f2e6a736f6e000000000000000000000000000000000000000000000000000000600082015250565b60006129726005836128b4565b915061297d8261293c565b600582019050919050565b600061299482856128bf565b915061299f82612919565b91506129ab82846128bf565b91506129b682612965565b91508190509392505050565b7f4f776e61626c653a206e6577206f776e657220697320746865207a65726f206160008201527f6464726573730000000000000000000000000000000000000000000000000000602082015250565b6000612a1e602683611faa565b9150612a29826129c2565b604082019050919050565b60006020820190508181036000830152612a4d81612a11565b9050919050565b60008160601b9050919050565b6000612a6c82612a54565b9050919050565b6000612a7e82612a61565b9050919050565b612a96612a9182611e45565b612a73565b82525050565b6000819050919050565b612ab7612ab282611eb0565b612a9c565b82525050565b6000612ac98286612a85565b601482019150612ad98285612aa6565b602082019150612ae98284612aa6565b602082019150819050949350505050565b7f4e487b7100000000000000000000000000000000000000000000000000000000600052601260045260246000fd5b6000612b3482611eb0565b9150612b3f83611eb0565b925082612b4f57612b4e612afa565b5b828206905092915050565b7f4e487b7100000000000000000000000000000000000000000000000000000000600052603260045260246000fd5b6000612b9482611eb0565b9150612b9f83611eb0565b9250828203905081811115612bb757612bb661253d565b5b92915050565b7f4e487b7100000000000000000000000000000000000000000000000000000000600052603160045260246000fd5b7f4552433732313a206d696e7420746f20746865207a65726f2061646472657373600082015250565b6000612c22602083611faa565b9150612c2d82612bec565b602082019050919050565b60006020820190508181036000830152612c5181612c15565b9050919050565b7f4552433732313a20746f6b656e20616c7265616479206d696e74656400000000600082015250565b6000612c8e601c83611faa565b9150612c9982612c58565b602082019050919050565b60006020820190508181036000830152612cbd81612c81565b9050919050565b7f45524337323155524953746f726167653a2055524920736574206f66206e6f6e60008201527f6578697374656e7420746f6b656e000000000000000000000000000000000000602082015250565b6000612d20602e83611faa565b9150612d2b82612cc4565b604082019050919050565b60006020820190508181036000830152612d4f81612d13565b9050919050565b60008190508160005260206000209050919050565b60006020601f8301049050919050565b600082821b905092915050565b600060088302612db87fffffffffffffffffffffffffffffffffffffffffffffffffffffffffffffffff82612d7b565b612dc28683612d7b565b95508019841693508086168417925050509392505050565b6000819050919050565b6000612dff612dfa612df584611eb0565b612dda565b611eb0565b9050919050565b6000819050919050565b612e1983612de4565b612e2d612e2582612e06565b848454612d88565b825550505050565b600090565b612e42612e35565b612e4d818484612e10565b505050565b5b81811015612e7157612e66600082612e3a565b600181019050612e53565b5050565b601f821115612eb657612e8781612d56565b612e9084612d6b565b81016020851015612e9f578190505b612eb3612eab85612d6b565b830182612e52565b50505b505050565b600082821c905092915050565b6000612ed960001984600802612ebb565b1980831691505092915050565b6000612ef28383612ec8565b9150826002028217905092915050565b612f0b82611f9f565b67ffffffffffffffff811115612f2457612f236121dd565b5b612f2e82546125cf565b612f39828285612e75565b600060209050601f831160018114612f6c5760008415612f5a578287015190505b612f648582612ee6565b865550612fcc565b601f198416612f7a86612d56565b60005b82811015612fa257848901518255600182019150602085019450602081019050612f7d565b86831015612fbf5784890151612fbb601f891682612ec8565b8355505b6001600288020188555050505b505050505050565b7f4552433732313a207472616e736665722066726f6d20696e636f72726563742060008201527f6f776e6572000000000000000000000000000000000000000000000000000000602082015250565b6000613030602583611faa565b915061303b82612fd4565b604082019050919050565b6000602082019050818103600083015261305f81613023565b9050919050565b7f4552433732313a207472616e7366657220746f20746865207a65726f2061646460008201527f7265737300000000000000000000000000000000000000000000000000000000602082015250565b60006130c2602483611faa565b91506130cd82613066565b604082019050919050565b600060208201905081810360008301526130f1816130b5565b9050919050565b7f4f776e61626c653a2063616c6c6572206973206e6f7420746865206f776e6572600082015250565b600061312e602083611faa565b9150613139826130f8565b602082019050919050565b6000602082019050818103600083015261315d81613121565b9050919050565b7f4552433732313a20617070726f766520746f2063616c6c657200000000000000600082015250565b600061319a601983611faa565b91506131a582613164565b602082019050919050565b600060208201905081810360008301526131c98161318d565b9050919050565b7f4552433732313a207472616e7366657220746f206e6f6e20455243373231526560008201527f63656976657220696d706c656d656e7465720000000000000000000000000000602082015250565b600061322c603283611faa565b9150613237826131d0565b604082019050919050565b6000602082019050818103600083015261325b8161321f565b9050919050565b600081519050919050565b600082825260208201905092915050565b600061328982613262565b613293818561326d565b93506132a3818560208601611fbb565b6132ac81611fe5565b840191505092915050565b60006080820190506132cc60008301876120aa565b6132d960208301866120aa565b6132e66040830185611eba565b81810360608301526132f8818461327e565b905095945050505050565b60008151905061331281611f10565b92915050565b60006020828403121561332e5761332d611e1b565b5b600061333c84828501613303565b9150509291505056fe68747470733a2f2f676174657761792e70696e6174612e636c6f75642f697066732f516d665431534637667839765a315679384279676952654b4d62716f31594847756946677957725244486a707738a264697066735822122063f49a17d8bf84984487c001b7b0ba966263aff862e5674233f56d251a4b723564736f6c63430008130033",
  "immutableReferences": {},
  "source": "pragma solidity >=0.4.22 <0.9.0;\n\nimport \"@openzeppelin/contracts/token/ERC721/extensions/ERC721URIStorage.sol\";\nimport \"@openzeppelin/contracts/access/Ownable.sol\";\n//import \"../../node_modules/@openzeppelin/contracts/token/ERC721/ERC721.sol\";\n//import \"../../node_modules/@openzeppelin/contracts/access/Ownable.sol\";\n\ncontract NFTToken is Ownable, ERC721URIStorage { \n    uint constant public MAX_TOKEN_AVAIL = 32; //NOTE:  ipfs  json  \n    uint constant public MAX_TOKEN_TOMINT = 32; //   nft , MAX_TOKEN_ONSALE \n    string constant public metadataURI = 'https://gateway.pinata.cloud/ipfs/QmfT1SF7fx9vZ1Vy8BygiReKMbqo1YHGuiFgyWrRDHjpw8';\n\n    uint[] public availTokenList; //    nft index , realId, (1~MAX_TOKEN_ONSALE).json\n    uint public totalMintedTokenCount; //   NFT   (keeps tokenId)\n\n    mapping(uint => uint) tokenIdToRealId;\n\n   \n    constructor(string memory _name, string memory _symbol) ERC721(_name, _symbol){\n        //metadataURI = _metadataURI;\n        for (uint i = 0; i < MAX_TOKEN_AVAIL; i++) {\n            availTokenList.push(i+1);\n        }\n    }\n    // --------- FUNCTIONS ----------\n\n    function mintToken(address voter_addr) public returns (uint) {\n        require(totalMintedTokenCount <= MAX_TOKEN_TOMINT, \"Error: Token is not available anymore.\");\n        uint tokenId = totalMintedTokenCount;\n        uint realId = getRandomToken(voter_addr, tokenId);\n        tokenIdToRealId[tokenId] = realId;\n        totalMintedTokenCount += 1;\n        _mint(voter_addr, tokenId); // mintToken   NFT, Emits a {Transfer(address(0), to, tokenId} event.\n        _setTokenURI(tokenId, tokenURI(tokenId));\n\n        return tokenId;\n    }\n\n    function getRandomToken(address _owner, uint _tokenId) private returns (uint) {\n        uint randSeed = 123;\n        uint randN = uint(keccak256(abi.encodePacked(_owner, _tokenId, randSeed))) % availTokenList.length;\n        uint randomToken = availTokenList[randN];\n        availTokenList[randN] = availTokenList[availTokenList.length - 1];\n        availTokenList.pop();\n\n        return randomToken;\n    }\n\n    // --------- Getter ---------\n\n    // ERC721.sol   override ( ,  x)\n    function tokenURI (uint _tokenId) public override view returns (string memory) {\n        string memory realId = Strings.toString(tokenIdToRealId[_tokenId]);        \n        return string(abi.encodePacked(metadataURI, \"/\", realId,\".json\"));\n    }\n\n    function getTotalMintedTokenCount() public view returns (uint) { \n        return totalMintedTokenCount;\n    }\n\n    function getAvailTokenList() public view returns (uint[] memory) {\n        return availTokenList;\n    }\n\n    function getTotalAvailTokenCount() public view returns (uint) { \n        return availTokenList.length;\n    }\n\n    // --------- Setter ---------\n\n    // onlyOwner :      (Ownable.sol)\n    /*\n    function setMetadataURI(string memory _uri) public onlyOwner{\n        metadataURI = _uri;\n    }\n    */\n    \n}",
  "sourcePath": "/Users/joohee/Desktop/23SS/web3/project_/votechain-dapp/backend/contracts/contracts/NFTToken.sol",
  "compiler": {
    "name": "solc",
    "version": "0.8.19+commit.7dd6d404.Emscripten.clang"
  },
  "schemaVersion": "3.4.13",
  "updatedAt": "2023-05-26T13:47:55.550Z",
  "networkType": "ethereum",
  "devdoc": {
    "events": {
      "Approval(address,address,uint256)": {
        "details": "Emitted when `owner` enables `approved` to manage the `tokenId` token."
      },
      "ApprovalForAll(address,address,bool)": {
        "details": "Emitted when `owner` enables or disables (`approved`) `operator` to manage all of its assets."
      },
      "BatchMetadataUpdate(uint256,uint256)": {
        "details": "This event emits when the metadata of a range of tokens is changed. So that the third-party platforms such as NFT market could timely update the images and related attributes of the NFTs."
      },
      "MetadataUpdate(uint256)": {
        "details": "This event emits when the metadata of a token is changed. So that the third-party platforms such as NFT market could timely update the images and related attributes of the NFT."
      },
      "Transfer(address,address,uint256)": {
        "details": "Emitted when `tokenId` token is transferred from `from` to `to`."
      }
    },
    "kind": "dev",
    "methods": {
      "approve(address,uint256)": {
        "details": "See {IERC721-approve}."
      },
      "balanceOf(address)": {
        "details": "See {IERC721-balanceOf}."
      },
      "getApproved(uint256)": {
        "details": "See {IERC721-getApproved}."
      },
      "isApprovedForAll(address,address)": {
        "details": "See {IERC721-isApprovedForAll}."
      },
      "name()": {
        "details": "See {IERC721Metadata-name}."
      },
      "owner()": {
        "details": "Returns the address of the current owner."
      },
      "ownerOf(uint256)": {
        "details": "See {IERC721-ownerOf}."
      },
      "renounceOwnership()": {
        "details": "Leaves the contract without owner. It will not be possible to call `onlyOwner` functions. Can only be called by the current owner. NOTE: Renouncing ownership will leave the contract without an owner, thereby disabling any functionality that is only available to the owner."
      },
      "safeTransferFrom(address,address,uint256)": {
        "details": "See {IERC721-safeTransferFrom}."
      },
      "safeTransferFrom(address,address,uint256,bytes)": {
        "details": "See {IERC721-safeTransferFrom}."
      },
      "setApprovalForAll(address,bool)": {
        "details": "See {IERC721-setApprovalForAll}."
      },
      "supportsInterface(bytes4)": {
        "details": "See {IERC165-supportsInterface}"
      },
      "symbol()": {
        "details": "See {IERC721Metadata-symbol}."
      },
      "transferFrom(address,address,uint256)": {
        "details": "See {IERC721-transferFrom}."
      },
      "transferOwnership(address)": {
        "details": "Transfers ownership of the contract to a new account (`newOwner`). Can only be called by the current owner."
      }
    },
    "version": 1
  },
  "userdoc": {
    "kind": "user",
    "methods": {},
    "version": 1
  }
}