{
  "_format": "hh-sol-artifact-1",
  "contractName": "Election_step1",
  "sourceName": "contracts/contracts/Election_step1.sol",
  "abi": [
    {
      "inputs": [],
      "stateMutability": "nonpayable",
      "type": "constructor"
    },
    {
      "inputs": [
        {
          "internalType": "string",
          "name": "name",
          "type": "string"
        }
      ],
      "name": "addCandidate",
      "outputs": [],
      "stateMutability": "nonpayable",
      "type": "function"
    },
    {
      "inputs": [
        {
          "internalType": "uint256",
          "name": "",
          "type": "uint256"
        }
      ],
      "name": "candidates",
      "outputs": [
        {
          "internalType": "uint256",
          "name": "id",
          "type": "uint256"
        },
        {
          "internalType": "string",
          "name": "name",
          "type": "string"
        },
        {
          "internalType": "uint256",
          "name": "voteCount",
          "type": "uint256"
        }
      ],
      "stateMutability": "view",
      "type": "function"
    },
    {
      "inputs": [],
      "name": "totalCandidateNum",
      "outputs": [
        {
          "internalType": "uint256",
          "name": "",
          "type": "uint256"
        }
      ],
      "stateMutability": "view",
      "type": "function"
    },
    {
      "inputs": [
        {
          "internalType": "uint256",
          "name": "candidateId",
          "type": "uint256"
        }
      ],
      "name": "vote",
      "outputs": [],
      "stateMutability": "nonpayable",
      "type": "function"
    },
    {
      "inputs": [
        {
          "internalType": "uint256",
          "name": "candidateId",
          "type": "uint256"
        }
      ],
      "name": "voteResultFor",
      "outputs": [
        {
          "internalType": "uint256",
          "name": "",
          "type": "uint256"
        }
      ],
      "stateMutability": "view",
      "type": "function"
    },
    {
      "inputs": [
        {
          "internalType": "address",
          "name": "",
          "type": "address"
        }
      ],
      "name": "voters",
      "outputs": [
        {
          "internalType": "bool",
          "name": "",
          "type": "bool"
        }
      ],
      "stateMutability": "view",
      "type": "function"
    }
  ],
  "bytecode": "0x608060405234801561001057600080fd5b50604080518082019091526005815264476565736560d81b6020820152610036906100b4565b6040805180820190915260078152664e75706a756b6960c81b602082015261005d906100b4565b60408051808201909152600f81526e12d85a5cdd08141c995cda59195b9d608a1b602082015261008c906100b4565b60408051808201909152600381526210d85d60ea1b60208201526100af906100b4565b61021f565b6000805490806100c3836101bb565b90915550506040805160608101825260008054808352602080840186815284860184905291835260018082529490922083518155905180519394919361011193928501929190910190610122565b506040820151816002015590505050565b82805461012e906101e4565b90600052602060002090601f0160209004810192826101505760008555610196565b82601f1061016957805160ff1916838001178555610196565b82800160010185558215610196579182015b8281111561019657825182559160200191906001019061017b565b506101a29291506101a6565b5090565b5b808211156101a257600081556001016101a7565b60006000198214156101dd57634e487b7160e01b600052601160045260246000fd5b5060010190565b600181811c908216806101f857607f821691505b6020821081141561021957634e487b7160e01b600052602260045260246000fd5b50919050565b6105248061022e6000396000f3fe608060405234801561001057600080fd5b50600436106100625760003560e01c80630121b93f146100675780633477ee2e1461007c578063462e91ec146100a7578063a3ec138d146100ba578063d80b863c146100ed578063f780dbb81461011e575b600080fd5b61007a610075366004610315565b610127565b005b61008f61008a366004610315565b610164565b60405161009e9392919061032e565b60405180910390f35b61007a6100b53660046103a9565b61020e565b6100dd6100c836600461045a565b60026020526000908152604090205460ff1681565b604051901515815260200161009e565b6101106100fb366004610315565b60009081526001602052604090206002015490565b60405190815260200161009e565b61011060005481565b336000908152600260208181526040808420805460ff1916600190811790915585855290915282200180549161015c8361048a565b919050555050565b600160208190526000918252604090912080549181018054610185906104b3565b80601f01602080910402602001604051908101604052809291908181526020018280546101b1906104b3565b80156101fe5780601f106101d3576101008083540402835291602001916101fe565b820191906000526020600020905b8154815290600101906020018083116101e157829003601f168201915b5050505050908060020154905083565b60008054908061021d8361048a565b90915550506040805160608101825260008054808352602080840186815284860184905291835260018082529490922083518155905180519394919361026b9392850192919091019061027c565b506040820151816002015590505050565b828054610288906104b3565b90600052602060002090601f0160209004810192826102aa57600085556102f0565b82601f106102c357805160ff19168380011785556102f0565b828001600101855582156102f0579182015b828111156102f05782518255916020019190600101906102d5565b506102fc929150610300565b5090565b5b808211156102fc5760008155600101610301565b60006020828403121561032757600080fd5b5035919050565b83815260006020606081840152845180606085015260005b8181101561036257868101830151858201608001528201610346565b81811115610374576000608083870101525b5060408401949094525050601f91909101601f19160160800192915050565b634e487b7160e01b600052604160045260246000fd5b6000602082840312156103bb57600080fd5b813567ffffffffffffffff808211156103d357600080fd5b818401915084601f8301126103e757600080fd5b8135818111156103f9576103f9610393565b604051601f8201601f19908116603f0116810190838211818310171561042157610421610393565b8160405282815287602084870101111561043a57600080fd5b826020860160208301376000928101602001929092525095945050505050565b60006020828403121561046c57600080fd5b81356001600160a01b038116811461048357600080fd5b9392505050565b60006000198214156104ac57634e487b7160e01b600052601160045260246000fd5b5060010190565b600181811c908216806104c757607f821691505b602082108114156104e857634e487b7160e01b600052602260045260246000fd5b5091905056fea2646970667358221220b26fa68336ea456f70b3bf91dbab9b1ac799c6b33ba563163ece42a978e88aa364736f6c63430008090033",
  "linkReferences": {},
  "deployedLinkReferences": {}
}