{
  "contractName": "admin_contract",
  "abi": [
    {
      "inputs": [],
      "name": "admin",
      "outputs": [
        {
          "internalType": "address",
          "name": "",
          "type": "address"
        }
      ],
      "stateMutability": "view",
      "type": "function"
    },
    {
      "inputs": [
        {
          "internalType": "uint256",
          "name": "",
          "type": "uint256"
        }
      ],
      "name": "contractInfos",
      "outputs": [
        {
          "internalType": "uint256",
          "name": "id",
          "type": "uint256"
        },
        {
          "internalType": "string",
          "name": "name",
          "type": "string"
        },
        {
          "internalType": "string",
          "name": "contactAddress",
          "type": "string"
        },
        {
          "internalType": "bool",
          "name": "isDeleted",
          "type": "bool"
        }
      ],
      "stateMutability": "view",
      "type": "function"
    },
    {
      "inputs": [
        {
          "internalType": "address",
          "name": "",
          "type": "address"
        }
      ],
      "name": "contracts",
      "outputs": [
        {
          "internalType": "bool",
          "name": "",
          "type": "bool"
        }
      ],
      "stateMutability": "view",
      "type": "function"
    },
    {
      "inputs": [],
      "name": "totalContractNum",
      "outputs": [
        {
          "internalType": "uint256",
          "name": "",
          "type": "uint256"
        }
      ],
      "stateMutability": "view",
      "type": "function"
    },
    {
      "inputs": [
        {
          "internalType": "address",
          "name": "addr",
          "type": "address"
        }
      ],
      "name": "getIsAdmin",
      "outputs": [
        {
          "internalType": "bool",
          "name": "",
          "type": "bool"
        }
      ],
      "stateMutability": "view",
      "type": "function"
    },
    {
      "inputs": [
        {
          "internalType": "string",
          "name": "name",
          "type": "string"
        },
        {
          "internalType": "string",
          "name": "addressString",
          "type": "string"
        }
      ],
      "name": "addContract",
      "outputs": [],
      "stateMutability": "nonpayable",
      "type": "function"
    },
    {
      "inputs": [
        {
          "internalType": "uint256",
          "name": "id",
          "type": "uint256"
        }
      ],
      "name": "deleteContract",
      "outputs": [],
      "stateMutability": "nonpayable",
      "type": "function"
    },
    {
      "inputs": [
        {
          "internalType": "uint256",
          "name": "id",
          "type": "uint256"
        }
      ],
      "name": "reopenContract",
      "outputs": [],
      "stateMutability": "nonpayable",
      "type": "function"
    },
    {
      "inputs": [],
      "name": "getAllContracts",
      "outputs": [
        {
          "components": [
            {
              "internalType": "uint256",
              "name": "id",
              "type": "uint256"
            },
            {
              "internalType": "string",
              "name": "name",
              "type": "string"
            },
            {
              "internalType": "string",
              "name": "contactAddress",
              "type": "string"
            },
            {
              "internalType": "bool",
              "name": "isDeleted",
              "type": "bool"
            }
          ],
          "internalType": "struct admin_contract.ContractInfo[]",
          "name": "",
          "type": "tuple[]"
        }
      ],
      "stateMutability": "view",
      "type": "function"
    }
  ],
  "bytecode": "0x608060405234801561001057600080fd5b506110a1806100206000396000f3fe608060405234801561001057600080fd5b50600436106100935760003560e01c80636794f004116100665780636794f0041461010c5780636893d3361461013f57806369dc9ff31461015b578063822b0ceb1461018b578063f851a440146101bb57610093565b806318d3ce96146100985780631a37118a146100b657806349061757146100d45780634e85cbe0146100f0575b600080fd5b6100a06101d9565b6040516100ad9190610905565b60405180910390f35b6100be6103e7565b6040516100cb9190610936565b60405180910390f35b6100ee60048036038101906100e99190610a9a565b6103ed565b005b61010a60048036038101906101059190610b3e565b61049b565b005b61012660048036038101906101219190610b3e565b6104cd565b6040516101369493929190610bc4565b60405180910390f35b61015960048036038101906101549190610b3e565b61061a565b005b61017560048036038101906101709190610c75565b61064b565b6040516101829190610ca2565b60405180910390f35b6101a560048036038101906101a09190610c75565b61066b565b6040516101b29190610ca2565b60405180910390f35b6101c36106c5565b6040516101d09190610ccc565b60405180910390f35b60606000805467ffffffffffffffff8111156101f8576101f761096f565b5b60405190808252806020026020018201604052801561023157816020015b61021e6106eb565b8152602001906001900390816102165790505b50905060005b6000548110156103df576000600160008381526020019081526020016000209050806040518060800160405290816000820154815260200160018201805461027e90610d16565b80601f01602080910402602001604051908101604052809291908181526020018280546102aa90610d16565b80156102f75780601f106102cc576101008083540402835291602001916102f7565b820191906000526020600020905b8154815290600101906020018083116102da57829003601f168201915b5050505050815260200160028201805461031090610d16565b80601f016020809104026020016040519081016040528092919081815260200182805461033c90610d16565b80156103895780601f1061035e57610100808354040283529160200191610389565b820191906000526020600020905b81548152906001019060200180831161036c57829003601f168201915b505050505081526020016003820160009054906101000a900460ff1615151515815250508383815181106103c0576103bf610d47565b5b60200260200101819052505080806103d790610da5565b915050610237565b508091505090565b60005481565b6000808154809291906103ff90610da5565b91905055506040518060800160405280600054815260200183815260200182815260200160001515815250600160008054815260200190815260200160002060008201518160000155602082015181600101908161045d9190610f99565b5060408201518160020190816104739190610f99565b5060608201518160030160006101000a81548160ff0219169083151502179055509050505050565b60006001600083815260200190815260200160002060030160006101000a81548160ff02191690831515021790555050565b60016020528060005260406000206000915090508060000154908060010180546104f690610d16565b80601f016020809104026020016040519081016040528092919081815260200182805461052290610d16565b801561056f5780601f106105445761010080835404028352916020019161056f565b820191906000526020600020905b81548152906001019060200180831161055257829003601f168201915b50505050509080600201805461058490610d16565b80601f01602080910402602001604051908101604052809291908181526020018280546105b090610d16565b80156105fd5780601f106105d2576101008083540402835291602001916105fd565b820191906000526020600020905b8154815290600101906020018083116105e057829003601f168201915b5050505050908060030160009054906101000a900460ff16905084565b600180600083815260200190815260200160002060030160006101000a81548160ff02191690831515021790555050565b60026020528060005260406000206000915054906101000a900460ff1681565b6000600360009054906101000a900473ffffffffffffffffffffffffffffffffffffffff1673ffffffffffffffffffffffffffffffffffffffff168273ffffffffffffffffffffffffffffffffffffffff16149050919050565b600360009054906101000a900473ffffffffffffffffffffffffffffffffffffffff1681565b60405180608001604052806000815260200160608152602001606081526020016000151581525090565b600081519050919050565b600082825260208201905092915050565b6000819050602082019050919050565b6000819050919050565b61075481610741565b82525050565b600081519050919050565b600082825260208201905092915050565b60005b83811015610794578082015181840152602081019050610779565b60008484015250505050565b6000601f19601f8301169050919050565b60006107bc8261075a565b6107c68185610765565b93506107d6818560208601610776565b6107df816107a0565b840191505092915050565b60008115159050919050565b6107ff816107ea565b82525050565b600060808301600083015161081d600086018261074b565b506020830151848203602086015261083582826107b1565b9150506040830151848203604086015261084f82826107b1565b915050606083015161086460608601826107f6565b508091505092915050565b600061087b8383610805565b905092915050565b6000602082019050919050565b600061089b82610715565b6108a58185610720565b9350836020820285016108b785610731565b8060005b858110156108f357848403895281516108d4858261086f565b94506108df83610883565b925060208a019950506001810190506108bb565b50829750879550505050505092915050565b6000602082019050818103600083015261091f8184610890565b905092915050565b61093081610741565b82525050565b600060208201905061094b6000830184610927565b92915050565b6000604051905090565b600080fd5b600080fd5b600080fd5b600080fd5b7f4e487b7100000000000000000000000000000000000000000000000000000000600052604160045260246000fd5b6109a7826107a0565b810181811067ffffffffffffffff821117156109c6576109c561096f565b5b80604052505050565b60006109d9610951565b90506109e5828261099e565b919050565b600067ffffffffffffffff821115610a0557610a0461096f565b5b610a0e826107a0565b9050602081019050919050565b82818337600083830152505050565b6000610a3d610a38846109ea565b6109cf565b905082815260208101848484011115610a5957610a5861096a565b5b610a64848285610a1b565b509392505050565b600082601f830112610a8157610a80610965565b5b8135610a91848260208601610a2a565b91505092915050565b60008060408385031215610ab157610ab061095b565b5b600083013567ffffffffffffffff811115610acf57610ace610960565b5b610adb85828601610a6c565b925050602083013567ffffffffffffffff811115610afc57610afb610960565b5b610b0885828601610a6c565b9150509250929050565b610b1b81610741565b8114610b2657600080fd5b50565b600081359050610b3881610b12565b92915050565b600060208284031215610b5457610b5361095b565b5b6000610b6284828501610b29565b91505092915050565b600082825260208201905092915050565b6000610b878261075a565b610b918185610b6b565b9350610ba1818560208601610776565b610baa816107a0565b840191505092915050565b610bbe816107ea565b82525050565b6000608082019050610bd96000830187610927565b8181036020830152610beb8186610b7c565b90508181036040830152610bff8185610b7c565b9050610c0e6060830184610bb5565b95945050505050565b600073ffffffffffffffffffffffffffffffffffffffff82169050919050565b6000610c4282610c17565b9050919050565b610c5281610c37565b8114610c5d57600080fd5b50565b600081359050610c6f81610c49565b92915050565b600060208284031215610c8b57610c8a61095b565b5b6000610c9984828501610c60565b91505092915050565b6000602082019050610cb76000830184610bb5565b92915050565b610cc681610c37565b82525050565b6000602082019050610ce16000830184610cbd565b92915050565b7f4e487b7100000000000000000000000000000000000000000000000000000000600052602260045260246000fd5b60006002820490506001821680610d2e57607f821691505b602082108103610d4157610d40610ce7565b5b50919050565b7f4e487b7100000000000000000000000000000000000000000000000000000000600052603260045260246000fd5b7f4e487b7100000000000000000000000000000000000000000000000000000000600052601160045260246000fd5b6000610db082610741565b91507fffffffffffffffffffffffffffffffffffffffffffffffffffffffffffffffff8203610de257610de1610d76565b5b600182019050919050565b60008190508160005260206000209050919050565b60006020601f8301049050919050565b600082821b905092915050565b600060088302610e4f7fffffffffffffffffffffffffffffffffffffffffffffffffffffffffffffffff82610e12565b610e598683610e12565b95508019841693508086168417925050509392505050565b6000819050919050565b6000610e96610e91610e8c84610741565b610e71565b610741565b9050919050565b6000819050919050565b610eb083610e7b565b610ec4610ebc82610e9d565b848454610e1f565b825550505050565b600090565b610ed9610ecc565b610ee4818484610ea7565b505050565b5b81811015610f0857610efd600082610ed1565b600181019050610eea565b5050565b601f821115610f4d57610f1e81610ded565b610f2784610e02565b81016020851015610f36578190505b610f4a610f4285610e02565b830182610ee9565b50505b505050565b600082821c905092915050565b6000610f7060001984600802610f52565b1980831691505092915050565b6000610f898383610f5f565b9150826002028217905092915050565b610fa28261075a565b67ffffffffffffffff811115610fbb57610fba61096f565b5b610fc58254610d16565b610fd0828285610f0c565b600060209050601f8311600181146110035760008415610ff1578287015190505b610ffb8582610f7d565b865550611063565b601f19841661101186610ded565b60005b8281101561103957848901518255600182019150602085019450602081019050611014565b868310156110565784890151611052601f891682610f5f565b8355505b6001600288020188555050505b50505050505056fea264697066735822122076412ac020ab059f12bddaf283383993c3f200d4399d4f732c085142f42a3a8364736f6c63430008130033",
  "immutableReferences": {},
  "source": "//pragma solidity ^0.8.9;\npragma solidity >=0.4.22 <0.9.0;\n\ncontract admin_contract {\n    struct ContractInfo {\n        uint id;\n        string name;\n        string contactAddress;\n        bool isDeleted;\n    }\n    uint public totalContractNum;\n    mapping(uint => ContractInfo) public contractInfos;\n    mapping(address => bool) public contracts;\n    address public admin;\n\n    // ----- check etc -----\n    modifier checkAdmin() {\n        require (msg.sender == admin, \"Error: only admin is allowed.\");\n        _;\n    }\n\n    function getIsAdmin(address addr) public view returns(bool) {\n        return addr == admin;\n    }\n\n    function addContract (string memory name, string memory addressString) public {\n        totalContractNum++;\n        contractInfos[totalContractNum] = ContractInfo(totalContractNum, name, addressString, false);\n    }\n\n    function deleteContract (uint id) public {\n        contractInfos[id].isDeleted = true;\n    }\n\n    function reopenContract (uint id) public {\n        contractInfos[id].isDeleted = false;\n    }\n\n    function getAllContracts () public view returns (ContractInfo[] memory){\n        ContractInfo[] memory allContracts = new ContractInfo[](totalContractNum);\n        for (uint i = 0; i < totalContractNum; i++) {\n            ContractInfo storage member = contractInfos[i];\n            allContracts[i] = member;\n        }\n        return allContracts;\n    }\n\n}",
  "sourcePath": "/Users/seajung/Desktop/WEB3/votechain/votechain-dapp/backend/contracts/contracts/admin_contract.sol",
  "compiler": {
    "name": "solc",
    "version": "0.8.19+commit.7dd6d404.Emscripten.clang"
  },
  "schemaVersion": "3.4.13",
  "updatedAt": "2023-05-28T19:42:19.191Z",
  "devdoc": {
    "kind": "dev",
    "methods": {},
    "version": 1
  },
  "userdoc": {
    "kind": "user",
    "methods": {},
    "version": 1
  }
}