{
  "_format": "hh-sol-artifact-1",
  "contractName": "NFTToken",
  "sourceName": "contracts/contracts/NFTToken.sol",
  "abi": [
    {
      "inputs": [
        {
          "internalType": "string",
          "name": "_name",
          "type": "string"
        },
        {
          "internalType": "string",
          "name": "_symbol",
          "type": "string"
        }
      ],
      "stateMutability": "nonpayable",
      "type": "constructor"
    },
    {
      "anonymous": false,
      "inputs": [
        {
          "indexed": true,
          "internalType": "address",
          "name": "owner",
          "type": "address"
        },
        {
          "indexed": true,
          "internalType": "address",
          "name": "approved",
          "type": "address"
        },
        {
          "indexed": true,
          "internalType": "uint256",
          "name": "tokenId",
          "type": "uint256"
        }
      ],
      "name": "Approval",
      "type": "event"
    },
    {
      "anonymous": false,
      "inputs": [
        {
          "indexed": true,
          "internalType": "address",
          "name": "owner",
          "type": "address"
        },
        {
          "indexed": true,
          "internalType": "address",
          "name": "operator",
          "type": "address"
        },
        {
          "indexed": false,
          "internalType": "bool",
          "name": "approved",
          "type": "bool"
        }
      ],
      "name": "ApprovalForAll",
      "type": "event"
    },
    {
      "anonymous": false,
      "inputs": [
        {
          "indexed": true,
          "internalType": "address",
          "name": "previousOwner",
          "type": "address"
        },
        {
          "indexed": true,
          "internalType": "address",
          "name": "newOwner",
          "type": "address"
        }
      ],
      "name": "OwnershipTransferred",
      "type": "event"
    },
    {
      "anonymous": false,
      "inputs": [
        {
          "indexed": true,
          "internalType": "address",
          "name": "from",
          "type": "address"
        },
        {
          "indexed": true,
          "internalType": "address",
          "name": "to",
          "type": "address"
        },
        {
          "indexed": true,
          "internalType": "uint256",
          "name": "tokenId",
          "type": "uint256"
        }
      ],
      "name": "Transfer",
      "type": "event"
    },
    {
      "inputs": [],
      "name": "MAX_TOKEN_AVAIL",
      "outputs": [
        {
          "internalType": "uint256",
          "name": "",
          "type": "uint256"
        }
      ],
      "stateMutability": "view",
      "type": "function"
    },
    {
      "inputs": [],
      "name": "MAX_TOKEN_TOMINT",
      "outputs": [
        {
          "internalType": "uint256",
          "name": "",
          "type": "uint256"
        }
      ],
      "stateMutability": "view",
      "type": "function"
    },
    {
      "inputs": [
        {
          "internalType": "address",
          "name": "to",
          "type": "address"
        },
        {
          "internalType": "uint256",
          "name": "tokenId",
          "type": "uint256"
        }
      ],
      "name": "approve",
      "outputs": [],
      "stateMutability": "nonpayable",
      "type": "function"
    },
    {
      "inputs": [
        {
          "internalType": "uint256",
          "name": "",
          "type": "uint256"
        }
      ],
      "name": "availTokenList",
      "outputs": [
        {
          "internalType": "uint256",
          "name": "",
          "type": "uint256"
        }
      ],
      "stateMutability": "view",
      "type": "function"
    },
    {
      "inputs": [
        {
          "internalType": "address",
          "name": "owner",
          "type": "address"
        }
      ],
      "name": "balanceOf",
      "outputs": [
        {
          "internalType": "uint256",
          "name": "",
          "type": "uint256"
        }
      ],
      "stateMutability": "view",
      "type": "function"
    },
    {
      "inputs": [
        {
          "internalType": "uint256",
          "name": "tokenId",
          "type": "uint256"
        }
      ],
      "name": "getApproved",
      "outputs": [
        {
          "internalType": "address",
          "name": "",
          "type": "address"
        }
      ],
      "stateMutability": "view",
      "type": "function"
    },
    {
      "inputs": [],
      "name": "getAvailTokenList",
      "outputs": [
        {
          "internalType": "uint256[]",
          "name": "",
          "type": "uint256[]"
        }
      ],
      "stateMutability": "view",
      "type": "function"
    },
    {
      "inputs": [],
      "name": "getTotalAvailTokenCount",
      "outputs": [
        {
          "internalType": "uint256",
          "name": "",
          "type": "uint256"
        }
      ],
      "stateMutability": "view",
      "type": "function"
    },
    {
      "inputs": [],
      "name": "getTotalMintedTokenCount",
      "outputs": [
        {
          "internalType": "uint256",
          "name": "",
          "type": "uint256"
        }
      ],
      "stateMutability": "view",
      "type": "function"
    },
    {
      "inputs": [
        {
          "internalType": "address",
          "name": "owner",
          "type": "address"
        },
        {
          "internalType": "address",
          "name": "operator",
          "type": "address"
        }
      ],
      "name": "isApprovedForAll",
      "outputs": [
        {
          "internalType": "bool",
          "name": "",
          "type": "bool"
        }
      ],
      "stateMutability": "view",
      "type": "function"
    },
    {
      "inputs": [],
      "name": "metadataURI",
      "outputs": [
        {
          "internalType": "string",
          "name": "",
          "type": "string"
        }
      ],
      "stateMutability": "view",
      "type": "function"
    },
    {
      "inputs": [
        {
          "internalType": "address",
          "name": "voter_addr",
          "type": "address"
        }
      ],
      "name": "mintToken",
      "outputs": [
        {
          "internalType": "uint256",
          "name": "",
          "type": "uint256"
        }
      ],
      "stateMutability": "nonpayable",
      "type": "function"
    },
    {
      "inputs": [],
      "name": "name",
      "outputs": [
        {
          "internalType": "string",
          "name": "",
          "type": "string"
        }
      ],
      "stateMutability": "view",
      "type": "function"
    },
    {
      "inputs": [],
      "name": "owner",
      "outputs": [
        {
          "internalType": "address",
          "name": "",
          "type": "address"
        }
      ],
      "stateMutability": "view",
      "type": "function"
    },
    {
      "inputs": [
        {
          "internalType": "uint256",
          "name": "tokenId",
          "type": "uint256"
        }
      ],
      "name": "ownerOf",
      "outputs": [
        {
          "internalType": "address",
          "name": "",
          "type": "address"
        }
      ],
      "stateMutability": "view",
      "type": "function"
    },
    {
      "inputs": [],
      "name": "renounceOwnership",
      "outputs": [],
      "stateMutability": "nonpayable",
      "type": "function"
    },
    {
      "inputs": [
        {
          "internalType": "address",
          "name": "from",
          "type": "address"
        },
        {
          "internalType": "address",
          "name": "to",
          "type": "address"
        },
        {
          "internalType": "uint256",
          "name": "tokenId",
          "type": "uint256"
        }
      ],
      "name": "safeTransferFrom",
      "outputs": [],
      "stateMutability": "nonpayable",
      "type": "function"
    },
    {
      "inputs": [
        {
          "internalType": "address",
          "name": "from",
          "type": "address"
        },
        {
          "internalType": "address",
          "name": "to",
          "type": "address"
        },
        {
          "internalType": "uint256",
          "name": "tokenId",
          "type": "uint256"
        },
        {
          "internalType": "bytes",
          "name": "data",
          "type": "bytes"
        }
      ],
      "name": "safeTransferFrom",
      "outputs": [],
      "stateMutability": "nonpayable",
      "type": "function"
    },
    {
      "inputs": [
        {
          "internalType": "address",
          "name": "operator",
          "type": "address"
        },
        {
          "internalType": "bool",
          "name": "approved",
          "type": "bool"
        }
      ],
      "name": "setApprovalForAll",
      "outputs": [],
      "stateMutability": "nonpayable",
      "type": "function"
    },
    {
      "inputs": [
        {
          "internalType": "bytes4",
          "name": "interfaceId",
          "type": "bytes4"
        }
      ],
      "name": "supportsInterface",
      "outputs": [
        {
          "internalType": "bool",
          "name": "",
          "type": "bool"
        }
      ],
      "stateMutability": "view",
      "type": "function"
    },
    {
      "inputs": [],
      "name": "symbol",
      "outputs": [
        {
          "internalType": "string",
          "name": "",
          "type": "string"
        }
      ],
      "stateMutability": "view",
      "type": "function"
    },
    {
      "inputs": [
        {
          "internalType": "uint256",
          "name": "_tokenId",
          "type": "uint256"
        }
      ],
      "name": "tokenURI",
      "outputs": [
        {
          "internalType": "string",
          "name": "",
          "type": "string"
        }
      ],
      "stateMutability": "view",
      "type": "function"
    },
    {
      "inputs": [],
      "name": "totalMintedTokenCount",
      "outputs": [
        {
          "internalType": "uint256",
          "name": "",
          "type": "uint256"
        }
      ],
      "stateMutability": "view",
      "type": "function"
    },
    {
      "inputs": [
        {
          "internalType": "address",
          "name": "from",
          "type": "address"
        },
        {
          "internalType": "address",
          "name": "to",
          "type": "address"
        },
        {
          "internalType": "uint256",
          "name": "tokenId",
          "type": "uint256"
        }
      ],
      "name": "transferFrom",
      "outputs": [],
      "stateMutability": "nonpayable",
      "type": "function"
    },
    {
      "inputs": [
        {
          "internalType": "address",
          "name": "newOwner",
          "type": "address"
        }
      ],
      "name": "transferOwnership",
      "outputs": [],
      "stateMutability": "nonpayable",
      "type": "function"
    }
  ],
  "bytecode": "0x60806040523480156200001157600080fd5b5060405162001d5638038062001d56833981016040819052620000349162000282565b81816200004133620000bf565b8151620000569060019060208501906200010f565b5080516200006c9060029060208401906200010f565b50505060005b6020811015620000b65760086200008b82600162000302565b8154600181018355600092835260209092209091015580620000ad816200031d565b91505062000072565b50505062000378565b600080546001600160a01b038381166001600160a01b0319831681178455604051919092169283917f8be0079c531659141344cd1fd0a4f28419497f9722a3daafe3b4186f6b6457e09190a35050565b8280546200011d906200033b565b90600052602060002090601f0160209004810192826200014157600085556200018c565b82601f106200015c57805160ff19168380011785556200018c565b828001600101855582156200018c579182015b828111156200018c5782518255916020019190600101906200016f565b506200019a9291506200019e565b5090565b5b808211156200019a57600081556001016200019f565b634e487b7160e01b600052604160045260246000fd5b600082601f830112620001dd57600080fd5b81516001600160401b0380821115620001fa57620001fa620001b5565b604051601f8301601f19908116603f01168101908282118183101715620002255762000225620001b5565b816040528381526020925086838588010111156200024257600080fd5b600091505b8382101562000266578582018301518183018401529082019062000247565b83821115620002785760008385830101525b9695505050505050565b600080604083850312156200029657600080fd5b82516001600160401b0380821115620002ae57600080fd5b620002bc86838701620001cb565b93506020850151915080821115620002d357600080fd5b50620002e285828601620001cb565b9150509250929050565b634e487b7160e01b600052601160045260246000fd5b60008219821115620003185762000318620002ec565b500190565b6000600019821415620003345762000334620002ec565b5060010190565b600181811c908216806200035057607f821691505b602082108114156200037257634e487b7160e01b600052602260045260246000fd5b50919050565b6119ce80620003886000396000f3fe608060405234801561001057600080fd5b50600436106101735760003560e01c806370a08231116100de5780639b6b5d7611610097578063c87b56dd11610071578063c87b56dd146102e5578063d623946d146102f8578063e985e9c51461030d578063f2fde38b1461034957600080fd5b80639b6b5d76146101d6578063a22cb465146102bf578063b88d4fde146102d257600080fd5b806370a0823114610270578063715018a6146102835780637fc6da9c1461028b5780638da5cb5b1461029e57806395d89b41146102af57806396d54e72146102b757600080fd5b8063095ea7b311610130578063095ea7b31461021157806323b872dd14610226578063292cb1101461023957806342842e0e146102415780634f6a79eb146102545780636352211e1461025d57600080fd5b806301173a741461017857806301ffc9a71461019e57806303ee438c146101c157806303f80fc0146101d657806306fdde03146101de578063081812fc146101e6575b600080fd5b61018b61018636600461140a565b61035c565b6040519081526020015b60405180910390f35b6101b16101ac366004611442565b610426565b6040519015158152602001610195565b6101c9610478565b60405161019591906114b7565b61018b602081565b6101c9610494565b6101f96101f43660046114ca565b610526565b6040516001600160a01b039091168152602001610195565b61022461021f3660046114e3565b61054d565b005b61022461023436600461150d565b610663565b60085461018b565b61022461024f36600461150d565b610694565b61018b60095481565b6101f961026b3660046114ca565b6106af565b61018b61027e36600461140a565b61070f565b610224610795565b61018b6102993660046114ca565b6107a9565b6000546001600160a01b03166101f9565b6101c96107ca565b60095461018b565b6102246102cd366004611549565b6107d9565b6102246102e036600461159b565b6107e8565b6101c96102f33660046114ca565b610820565b610300610880565b6040516101959190611677565b6101b161031b3660046116bb565b6001600160a01b03918216600090815260066020908152604080832093909416825291909152205460ff1690565b61022461035736600461140a565b6108d7565b6000602060095411156103c55760405162461bcd60e51b815260206004820152602660248201527f4572726f723a20546f6b656e206973206e6f7420617661696c61626c6520616e6044820152653cb6b7b9329760d11b60648201526084015b60405180910390fd5b60095460006103d48483610950565b6000838152600a60205260408120829055600980549293506001929091906103fd908490611704565b9091555061040d90508483610a52565b61041f8261041a84610820565b610bdd565b5092915050565b60006001600160e01b031982166380ac58cd60e01b148061045757506001600160e01b03198216635b5e139f60e01b145b8061047257506301ffc9a760e01b6001600160e01b03198316145b92915050565b6040518060800160405280605081526020016119496050913981565b6060600180546104a39061171c565b80601f01602080910402602001604051908101604052809291908181526020018280546104cf9061171c565b801561051c5780601f106104f15761010080835404028352916020019161051c565b820191906000526020600020905b8154815290600101906020018083116104ff57829003601f168201915b5050505050905090565b600061053182610c77565b506000908152600560205260409020546001600160a01b031690565b6000610558826106af565b9050806001600160a01b0316836001600160a01b031614156105c65760405162461bcd60e51b815260206004820152602160248201527f4552433732313a20617070726f76616c20746f2063757272656e74206f776e656044820152603960f91b60648201526084016103bc565b336001600160a01b03821614806105e257506105e2813361031b565b6106545760405162461bcd60e51b815260206004820152603d60248201527f4552433732313a20617070726f76652063616c6c6572206973206e6f7420746f60448201527f6b656e206f776e6572206f7220617070726f76656420666f7220616c6c00000060648201526084016103bc565b61065e8383610cd6565b505050565b61066d3382610d44565b6106895760405162461bcd60e51b81526004016103bc90611757565b61065e838383610dc3565b61065e838383604051806020016040528060008152506107e8565b6000818152600360205260408120546001600160a01b0316806104725760405162461bcd60e51b8152602060048201526018602482015277115490cdcc8c4e881a5b9d985b1a59081d1bdad95b88125160421b60448201526064016103bc565b60006001600160a01b0382166107795760405162461bcd60e51b815260206004820152602960248201527f4552433732313a2061646472657373207a65726f206973206e6f7420612076616044820152683634b21037bbb732b960b91b60648201526084016103bc565b506001600160a01b031660009081526004602052604090205490565b61079d610f27565b6107a76000610f81565b565b600881815481106107b957600080fd5b600091825260209091200154905081565b6060600280546104a39061171c565b6107e4338383610fd1565b5050565b6107f23383610d44565b61080e5760405162461bcd60e51b81526004016103bc90611757565b61081a848484846110a0565b50505050565b6000818152600a60205260408120546060919061083c906110d3565b905060405180608001604052806050815260200161194960509139816040516020016108699291906117a4565b604051602081830303815290604052915050919050565b6060600880548060200260200160405190810160405280929190818152602001828054801561051c57602002820191906000526020600020905b8154815260200190600101908083116108ba575050505050905090565b6108df610f27565b6001600160a01b0381166109445760405162461bcd60e51b815260206004820152602660248201527f4f776e61626c653a206e6577206f776e657220697320746865207a65726f206160448201526564647265737360d01b60648201526084016103bc565b61094d81610f81565b50565b6008546040516bffffffffffffffffffffffff19606085901b16602082015260348101839052607b6054820181905260009290918391906074016040516020818303038152906040528051906020012060001c6109ad91906117f2565b90506000600882815481106109c4576109c4611814565b90600052602060002001549050600860016008805490506109e5919061182a565b815481106109f5576109f5611814565b906000526020600020015460088381548110610a1357610a13611814565b6000918252602090912001556008805480610a3057610a30611841565b6001900381819060005260206000200160009055905580935050505092915050565b6001600160a01b038216610aa85760405162461bcd60e51b815260206004820181905260248201527f4552433732313a206d696e7420746f20746865207a65726f206164647265737360448201526064016103bc565b6000818152600360205260409020546001600160a01b031615610b0d5760405162461bcd60e51b815260206004820152601c60248201527f4552433732313a20746f6b656e20616c7265616479206d696e7465640000000060448201526064016103bc565b6000818152600360205260409020546001600160a01b031615610b725760405162461bcd60e51b815260206004820152601c60248201527f4552433732313a20746f6b656e20616c7265616479206d696e7465640000000060448201526064016103bc565b6001600160a01b038216600081815260046020908152604080832080546001019055848352600390915280822080546001600160a01b0319168417905551839291907fddf252ad1be2c89b69c2b068fc378daa952ba7f163c4a11628f55a4df523b3ef908290a45050565b6000828152600360205260409020546001600160a01b0316610c585760405162461bcd60e51b815260206004820152602e60248201527f45524337323155524953746f726167653a2055524920736574206f66206e6f6e60448201526d32bc34b9ba32b73a103a37b5b2b760911b60648201526084016103bc565b6000828152600760209081526040909120825161065e92840190611355565b6000818152600360205260409020546001600160a01b031661094d5760405162461bcd60e51b8152602060048201526018602482015277115490cdcc8c4e881a5b9d985b1a59081d1bdad95b88125160421b60448201526064016103bc565b600081815260056020526040902080546001600160a01b0319166001600160a01b0384169081179091558190610d0b826106af565b6001600160a01b03167f8c5be1e5ebec7d5bd14f71427d1e84f3dd0314c0f7b2291e5b200ac8c7c3b92560405160405180910390a45050565b600080610d50836106af565b9050806001600160a01b0316846001600160a01b03161480610d9757506001600160a01b0380821660009081526006602090815260408083209388168352929052205460ff165b80610dbb5750836001600160a01b0316610db084610526565b6001600160a01b0316145b949350505050565b826001600160a01b0316610dd6826106af565b6001600160a01b031614610dfc5760405162461bcd60e51b81526004016103bc90611857565b6001600160a01b038216610e5e5760405162461bcd60e51b8152602060048201526024808201527f4552433732313a207472616e7366657220746f20746865207a65726f206164646044820152637265737360e01b60648201526084016103bc565b826001600160a01b0316610e71826106af565b6001600160a01b031614610e975760405162461bcd60e51b81526004016103bc90611857565b600081815260056020908152604080832080546001600160a01b03199081169091556001600160a01b0387811680865260048552838620805460001901905590871680865283862080546001019055868652600390945282852080549092168417909155905184937fddf252ad1be2c89b69c2b068fc378daa952ba7f163c4a11628f55a4df523b3ef91a4505050565b6000546001600160a01b031633146107a75760405162461bcd60e51b815260206004820181905260248201527f4f776e61626c653a2063616c6c6572206973206e6f7420746865206f776e657260448201526064016103bc565b600080546001600160a01b038381166001600160a01b0319831681178455604051919092169283917f8be0079c531659141344cd1fd0a4f28419497f9722a3daafe3b4186f6b6457e09190a35050565b816001600160a01b0316836001600160a01b031614156110335760405162461bcd60e51b815260206004820152601960248201527f4552433732313a20617070726f766520746f2063616c6c65720000000000000060448201526064016103bc565b6001600160a01b03838116600081815260066020908152604080832094871680845294825291829020805460ff191686151590811790915591519182527f17307eab39ab6107e8899845ad3d59bd9653f200f220920489ca2b5937696c31910160405180910390a3505050565b6110ab848484610dc3565b6110b784848484611170565b61081a5760405162461bcd60e51b81526004016103bc9061189c565b606060006110e08361127d565b600101905060008167ffffffffffffffff81111561110057611100611585565b6040519080825280601f01601f19166020018201604052801561112a576020820181803683370190505b5090508181016020015b600019016f181899199a1a9b1b9c1cb0b131b232b360811b600a86061a8153600a850494508461116357611168565b611134565b509392505050565b60006001600160a01b0384163b1561127257604051630a85bd0160e11b81526001600160a01b0385169063150b7a02906111b49033908990889088906004016118ee565b602060405180830381600087803b1580156111ce57600080fd5b505af19250505080156111fe575060408051601f3d908101601f191682019092526111fb9181019061192b565b60015b611258573d80801561122c576040519150601f19603f3d011682016040523d82523d6000602084013e611231565b606091505b5080516112505760405162461bcd60e51b81526004016103bc9061189c565b805181602001fd5b6001600160e01b031916630a85bd0160e11b149050610dbb565b506001949350505050565b60008072184f03e93ff9f4daa797ed6e38ed64bf6a1f0160401b83106112bc5772184f03e93ff9f4daa797ed6e38ed64bf6a1f0160401b830492506040015b6d04ee2d6d415b85acef810000000083106112e8576d04ee2d6d415b85acef8100000000830492506020015b662386f26fc10000831061130657662386f26fc10000830492506010015b6305f5e100831061131e576305f5e100830492506008015b612710831061133257612710830492506004015b60648310611344576064830492506002015b600a83106104725760010192915050565b8280546113619061171c565b90600052602060002090601f01602090048101928261138357600085556113c9565b82601f1061139c57805160ff19168380011785556113c9565b828001600101855582156113c9579182015b828111156113c95782518255916020019190600101906113ae565b506113d59291506113d9565b5090565b5b808211156113d557600081556001016113da565b80356001600160a01b038116811461140557600080fd5b919050565b60006020828403121561141c57600080fd5b611425826113ee565b9392505050565b6001600160e01b03198116811461094d57600080fd5b60006020828403121561145457600080fd5b81356114258161142c565b60005b8381101561147a578181015183820152602001611462565b8381111561081a5750506000910152565b600081518084526114a381602086016020860161145f565b601f01601f19169290920160200192915050565b602081526000611425602083018461148b565b6000602082840312156114dc57600080fd5b5035919050565b600080604083850312156114f657600080fd5b6114ff836113ee565b946020939093013593505050565b60008060006060848603121561152257600080fd5b61152b846113ee565b9250611539602085016113ee565b9150604084013590509250925092565b6000806040838503121561155c57600080fd5b611565836113ee565b91506020830135801515811461157a57600080fd5b809150509250929050565b634e487b7160e01b600052604160045260246000fd5b600080600080608085870312156115b157600080fd5b6115ba856113ee565b93506115c8602086016113ee565b925060408501359150606085013567ffffffffffffffff808211156115ec57600080fd5b818701915087601f83011261160057600080fd5b81358181111561161257611612611585565b604051601f8201601f19908116603f0116810190838211818310171561163a5761163a611585565b816040528281528a602084870101111561165357600080fd5b82602086016020830137600060208483010152809550505050505092959194509250565b6020808252825182820181905260009190848201906040850190845b818110156116af57835183529284019291840191600101611693565b50909695505050505050565b600080604083850312156116ce57600080fd5b6116d7836113ee565b91506116e5602084016113ee565b90509250929050565b634e487b7160e01b600052601160045260246000fd5b60008219821115611717576117176116ee565b500190565b600181811c9082168061173057607f821691505b6020821081141561175157634e487b7160e01b600052602260045260246000fd5b50919050565b6020808252602d908201527f4552433732313a2063616c6c6572206973206e6f7420746f6b656e206f776e6560408201526c1c881bdc88185c1c1c9bdd9959609a1b606082015260800190565b600083516117b681846020880161145f565b602f60f81b90830190815283516117d481600184016020880161145f565b64173539b7b760d91b60019290910191820152600601949350505050565b60008261180f57634e487b7160e01b600052601260045260246000fd5b500690565b634e487b7160e01b600052603260045260246000fd5b60008282101561183c5761183c6116ee565b500390565b634e487b7160e01b600052603160045260246000fd5b60208082526025908201527f4552433732313a207472616e736665722066726f6d20696e636f72726563742060408201526437bbb732b960d91b606082015260800190565b60208082526032908201527f4552433732313a207472616e7366657220746f206e6f6e20455243373231526560408201527131b2b4bb32b91034b6b83632b6b2b73a32b960711b606082015260800190565b6001600160a01b03858116825284166020820152604081018390526080606082018190526000906119219083018461148b565b9695505050505050565b60006020828403121561193d57600080fd5b81516114258161142c56fe68747470733a2f2f676174657761792e70696e6174612e636c6f75642f697066732f516d665431534637667839765a315679384279676952654b4d62716f31594847756946677957725244486a707738a26469706673582212203b9385361f65fa42edb84ccde8c21cb1f3aa5ef00d38c2f1c57414775a60aab864736f6c63430008090033",
  "linkReferences": {},
  "deployedLinkReferences": {}
}