{
  "_format": "hh-sol-artifact-1",
  "contractName": "NFTToken",
  "sourceName": "contracts/contracts/NFTToken.sol",
  "abi": [
    {
      "inputs": [
        {
          "internalType": "string",
          "name": "_name",
          "type": "string"
        },
        {
          "internalType": "string",
          "name": "_symbol",
          "type": "string"
        }
      ],
      "stateMutability": "nonpayable",
      "type": "constructor"
    },
    {
      "anonymous": false,
      "inputs": [
        {
          "indexed": true,
          "internalType": "address",
          "name": "owner",
          "type": "address"
        },
        {
          "indexed": true,
          "internalType": "address",
          "name": "approved",
          "type": "address"
        },
        {
          "indexed": true,
          "internalType": "uint256",
          "name": "tokenId",
          "type": "uint256"
        }
      ],
      "name": "Approval",
      "type": "event"
    },
    {
      "anonymous": false,
      "inputs": [
        {
          "indexed": true,
          "internalType": "address",
          "name": "owner",
          "type": "address"
        },
        {
          "indexed": true,
          "internalType": "address",
          "name": "operator",
          "type": "address"
        },
        {
          "indexed": false,
          "internalType": "bool",
          "name": "approved",
          "type": "bool"
        }
      ],
      "name": "ApprovalForAll",
      "type": "event"
    },
    {
      "anonymous": false,
      "inputs": [
        {
          "indexed": true,
          "internalType": "address",
          "name": "previousOwner",
          "type": "address"
        },
        {
          "indexed": true,
          "internalType": "address",
          "name": "newOwner",
          "type": "address"
        }
      ],
      "name": "OwnershipTransferred",
      "type": "event"
    },
    {
      "anonymous": false,
      "inputs": [
        {
          "indexed": true,
          "internalType": "address",
          "name": "from",
          "type": "address"
        },
        {
          "indexed": true,
          "internalType": "address",
          "name": "to",
          "type": "address"
        },
        {
          "indexed": true,
          "internalType": "uint256",
          "name": "tokenId",
          "type": "uint256"
        }
      ],
      "name": "Transfer",
      "type": "event"
    },
    {
      "inputs": [],
      "name": "MAX_TOKEN_AVAIL",
      "outputs": [
        {
          "internalType": "uint256",
          "name": "",
          "type": "uint256"
        }
      ],
      "stateMutability": "view",
      "type": "function"
    },
    {
      "inputs": [],
      "name": "MAX_TOKEN_TOMINT",
      "outputs": [
        {
          "internalType": "uint256",
          "name": "",
          "type": "uint256"
        }
      ],
      "stateMutability": "view",
      "type": "function"
    },
    {
      "inputs": [
        {
          "internalType": "address",
          "name": "to",
          "type": "address"
        },
        {
          "internalType": "uint256",
          "name": "tokenId",
          "type": "uint256"
        }
      ],
      "name": "approve",
      "outputs": [],
      "stateMutability": "nonpayable",
      "type": "function"
    },
    {
      "inputs": [
        {
          "internalType": "uint256",
          "name": "",
          "type": "uint256"
        }
      ],
      "name": "availTokenList",
      "outputs": [
        {
          "internalType": "uint256",
          "name": "",
          "type": "uint256"
        }
      ],
      "stateMutability": "view",
      "type": "function"
    },
    {
      "inputs": [
        {
          "internalType": "address",
          "name": "owner",
          "type": "address"
        }
      ],
      "name": "balanceOf",
      "outputs": [
        {
          "internalType": "uint256",
          "name": "",
          "type": "uint256"
        }
      ],
      "stateMutability": "view",
      "type": "function"
    },
    {
      "inputs": [
        {
          "internalType": "uint256",
          "name": "tokenId",
          "type": "uint256"
        }
      ],
      "name": "getApproved",
      "outputs": [
        {
          "internalType": "address",
          "name": "",
          "type": "address"
        }
      ],
      "stateMutability": "view",
      "type": "function"
    },
    {
      "inputs": [],
      "name": "getAvailTokenList",
      "outputs": [
        {
          "internalType": "uint256[]",
          "name": "",
          "type": "uint256[]"
        }
      ],
      "stateMutability": "view",
      "type": "function"
    },
    {
      "inputs": [],
      "name": "getTotalAvailTokencount",
      "outputs": [
        {
          "internalType": "uint256",
          "name": "",
          "type": "uint256"
        }
      ],
      "stateMutability": "view",
      "type": "function"
    },
    {
      "inputs": [],
      "name": "getTotalMintedTokenCount",
      "outputs": [
        {
          "internalType": "uint256",
          "name": "",
          "type": "uint256"
        }
      ],
      "stateMutability": "view",
      "type": "function"
    },
    {
      "inputs": [
        {
          "internalType": "address",
          "name": "owner",
          "type": "address"
        },
        {
          "internalType": "address",
          "name": "operator",
          "type": "address"
        }
      ],
      "name": "isApprovedForAll",
      "outputs": [
        {
          "internalType": "bool",
          "name": "",
          "type": "bool"
        }
      ],
      "stateMutability": "view",
      "type": "function"
    },
    {
      "inputs": [],
      "name": "metadataURI",
      "outputs": [
        {
          "internalType": "string",
          "name": "",
          "type": "string"
        }
      ],
      "stateMutability": "view",
      "type": "function"
    },
    {
      "inputs": [],
      "name": "mintToken",
      "outputs": [],
      "stateMutability": "nonpayable",
      "type": "function"
    },
    {
      "inputs": [],
      "name": "name",
      "outputs": [
        {
          "internalType": "string",
          "name": "",
          "type": "string"
        }
      ],
      "stateMutability": "view",
      "type": "function"
    },
    {
      "inputs": [],
      "name": "owner",
      "outputs": [
        {
          "internalType": "address",
          "name": "",
          "type": "address"
        }
      ],
      "stateMutability": "view",
      "type": "function"
    },
    {
      "inputs": [
        {
          "internalType": "uint256",
          "name": "tokenId",
          "type": "uint256"
        }
      ],
      "name": "ownerOf",
      "outputs": [
        {
          "internalType": "address",
          "name": "",
          "type": "address"
        }
      ],
      "stateMutability": "view",
      "type": "function"
    },
    {
      "inputs": [],
      "name": "renounceOwnership",
      "outputs": [],
      "stateMutability": "nonpayable",
      "type": "function"
    },
    {
      "inputs": [
        {
          "internalType": "address",
          "name": "from",
          "type": "address"
        },
        {
          "internalType": "address",
          "name": "to",
          "type": "address"
        },
        {
          "internalType": "uint256",
          "name": "tokenId",
          "type": "uint256"
        }
      ],
      "name": "safeTransferFrom",
      "outputs": [],
      "stateMutability": "nonpayable",
      "type": "function"
    },
    {
      "inputs": [
        {
          "internalType": "address",
          "name": "from",
          "type": "address"
        },
        {
          "internalType": "address",
          "name": "to",
          "type": "address"
        },
        {
          "internalType": "uint256",
          "name": "tokenId",
          "type": "uint256"
        },
        {
          "internalType": "bytes",
          "name": "data",
          "type": "bytes"
        }
      ],
      "name": "safeTransferFrom",
      "outputs": [],
      "stateMutability": "nonpayable",
      "type": "function"
    },
    {
      "inputs": [
        {
          "internalType": "address",
          "name": "operator",
          "type": "address"
        },
        {
          "internalType": "bool",
          "name": "approved",
          "type": "bool"
        }
      ],
      "name": "setApprovalForAll",
      "outputs": [],
      "stateMutability": "nonpayable",
      "type": "function"
    },
    {
      "inputs": [
        {
          "internalType": "bytes4",
          "name": "interfaceId",
          "type": "bytes4"
        }
      ],
      "name": "supportsInterface",
      "outputs": [
        {
          "internalType": "bool",
          "name": "",
          "type": "bool"
        }
      ],
      "stateMutability": "view",
      "type": "function"
    },
    {
      "inputs": [],
      "name": "symbol",
      "outputs": [
        {
          "internalType": "string",
          "name": "",
          "type": "string"
        }
      ],
      "stateMutability": "view",
      "type": "function"
    },
    {
      "inputs": [
        {
          "internalType": "uint256",
          "name": "_tokenId",
          "type": "uint256"
        }
      ],
      "name": "tokenURI",
      "outputs": [
        {
          "internalType": "string",
          "name": "",
          "type": "string"
        }
      ],
      "stateMutability": "view",
      "type": "function"
    },
    {
      "inputs": [],
      "name": "totalMintedTokenCount",
      "outputs": [
        {
          "internalType": "uint256",
          "name": "",
          "type": "uint256"
        }
      ],
      "stateMutability": "view",
      "type": "function"
    },
    {
      "inputs": [
        {
          "internalType": "address",
          "name": "from",
          "type": "address"
        },
        {
          "internalType": "address",
          "name": "to",
          "type": "address"
        },
        {
          "internalType": "uint256",
          "name": "tokenId",
          "type": "uint256"
        }
      ],
      "name": "transferFrom",
      "outputs": [],
      "stateMutability": "nonpayable",
      "type": "function"
    },
    {
      "inputs": [
        {
          "internalType": "address",
          "name": "newOwner",
          "type": "address"
        }
      ],
      "name": "transferOwnership",
      "outputs": [],
      "stateMutability": "nonpayable",
      "type": "function"
    }
  ],
  "bytecode": "0x60806040523480156200001157600080fd5b5060405162001bf038038062001bf0833981016040819052620000349162000282565b81816200004133620000bf565b8151620000569060019060208501906200010f565b5080516200006c9060029060208401906200010f565b50505060005b6020811015620000b65760076200008b82600162000302565b8154600181018355600092835260209092209091015580620000ad816200031d565b91505062000072565b50505062000378565b600080546001600160a01b038381166001600160a01b0319831681178455604051919092169283917f8be0079c531659141344cd1fd0a4f28419497f9722a3daafe3b4186f6b6457e09190a35050565b8280546200011d906200033b565b90600052602060002090601f0160209004810192826200014157600085556200018c565b82601f106200015c57805160ff19168380011785556200018c565b828001600101855582156200018c579182015b828111156200018c5782518255916020019190600101906200016f565b506200019a9291506200019e565b5090565b5b808211156200019a57600081556001016200019f565b634e487b7160e01b600052604160045260246000fd5b600082601f830112620001dd57600080fd5b81516001600160401b0380821115620001fa57620001fa620001b5565b604051601f8301601f19908116603f01168101908282118183101715620002255762000225620001b5565b816040528381526020925086838588010111156200024257600080fd5b600091505b8382101562000266578582018301518183018401529082019062000247565b83821115620002785760008385830101525b9695505050505050565b600080604083850312156200029657600080fd5b82516001600160401b0380821115620002ae57600080fd5b620002bc86838701620001cb565b93506020850151915080821115620002d357600080fd5b50620002e285828601620001cb565b9150509250929050565b634e487b7160e01b600052601160045260246000fd5b60008219821115620003185762000318620002ec565b500190565b6000600019821415620003345762000334620002ec565b5060010190565b600181811c908216806200035057607f821691505b602082108114156200037257634e487b7160e01b600052602260045260246000fd5b50919050565b61186880620003886000396000f3fe608060405234801561001057600080fd5b50600436106101735760003560e01c806370a08231116100de5780639b6b5d7611610097578063c87b56dd11610071578063c87b56dd146102da578063d623946d146102ed578063e985e9c514610302578063f2fde38b1461033e57600080fd5b80639b6b5d76146101b5578063a22cb465146102b4578063b88d4fde146102c757600080fd5b806370a0823114610265578063715018a6146102785780637fc6da9c146102805780638da5cb5b1461029357806395d89b41146102a457806396d54e72146102ac57600080fd5b806318e70ee31161013057806318e70ee3146102135780632004ffd91461021b57806323b872dd1461022357806342842e0e146102365780634f6a79eb146102495780636352211e1461025257600080fd5b806301ffc9a71461017857806303ee438c146101a057806303f80fc0146101b557806306fdde03146101cb578063081812fc146101d3578063095ea7b3146101fe575b600080fd5b61018b61018636600461129e565b610351565b60405190151581526020015b60405180910390f35b6101a86103a3565b604051610197919061131a565b6101bd602081565b604051908152602001610197565b6101a86103bf565b6101e66101e136600461132d565b610451565b6040516001600160a01b039091168152602001610197565b61021161020c366004611362565b610478565b005b6007546101bd565b610211610593565b61021161023136600461138c565b610641565b61021161024436600461138c565b610672565b6101bd60085481565b6101e661026036600461132d565b61068d565b6101bd6102733660046113c8565b6106ed565b610211610773565b6101bd61028e36600461132d565b610787565b6000546001600160a01b03166101e6565b6101a86107a8565b6008546101bd565b6102116102c23660046113e3565b6107b7565b6102116102d5366004611435565b6107c2565b6101a86102e836600461132d565b6107fa565b6102f561085a565b6040516101979190611511565b61018b610310366004611555565b6001600160a01b03918216600090815260066020908152604080832093909416825291909152205460ff1690565b61021161034c3660046113c8565b6108b1565b60006001600160e01b031982166380ac58cd60e01b148061038257506001600160e01b03198216635b5e139f60e01b145b8061039d57506301ffc9a760e01b6001600160e01b03198316145b92915050565b6040518060800160405280605081526020016117e36050913981565b6060600180546103ce90611588565b80601f01602080910402602001604051908101604052809291908181526020018280546103fa90611588565b80156104475780601f1061041c57610100808354040283529160200191610447565b820191906000526020600020905b81548152906001019060200180831161042a57829003601f168201915b5050505050905090565b600061045c8261092a565b506000908152600560205260409020546001600160a01b031690565b60006104838261068d565b9050806001600160a01b0316836001600160a01b031614156104f65760405162461bcd60e51b815260206004820152602160248201527f4552433732313a20617070726f76616c20746f2063757272656e74206f776e656044820152603960f91b60648201526084015b60405180910390fd5b336001600160a01b038216148061051257506105128133610310565b6105845760405162461bcd60e51b815260206004820152603d60248201527f4552433732313a20617070726f76652063616c6c6572206973206e6f7420746f60448201527f6b656e206f776e6572206f7220617070726f76656420666f7220616c6c00000060648201526084016104ed565b61058e8383610989565b505050565b602060085411156105f55760405162461bcd60e51b815260206004820152602660248201527f4572726f723a20546f6b656e206973206e6f7420617661696c61626c6520616e6044820152653cb6b7b9329760d11b60648201526084016104ed565b600854600061060433836109f7565b60008381526009602052604081208290556008805492935060019290919061062d9084906115d9565b9091555061063d90503383610aec565b5050565b61064b3382610c77565b6106675760405162461bcd60e51b81526004016104ed906115f1565b61058e838383610cf6565b61058e838383604051806020016040528060008152506107c2565b6000818152600360205260408120546001600160a01b03168061039d5760405162461bcd60e51b8152602060048201526018602482015277115490cdcc8c4e881a5b9d985b1a59081d1bdad95b88125160421b60448201526064016104ed565b60006001600160a01b0382166107575760405162461bcd60e51b815260206004820152602960248201527f4552433732313a2061646472657373207a65726f206973206e6f7420612076616044820152683634b21037bbb732b960b91b60648201526084016104ed565b506001600160a01b031660009081526004602052604090205490565b61077b610e5a565b6107856000610eb4565b565b6007818154811061079757600080fd5b600091825260209091200154905081565b6060600280546103ce90611588565b61063d338383610f04565b6107cc3383610c77565b6107e85760405162461bcd60e51b81526004016104ed906115f1565b6107f484848484610fd3565b50505050565b6000818152600960205260408120546060919061081690611006565b90506040518060800160405280605081526020016117e3605091398160405160200161084392919061163e565b604051602081830303815290604052915050919050565b6060600780548060200260200160405190810160405280929190818152602001828054801561044757602002820191906000526020600020905b815481526020019060010190808311610894575050505050905090565b6108b9610e5a565b6001600160a01b03811661091e5760405162461bcd60e51b815260206004820152602660248201527f4f776e61626c653a206e6577206f776e657220697320746865207a65726f206160448201526564647265737360d01b60648201526084016104ed565b61092781610eb4565b50565b6000818152600360205260409020546001600160a01b03166109275760405162461bcd60e51b8152602060048201526018602482015277115490cdcc8c4e881a5b9d985b1a59081d1bdad95b88125160421b60448201526064016104ed565b600081815260056020526040902080546001600160a01b0319166001600160a01b03841690811790915581906109be8261068d565b6001600160a01b03167f8c5be1e5ebec7d5bd14f71427d1e84f3dd0314c0f7b2291e5b200ac8c7c3b92560405160405180910390a45050565b6007546040516bffffffffffffffffffffffff19606085901b1660208201526034810183905260009182916054016040516020818303038152906040528051906020012060001c610a48919061168c565b9050600060078281548110610a5f57610a5f6116ae565b9060005260206000200154905060076001600780549050610a8091906116c4565b81548110610a9057610a906116ae565b906000526020600020015460078381548110610aae57610aae6116ae565b6000918252602090912001556007805480610acb57610acb6116db565b60019003818190600052602060002001600090559055809250505092915050565b6001600160a01b038216610b425760405162461bcd60e51b815260206004820181905260248201527f4552433732313a206d696e7420746f20746865207a65726f206164647265737360448201526064016104ed565b6000818152600360205260409020546001600160a01b031615610ba75760405162461bcd60e51b815260206004820152601c60248201527f4552433732313a20746f6b656e20616c7265616479206d696e7465640000000060448201526064016104ed565b6000818152600360205260409020546001600160a01b031615610c0c5760405162461bcd60e51b815260206004820152601c60248201527f4552433732313a20746f6b656e20616c7265616479206d696e7465640000000060448201526064016104ed565b6001600160a01b038216600081815260046020908152604080832080546001019055848352600390915280822080546001600160a01b0319168417905551839291907fddf252ad1be2c89b69c2b068fc378daa952ba7f163c4a11628f55a4df523b3ef908290a45050565b600080610c838361068d565b9050806001600160a01b0316846001600160a01b03161480610cca57506001600160a01b0380821660009081526006602090815260408083209388168352929052205460ff165b80610cee5750836001600160a01b0316610ce384610451565b6001600160a01b0316145b949350505050565b826001600160a01b0316610d098261068d565b6001600160a01b031614610d2f5760405162461bcd60e51b81526004016104ed906116f1565b6001600160a01b038216610d915760405162461bcd60e51b8152602060048201526024808201527f4552433732313a207472616e7366657220746f20746865207a65726f206164646044820152637265737360e01b60648201526084016104ed565b826001600160a01b0316610da48261068d565b6001600160a01b031614610dca5760405162461bcd60e51b81526004016104ed906116f1565b600081815260056020908152604080832080546001600160a01b03199081169091556001600160a01b0387811680865260048552838620805460001901905590871680865283862080546001019055868652600390945282852080549092168417909155905184937fddf252ad1be2c89b69c2b068fc378daa952ba7f163c4a11628f55a4df523b3ef91a4505050565b6000546001600160a01b031633146107855760405162461bcd60e51b815260206004820181905260248201527f4f776e61626c653a2063616c6c6572206973206e6f7420746865206f776e657260448201526064016104ed565b600080546001600160a01b038381166001600160a01b0319831681178455604051919092169283917f8be0079c531659141344cd1fd0a4f28419497f9722a3daafe3b4186f6b6457e09190a35050565b816001600160a01b0316836001600160a01b03161415610f665760405162461bcd60e51b815260206004820152601960248201527f4552433732313a20617070726f766520746f2063616c6c65720000000000000060448201526064016104ed565b6001600160a01b03838116600081815260066020908152604080832094871680845294825291829020805460ff191686151590811790915591519182527f17307eab39ab6107e8899845ad3d59bd9653f200f220920489ca2b5937696c31910160405180910390a3505050565b610fde848484610cf6565b610fea848484846110a3565b6107f45760405162461bcd60e51b81526004016104ed90611736565b60606000611013836111b0565b600101905060008167ffffffffffffffff8111156110335761103361141f565b6040519080825280601f01601f19166020018201604052801561105d576020820181803683370190505b5090508181016020015b600019016f181899199a1a9b1b9c1cb0b131b232b360811b600a86061a8153600a85049450846110965761109b565b611067565b509392505050565b60006001600160a01b0384163b156111a557604051630a85bd0160e11b81526001600160a01b0385169063150b7a02906110e7903390899088908890600401611788565b602060405180830381600087803b15801561110157600080fd5b505af1925050508015611131575060408051601f3d908101601f1916820190925261112e918101906117c5565b60015b61118b573d80801561115f576040519150601f19603f3d011682016040523d82523d6000602084013e611164565b606091505b5080516111835760405162461bcd60e51b81526004016104ed90611736565b805181602001fd5b6001600160e01b031916630a85bd0160e11b149050610cee565b506001949350505050565b60008072184f03e93ff9f4daa797ed6e38ed64bf6a1f0160401b83106111ef5772184f03e93ff9f4daa797ed6e38ed64bf6a1f0160401b830492506040015b6d04ee2d6d415b85acef8100000000831061121b576d04ee2d6d415b85acef8100000000830492506020015b662386f26fc10000831061123957662386f26fc10000830492506010015b6305f5e1008310611251576305f5e100830492506008015b612710831061126557612710830492506004015b60648310611277576064830492506002015b600a831061039d5760010192915050565b6001600160e01b03198116811461092757600080fd5b6000602082840312156112b057600080fd5b81356112bb81611288565b9392505050565b60005b838110156112dd5781810151838201526020016112c5565b838111156107f45750506000910152565b600081518084526113068160208601602086016112c2565b601f01601f19169290920160200192915050565b6020815260006112bb60208301846112ee565b60006020828403121561133f57600080fd5b5035919050565b80356001600160a01b038116811461135d57600080fd5b919050565b6000806040838503121561137557600080fd5b61137e83611346565b946020939093013593505050565b6000806000606084860312156113a157600080fd5b6113aa84611346565b92506113b860208501611346565b9150604084013590509250925092565b6000602082840312156113da57600080fd5b6112bb82611346565b600080604083850312156113f657600080fd5b6113ff83611346565b91506020830135801515811461141457600080fd5b809150509250929050565b634e487b7160e01b600052604160045260246000fd5b6000806000806080858703121561144b57600080fd5b61145485611346565b935061146260208601611346565b925060408501359150606085013567ffffffffffffffff8082111561148657600080fd5b818701915087601f83011261149a57600080fd5b8135818111156114ac576114ac61141f565b604051601f8201601f19908116603f011681019083821181831017156114d4576114d461141f565b816040528281528a60208487010111156114ed57600080fd5b82602086016020830137600060208483010152809550505050505092959194509250565b6020808252825182820181905260009190848201906040850190845b818110156115495783518352928401929184019160010161152d565b50909695505050505050565b6000806040838503121561156857600080fd5b61157183611346565b915061157f60208401611346565b90509250929050565b600181811c9082168061159c57607f821691505b602082108114156115bd57634e487b7160e01b600052602260045260246000fd5b50919050565b634e487b7160e01b600052601160045260246000fd5b600082198211156115ec576115ec6115c3565b500190565b6020808252602d908201527f4552433732313a2063616c6c6572206973206e6f7420746f6b656e206f776e6560408201526c1c881bdc88185c1c1c9bdd9959609a1b606082015260800190565b600083516116508184602088016112c2565b602f60f81b908301908152835161166e8160018401602088016112c2565b64173539b7b760d91b60019290910191820152600601949350505050565b6000826116a957634e487b7160e01b600052601260045260246000fd5b500690565b634e487b7160e01b600052603260045260246000fd5b6000828210156116d6576116d66115c3565b500390565b634e487b7160e01b600052603160045260246000fd5b60208082526025908201527f4552433732313a207472616e736665722066726f6d20696e636f72726563742060408201526437bbb732b960d91b606082015260800190565b60208082526032908201527f4552433732313a207472616e7366657220746f206e6f6e20455243373231526560408201527131b2b4bb32b91034b6b83632b6b2b73a32b960711b606082015260800190565b6001600160a01b03858116825284166020820152604081018390526080606082018190526000906117bb908301846112ee565b9695505050505050565b6000602082840312156117d757600080fd5b81516112bb8161128856fe68747470733a2f2f676174657761792e70696e6174612e636c6f75642f697066732f516d665431534637667839765a315679384279676952654b4d62716f31594847756946677957725244486a707738a2646970667358221220010fdc7ada03f8916ddbf8e1d91eb76963f06abe6c1e139978ee5411648559ce64736f6c63430008090033",
  "linkReferences": {},
  "deployedLinkReferences": {}
}