{
  "_format": "hh-sol-artifact-1",
  "contractName": "NFTToken",
  "sourceName": "contracts/contracts/NFTToken.sol",
  "abi": [
    {
      "inputs": [
        {
          "internalType": "string",
          "name": "_name",
          "type": "string"
        },
        {
          "internalType": "string",
          "name": "_symbol",
          "type": "string"
        },
        {
          "internalType": "uint256",
          "name": "_randomSeed",
          "type": "uint256"
        },
        {
          "internalType": "uint256",
          "name": "_maxTokenToMint",
          "type": "uint256"
        },
        {
          "internalType": "string",
          "name": "_metadataURI",
          "type": "string"
        }
      ],
      "stateMutability": "nonpayable",
      "type": "constructor"
    },
    {
      "anonymous": false,
      "inputs": [
        {
          "indexed": true,
          "internalType": "address",
          "name": "owner",
          "type": "address"
        },
        {
          "indexed": true,
          "internalType": "address",
          "name": "approved",
          "type": "address"
        },
        {
          "indexed": true,
          "internalType": "uint256",
          "name": "tokenId",
          "type": "uint256"
        }
      ],
      "name": "Approval",
      "type": "event"
    },
    {
      "anonymous": false,
      "inputs": [
        {
          "indexed": true,
          "internalType": "address",
          "name": "owner",
          "type": "address"
        },
        {
          "indexed": true,
          "internalType": "address",
          "name": "operator",
          "type": "address"
        },
        {
          "indexed": false,
          "internalType": "bool",
          "name": "approved",
          "type": "bool"
        }
      ],
      "name": "ApprovalForAll",
      "type": "event"
    },
    {
      "anonymous": false,
      "inputs": [
        {
          "indexed": true,
          "internalType": "address",
          "name": "previousOwner",
          "type": "address"
        },
        {
          "indexed": true,
          "internalType": "address",
          "name": "newOwner",
          "type": "address"
        }
      ],
      "name": "OwnershipTransferred",
      "type": "event"
    },
    {
      "anonymous": false,
      "inputs": [
        {
          "indexed": true,
          "internalType": "address",
          "name": "from",
          "type": "address"
        },
        {
          "indexed": true,
          "internalType": "address",
          "name": "to",
          "type": "address"
        },
        {
          "indexed": true,
          "internalType": "uint256",
          "name": "tokenId",
          "type": "uint256"
        }
      ],
      "name": "Transfer",
      "type": "event"
    },
    {
      "inputs": [
        {
          "internalType": "address",
          "name": "to",
          "type": "address"
        },
        {
          "internalType": "uint256",
          "name": "tokenId",
          "type": "uint256"
        }
      ],
      "name": "approve",
      "outputs": [],
      "stateMutability": "nonpayable",
      "type": "function"
    },
    {
      "inputs": [
        {
          "internalType": "uint256",
          "name": "",
          "type": "uint256"
        }
      ],
      "name": "availTokenList",
      "outputs": [
        {
          "internalType": "uint256",
          "name": "",
          "type": "uint256"
        }
      ],
      "stateMutability": "view",
      "type": "function"
    },
    {
      "inputs": [
        {
          "internalType": "address",
          "name": "owner",
          "type": "address"
        }
      ],
      "name": "balanceOf",
      "outputs": [
        {
          "internalType": "uint256",
          "name": "",
          "type": "uint256"
        }
      ],
      "stateMutability": "view",
      "type": "function"
    },
    {
      "inputs": [
        {
          "internalType": "uint256",
          "name": "tokenId",
          "type": "uint256"
        }
      ],
      "name": "getApproved",
      "outputs": [
        {
          "internalType": "address",
          "name": "",
          "type": "address"
        }
      ],
      "stateMutability": "view",
      "type": "function"
    },
    {
      "inputs": [],
      "name": "getAvailTokenList",
      "outputs": [
        {
          "internalType": "uint256[]",
          "name": "",
          "type": "uint256[]"
        }
      ],
      "stateMutability": "view",
      "type": "function"
    },
    {
      "inputs": [
        {
          "internalType": "uint256",
          "name": "_tokenId",
          "type": "uint256"
        }
      ],
      "name": "getIsMinted",
      "outputs": [
        {
          "internalType": "bool",
          "name": "",
          "type": "bool"
        }
      ],
      "stateMutability": "view",
      "type": "function"
    },
    {
      "inputs": [],
      "name": "getTotalAvailTokenCount",
      "outputs": [
        {
          "internalType": "uint256",
          "name": "",
          "type": "uint256"
        }
      ],
      "stateMutability": "view",
      "type": "function"
    },
    {
      "inputs": [],
      "name": "getTotalMintedTokenCount",
      "outputs": [
        {
          "internalType": "uint256",
          "name": "",
          "type": "uint256"
        }
      ],
      "stateMutability": "view",
      "type": "function"
    },
    {
      "inputs": [
        {
          "internalType": "address",
          "name": "owner",
          "type": "address"
        },
        {
          "internalType": "address",
          "name": "operator",
          "type": "address"
        }
      ],
      "name": "isApprovedForAll",
      "outputs": [
        {
          "internalType": "bool",
          "name": "",
          "type": "bool"
        }
      ],
      "stateMutability": "view",
      "type": "function"
    },
    {
      "inputs": [],
      "name": "maxTokenToMint",
      "outputs": [
        {
          "internalType": "uint256",
          "name": "",
          "type": "uint256"
        }
      ],
      "stateMutability": "view",
      "type": "function"
    },
    {
      "inputs": [],
      "name": "metadataURI",
      "outputs": [
        {
          "internalType": "string",
          "name": "",
          "type": "string"
        }
      ],
      "stateMutability": "view",
      "type": "function"
    },
    {
      "inputs": [
        {
          "internalType": "address",
          "name": "voter_addr",
          "type": "address"
        }
      ],
      "name": "mintToken",
      "outputs": [
        {
          "internalType": "uint256",
          "name": "",
          "type": "uint256"
        }
      ],
      "stateMutability": "nonpayable",
      "type": "function"
    },
    {
      "inputs": [],
      "name": "name",
      "outputs": [
        {
          "internalType": "string",
          "name": "",
          "type": "string"
        }
      ],
      "stateMutability": "view",
      "type": "function"
    },
    {
      "inputs": [],
      "name": "owner",
      "outputs": [
        {
          "internalType": "address",
          "name": "",
          "type": "address"
        }
      ],
      "stateMutability": "view",
      "type": "function"
    },
    {
      "inputs": [
        {
          "internalType": "uint256",
          "name": "tokenId",
          "type": "uint256"
        }
      ],
      "name": "ownerOf",
      "outputs": [
        {
          "internalType": "address",
          "name": "",
          "type": "address"
        }
      ],
      "stateMutability": "view",
      "type": "function"
    },
    {
      "inputs": [],
      "name": "renounceOwnership",
      "outputs": [],
      "stateMutability": "nonpayable",
      "type": "function"
    },
    {
      "inputs": [
        {
          "internalType": "address",
          "name": "from",
          "type": "address"
        },
        {
          "internalType": "address",
          "name": "to",
          "type": "address"
        },
        {
          "internalType": "uint256",
          "name": "tokenId",
          "type": "uint256"
        }
      ],
      "name": "safeTransferFrom",
      "outputs": [],
      "stateMutability": "nonpayable",
      "type": "function"
    },
    {
      "inputs": [
        {
          "internalType": "address",
          "name": "from",
          "type": "address"
        },
        {
          "internalType": "address",
          "name": "to",
          "type": "address"
        },
        {
          "internalType": "uint256",
          "name": "tokenId",
          "type": "uint256"
        },
        {
          "internalType": "bytes",
          "name": "data",
          "type": "bytes"
        }
      ],
      "name": "safeTransferFrom",
      "outputs": [],
      "stateMutability": "nonpayable",
      "type": "function"
    },
    {
      "inputs": [
        {
          "internalType": "address",
          "name": "operator",
          "type": "address"
        },
        {
          "internalType": "bool",
          "name": "approved",
          "type": "bool"
        }
      ],
      "name": "setApprovalForAll",
      "outputs": [],
      "stateMutability": "nonpayable",
      "type": "function"
    },
    {
      "inputs": [
        {
          "internalType": "bytes4",
          "name": "interfaceId",
          "type": "bytes4"
        }
      ],
      "name": "supportsInterface",
      "outputs": [
        {
          "internalType": "bool",
          "name": "",
          "type": "bool"
        }
      ],
      "stateMutability": "view",
      "type": "function"
    },
    {
      "inputs": [],
      "name": "symbol",
      "outputs": [
        {
          "internalType": "string",
          "name": "",
          "type": "string"
        }
      ],
      "stateMutability": "view",
      "type": "function"
    },
    {
      "inputs": [
        {
          "internalType": "uint256",
          "name": "_tokenId",
          "type": "uint256"
        }
      ],
      "name": "tokenURI",
      "outputs": [
        {
          "internalType": "string",
          "name": "",
          "type": "string"
        }
      ],
      "stateMutability": "view",
      "type": "function"
    },
    {
      "inputs": [],
      "name": "totalMintedTokenCount",
      "outputs": [
        {
          "internalType": "uint256",
          "name": "",
          "type": "uint256"
        }
      ],
      "stateMutability": "view",
      "type": "function"
    },
    {
      "inputs": [
        {
          "internalType": "address",
          "name": "from",
          "type": "address"
        },
        {
          "internalType": "address",
          "name": "to",
          "type": "address"
        },
        {
          "internalType": "uint256",
          "name": "tokenId",
          "type": "uint256"
        }
      ],
      "name": "transferFrom",
      "outputs": [],
      "stateMutability": "nonpayable",
      "type": "function"
    },
    {
      "inputs": [
        {
          "internalType": "address",
          "name": "newOwner",
          "type": "address"
        }
      ],
      "name": "transferOwnership",
      "outputs": [],
      "stateMutability": "nonpayable",
      "type": "function"
    }
  ],
  "bytecode": "0x60806040523480156200001157600080fd5b5060405162001e7d38038062001e7d8339810160408190526200003491620002a6565b84846200004133620000e3565b81516200005690600190602085019062000133565b5080516200006c90600290602084019062000133565b505050600a839055600882905580516200008e90600990602084019062000133565b5060005b600854811015620000d757600b620000ac82600162000361565b8154600181018355600092835260209092209091015580620000ce816200037c565b91505062000092565b505050505050620003d7565b600080546001600160a01b038381166001600160a01b0319831681178455604051919092169283917f8be0079c531659141344cd1fd0a4f28419497f9722a3daafe3b4186f6b6457e09190a35050565b82805462000141906200039a565b90600052602060002090601f016020900481019282620001655760008555620001b0565b82601f106200018057805160ff1916838001178555620001b0565b82800160010185558215620001b0579182015b82811115620001b057825182559160200191906001019062000193565b50620001be929150620001c2565b5090565b5b80821115620001be5760008155600101620001c3565b634e487b7160e01b600052604160045260246000fd5b600082601f8301126200020157600080fd5b81516001600160401b03808211156200021e576200021e620001d9565b604051601f8301601f19908116603f01168101908282118183101715620002495762000249620001d9565b816040528381526020925086838588010111156200026657600080fd5b600091505b838210156200028a57858201830151818301840152908201906200026b565b838211156200029c5760008385830101525b9695505050505050565b600080600080600060a08688031215620002bf57600080fd5b85516001600160401b0380821115620002d757600080fd5b620002e589838a01620001ef565b96506020880151915080821115620002fc57600080fd5b6200030a89838a01620001ef565b9550604088015194506060880151935060808801519150808211156200032f57600080fd5b506200033e88828901620001ef565b9150509295509295909350565b634e487b7160e01b600052601160045260246000fd5b600082198211156200037757620003776200034b565b500190565b60006000198214156200039357620003936200034b565b5060010190565b600181811c90821680620003af57607f821691505b60208210811415620003d157634e487b7160e01b600052602260045260246000fd5b50919050565b611a9680620003e76000396000f3fe608060405234801561001057600080fd5b50600436106101735760003560e01c806370a08231116100de578063a22cb46511610097578063d623946d11610071578063d623946d146102f9578063e985e9c51461030e578063f2fde38b1461034a578063fded1e971461035d57600080fd5b8063a22cb465146102c0578063b88d4fde146102d3578063c87b56dd146102e657600080fd5b806370a0823114610271578063715018a6146102845780637fc6da9c1461028c5780638da5cb5b1461029f57806395d89b41146102b057806396d54e72146102b857600080fd5b806323b872dd1161013057806323b872dd1461021e578063292cb1101461023157806342842e0e146102395780634f6a79eb1461024c57806355634511146102555780636352211e1461025e57600080fd5b806301173a741461017857806301ffc9a71461019e57806303ee438c146101c157806306fdde03146101d6578063081812fc146101de578063095ea7b314610209575b600080fd5b61018b610186366004611489565b610372565b6040519081526020015b60405180910390f35b6101b16101ac3660046114c1565b61043d565b6040519015158152602001610195565b6101c961048f565b6040516101959190611536565b6101c961051d565b6101f16101ec366004611549565b6105af565b6040516001600160a01b039091168152602001610195565b61021c610217366004611562565b6105d6565b005b61021c61022c36600461158c565b6106ec565b600b5461018b565b61021c61024736600461158c565b61071d565b61018b600c5481565b61018b60085481565b6101f161026c366004611549565b610738565b61018b61027f366004611489565b610798565b61021c61081e565b61018b61029a366004611549565b610832565b6000546001600160a01b03166101f1565b6101c9610853565b600c5461018b565b61021c6102ce3660046115c8565b610862565b61021c6102e136600461161a565b610871565b6101c96102f4366004611549565b6108a9565b6103016108f2565b60405161019591906116f6565b6101b161031c36600461173a565b6001600160a01b03918216600090815260066020908152604080832093909416825291909152205460ff1690565b61021c610358366004611489565b610949565b6101b161036b366004611549565b600c541190565b6000600854600c5411156103dc5760405162461bcd60e51b815260206004820152602660248201527f4572726f723a20546f6b656e206973206e6f7420617661696c61626c6520616e6044820152653cb6b7b9329760d11b60648201526084015b60405180910390fd5b600c5460006103eb84836109c2565b6000838152600d60205260408120829055600c8054929350600192909190610414908490611783565b9091555061042490508483610ad1565b61043682610431846108a9565b610c5c565b5092915050565b60006001600160e01b031982166380ac58cd60e01b148061046e57506001600160e01b03198216635b5e139f60e01b145b8061048957506301ffc9a760e01b6001600160e01b03198316145b92915050565b6009805461049c9061179b565b80601f01602080910402602001604051908101604052809291908181526020018280546104c89061179b565b80156105155780601f106104ea57610100808354040283529160200191610515565b820191906000526020600020905b8154815290600101906020018083116104f857829003601f168201915b505050505081565b60606001805461052c9061179b565b80601f01602080910402602001604051908101604052809291908181526020018280546105589061179b565b80156105a55780601f1061057a576101008083540402835291602001916105a5565b820191906000526020600020905b81548152906001019060200180831161058857829003601f168201915b5050505050905090565b60006105ba82610cf6565b506000908152600560205260409020546001600160a01b031690565b60006105e182610738565b9050806001600160a01b0316836001600160a01b0316141561064f5760405162461bcd60e51b815260206004820152602160248201527f4552433732313a20617070726f76616c20746f2063757272656e74206f776e656044820152603960f91b60648201526084016103d3565b336001600160a01b038216148061066b575061066b813361031c565b6106dd5760405162461bcd60e51b815260206004820152603d60248201527f4552433732313a20617070726f76652063616c6c6572206973206e6f7420746f60448201527f6b656e206f776e6572206f7220617070726f76656420666f7220616c6c00000060648201526084016103d3565b6106e78383610d55565b505050565b6106f63382610dc3565b6107125760405162461bcd60e51b81526004016103d3906117d6565b6106e7838383610e42565b6106e783838360405180602001604052806000815250610871565b6000818152600360205260408120546001600160a01b0316806104895760405162461bcd60e51b8152602060048201526018602482015277115490cdcc8c4e881a5b9d985b1a59081d1bdad95b88125160421b60448201526064016103d3565b60006001600160a01b0382166108025760405162461bcd60e51b815260206004820152602960248201527f4552433732313a2061646472657373207a65726f206973206e6f7420612076616044820152683634b21037bbb732b960b91b60648201526084016103d3565b506001600160a01b031660009081526004602052604090205490565b610826610fa6565b6108306000611000565b565b600b818154811061084257600080fd5b600091825260209091200154905081565b60606002805461052c9061179b565b61086d338383611050565b5050565b61087b3383610dc3565b6108975760405162461bcd60e51b81526004016103d3906117d6565b6108a38484848461111f565b50505050565b6000818152600d6020526040812054606091906108c590611152565b90506009816040516020016108db92919061183f565b604051602081830303815290604052915050919050565b6060600b8054806020026020016040519081016040528092919081815260200182805480156105a557602002820191906000526020600020905b81548152602001906001019080831161092c575050505050905090565b610951610fa6565b6001600160a01b0381166109b65760405162461bcd60e51b815260206004820152602660248201527f4f776e61626c653a206e6577206f776e657220697320746865207a65726f206160448201526564647265737360d01b60648201526084016103d3565b6109bf81611000565b50565b600080600b805490508484600c54600a546109dd9190611783565b60405160609390931b6bffffffffffffffffffffffff19166020840152603483019190915260548201526074016040516020818303038152906040528051906020012060001c610a2d919061190a565b90506000600b8281548110610a4457610a4461192c565b90600052602060002001549050600b6001600b80549050610a659190611942565b81548110610a7557610a7561192c565b9060005260206000200154600b8381548110610a9357610a9361192c565b600091825260209091200155600b805480610ab057610ab0611959565b60019003818190600052602060002001600090559055809250505092915050565b6001600160a01b038216610b275760405162461bcd60e51b815260206004820181905260248201527f4552433732313a206d696e7420746f20746865207a65726f206164647265737360448201526064016103d3565b6000818152600360205260409020546001600160a01b031615610b8c5760405162461bcd60e51b815260206004820152601c60248201527f4552433732313a20746f6b656e20616c7265616479206d696e7465640000000060448201526064016103d3565b6000818152600360205260409020546001600160a01b031615610bf15760405162461bcd60e51b815260206004820152601c60248201527f4552433732313a20746f6b656e20616c7265616479206d696e7465640000000060448201526064016103d3565b6001600160a01b038216600081815260046020908152604080832080546001019055848352600390915280822080546001600160a01b0319168417905551839291907fddf252ad1be2c89b69c2b068fc378daa952ba7f163c4a11628f55a4df523b3ef908290a45050565b6000828152600360205260409020546001600160a01b0316610cd75760405162461bcd60e51b815260206004820152602e60248201527f45524337323155524953746f726167653a2055524920736574206f66206e6f6e60448201526d32bc34b9ba32b73a103a37b5b2b760911b60648201526084016103d3565b600082815260076020908152604090912082516106e7928401906113d4565b6000818152600360205260409020546001600160a01b03166109bf5760405162461bcd60e51b8152602060048201526018602482015277115490cdcc8c4e881a5b9d985b1a59081d1bdad95b88125160421b60448201526064016103d3565b600081815260056020526040902080546001600160a01b0319166001600160a01b0384169081179091558190610d8a82610738565b6001600160a01b03167f8c5be1e5ebec7d5bd14f71427d1e84f3dd0314c0f7b2291e5b200ac8c7c3b92560405160405180910390a45050565b600080610dcf83610738565b9050806001600160a01b0316846001600160a01b03161480610e1657506001600160a01b0380821660009081526006602090815260408083209388168352929052205460ff165b80610e3a5750836001600160a01b0316610e2f846105af565b6001600160a01b0316145b949350505050565b826001600160a01b0316610e5582610738565b6001600160a01b031614610e7b5760405162461bcd60e51b81526004016103d39061196f565b6001600160a01b038216610edd5760405162461bcd60e51b8152602060048201526024808201527f4552433732313a207472616e7366657220746f20746865207a65726f206164646044820152637265737360e01b60648201526084016103d3565b826001600160a01b0316610ef082610738565b6001600160a01b031614610f165760405162461bcd60e51b81526004016103d39061196f565b600081815260056020908152604080832080546001600160a01b03199081169091556001600160a01b0387811680865260048552838620805460001901905590871680865283862080546001019055868652600390945282852080549092168417909155905184937fddf252ad1be2c89b69c2b068fc378daa952ba7f163c4a11628f55a4df523b3ef91a4505050565b6000546001600160a01b031633146108305760405162461bcd60e51b815260206004820181905260248201527f4f776e61626c653a2063616c6c6572206973206e6f7420746865206f776e657260448201526064016103d3565b600080546001600160a01b038381166001600160a01b0319831681178455604051919092169283917f8be0079c531659141344cd1fd0a4f28419497f9722a3daafe3b4186f6b6457e09190a35050565b816001600160a01b0316836001600160a01b031614156110b25760405162461bcd60e51b815260206004820152601960248201527f4552433732313a20617070726f766520746f2063616c6c65720000000000000060448201526064016103d3565b6001600160a01b03838116600081815260066020908152604080832094871680845294825291829020805460ff191686151590811790915591519182527f17307eab39ab6107e8899845ad3d59bd9653f200f220920489ca2b5937696c31910160405180910390a3505050565b61112a848484610e42565b611136848484846111ef565b6108a35760405162461bcd60e51b81526004016103d3906119b4565b6060600061115f836112fc565b600101905060008167ffffffffffffffff81111561117f5761117f611604565b6040519080825280601f01601f1916602001820160405280156111a9576020820181803683370190505b5090508181016020015b600019016f181899199a1a9b1b9c1cb0b131b232b360811b600a86061a8153600a85049450846111e2576111e7565b6111b3565b509392505050565b60006001600160a01b0384163b156112f157604051630a85bd0160e11b81526001600160a01b0385169063150b7a0290611233903390899088908890600401611a06565b602060405180830381600087803b15801561124d57600080fd5b505af192505050801561127d575060408051601f3d908101601f1916820190925261127a91810190611a43565b60015b6112d7573d8080156112ab576040519150601f19603f3d011682016040523d82523d6000602084013e6112b0565b606091505b5080516112cf5760405162461bcd60e51b81526004016103d3906119b4565b805181602001fd5b6001600160e01b031916630a85bd0160e11b149050610e3a565b506001949350505050565b60008072184f03e93ff9f4daa797ed6e38ed64bf6a1f0160401b831061133b5772184f03e93ff9f4daa797ed6e38ed64bf6a1f0160401b830492506040015b6d04ee2d6d415b85acef81000000008310611367576d04ee2d6d415b85acef8100000000830492506020015b662386f26fc10000831061138557662386f26fc10000830492506010015b6305f5e100831061139d576305f5e100830492506008015b61271083106113b157612710830492506004015b606483106113c3576064830492506002015b600a83106104895760010192915050565b8280546113e09061179b565b90600052602060002090601f0160209004810192826114025760008555611448565b82601f1061141b57805160ff1916838001178555611448565b82800160010185558215611448579182015b8281111561144857825182559160200191906001019061142d565b50611454929150611458565b5090565b5b808211156114545760008155600101611459565b80356001600160a01b038116811461148457600080fd5b919050565b60006020828403121561149b57600080fd5b6114a48261146d565b9392505050565b6001600160e01b0319811681146109bf57600080fd5b6000602082840312156114d357600080fd5b81356114a4816114ab565b60005b838110156114f95781810151838201526020016114e1565b838111156108a35750506000910152565b600081518084526115228160208601602086016114de565b601f01601f19169290920160200192915050565b6020815260006114a4602083018461150a565b60006020828403121561155b57600080fd5b5035919050565b6000806040838503121561157557600080fd5b61157e8361146d565b946020939093013593505050565b6000806000606084860312156115a157600080fd5b6115aa8461146d565b92506115b86020850161146d565b9150604084013590509250925092565b600080604083850312156115db57600080fd5b6115e48361146d565b9150602083013580151581146115f957600080fd5b809150509250929050565b634e487b7160e01b600052604160045260246000fd5b6000806000806080858703121561163057600080fd5b6116398561146d565b93506116476020860161146d565b925060408501359150606085013567ffffffffffffffff8082111561166b57600080fd5b818701915087601f83011261167f57600080fd5b81358181111561169157611691611604565b604051601f8201601f19908116603f011681019083821181831017156116b9576116b9611604565b816040528281528a60208487010111156116d257600080fd5b82602086016020830137600060208483010152809550505050505092959194509250565b6020808252825182820181905260009190848201906040850190845b8181101561172e57835183529284019291840191600101611712565b50909695505050505050565b6000806040838503121561174d57600080fd5b6117568361146d565b91506117646020840161146d565b90509250929050565b634e487b7160e01b600052601160045260246000fd5b600082198211156117965761179661176d565b500190565b600181811c908216806117af57607f821691505b602082108114156117d057634e487b7160e01b600052602260045260246000fd5b50919050565b6020808252602d908201527f4552433732313a2063616c6c6572206973206e6f7420746f6b656e206f776e6560408201526c1c881bdc88185c1c1c9bdd9959609a1b606082015260800190565b600081516118358185602086016114de565b9290920192915050565b600080845481600182811c91508083168061185b57607f831692505b602080841082141561187b57634e487b7160e01b86526022600452602486fd5b81801561188f57600181146118a0576118cd565b60ff198616895284890196506118cd565b60008b81526020902060005b868110156118c55781548b8201529085019083016118ac565b505084890196505b5050505050506119016118f06118ea83602f60f81b815260010190565b86611823565b64173539b7b760d91b815260050190565b95945050505050565b60008261192757634e487b7160e01b600052601260045260246000fd5b500690565b634e487b7160e01b600052603260045260246000fd5b6000828210156119545761195461176d565b500390565b634e487b7160e01b600052603160045260246000fd5b60208082526025908201527f4552433732313a207472616e736665722066726f6d20696e636f72726563742060408201526437bbb732b960d91b606082015260800190565b60208082526032908201527f4552433732313a207472616e7366657220746f206e6f6e20455243373231526560408201527131b2b4bb32b91034b6b83632b6b2b73a32b960711b606082015260800190565b6001600160a01b0385811682528416602082015260408101839052608060608201819052600090611a399083018461150a565b9695505050505050565b600060208284031215611a5557600080fd5b81516114a4816114ab56fea2646970667358221220427c01c8fae3919268cfd4b3daf9f706d9eac544910ed7b7f5e548e802cf7ae564736f6c63430008090033",
  "linkReferences": {},
  "deployedLinkReferences": {}
}