{
  "_format": "hh-sol-artifact-1",
  "contractName": "Election_step2",
  "sourceName": "contracts/contracts/Election_step2.sol",
  "abi": [
    {
      "inputs": [
        {
          "internalType": "address",
          "name": "_NFTTokenCA",
          "type": "address"
        }
      ],
      "stateMutability": "nonpayable",
      "type": "constructor"
    },
    {
      "anonymous": false,
      "inputs": [
        {
          "indexed": false,
          "internalType": "uint256",
          "name": "id",
          "type": "uint256"
        }
      ],
      "name": "candRegisteredEvent",
      "type": "event"
    },
    {
      "anonymous": false,
      "inputs": [
        {
          "indexed": false,
          "internalType": "enum Election_step2.ElectionStatus",
          "name": "prev",
          "type": "uint8"
        },
        {
          "indexed": false,
          "internalType": "enum Election_step2.ElectionStatus",
          "name": "end",
          "type": "uint8"
        }
      ],
      "name": "statusChangedEvent",
      "type": "event"
    },
    {
      "anonymous": false,
      "inputs": [],
      "name": "voteDoneEvent",
      "type": "event"
    },
    {
      "inputs": [],
      "name": "NFTTokenCA",
      "outputs": [
        {
          "internalType": "address",
          "name": "",
          "type": "address"
        }
      ],
      "stateMutability": "view",
      "type": "function"
    },
    {
      "inputs": [],
      "name": "VoteNFT",
      "outputs": [
        {
          "internalType": "contract NFTToken",
          "name": "",
          "type": "address"
        }
      ],
      "stateMutability": "view",
      "type": "function"
    },
    {
      "inputs": [],
      "name": "admin",
      "outputs": [
        {
          "internalType": "address",
          "name": "",
          "type": "address"
        }
      ],
      "stateMutability": "view",
      "type": "function"
    },
    {
      "inputs": [
        {
          "internalType": "uint256",
          "name": "",
          "type": "uint256"
        }
      ],
      "name": "candidates",
      "outputs": [
        {
          "internalType": "uint256",
          "name": "id",
          "type": "uint256"
        },
        {
          "internalType": "string",
          "name": "name",
          "type": "string"
        },
        {
          "internalType": "uint256",
          "name": "voteCount",
          "type": "uint256"
        }
      ],
      "stateMutability": "view",
      "type": "function"
    },
    {
      "inputs": [],
      "name": "electionStatus",
      "outputs": [
        {
          "internalType": "enum Election_step2.ElectionStatus",
          "name": "",
          "type": "uint8"
        }
      ],
      "stateMutability": "view",
      "type": "function"
    },
    {
      "inputs": [],
      "name": "endVoteSession",
      "outputs": [],
      "stateMutability": "nonpayable",
      "type": "function"
    },
    {
      "inputs": [
        {
          "internalType": "uint256",
          "name": "id",
          "type": "uint256"
        }
      ],
      "name": "getCandidateName",
      "outputs": [
        {
          "internalType": "string",
          "name": "",
          "type": "string"
        }
      ],
      "stateMutability": "view",
      "type": "function"
    },
    {
      "inputs": [
        {
          "internalType": "uint256",
          "name": "id",
          "type": "uint256"
        }
      ],
      "name": "getCandidateVoteCount",
      "outputs": [
        {
          "internalType": "uint256",
          "name": "",
          "type": "uint256"
        }
      ],
      "stateMutability": "view",
      "type": "function"
    },
    {
      "inputs": [],
      "name": "getElectionStatus",
      "outputs": [
        {
          "internalType": "enum Election_step2.ElectionStatus",
          "name": "",
          "type": "uint8"
        }
      ],
      "stateMutability": "view",
      "type": "function"
    },
    {
      "inputs": [
        {
          "internalType": "address",
          "name": "addr",
          "type": "address"
        }
      ],
      "name": "getHasVoted",
      "outputs": [
        {
          "internalType": "bool",
          "name": "",
          "type": "bool"
        }
      ],
      "stateMutability": "view",
      "type": "function"
    },
    {
      "inputs": [
        {
          "internalType": "address",
          "name": "addr",
          "type": "address"
        }
      ],
      "name": "getIsAdmin",
      "outputs": [
        {
          "internalType": "bool",
          "name": "",
          "type": "bool"
        }
      ],
      "stateMutability": "view",
      "type": "function"
    },
    {
      "inputs": [],
      "name": "getNFTTokenCA",
      "outputs": [
        {
          "internalType": "address",
          "name": "",
          "type": "address"
        }
      ],
      "stateMutability": "view",
      "type": "function"
    },
    {
      "inputs": [
        {
          "internalType": "address",
          "name": "addr",
          "type": "address"
        }
      ],
      "name": "getTokenId",
      "outputs": [
        {
          "internalType": "uint256",
          "name": "",
          "type": "uint256"
        }
      ],
      "stateMutability": "view",
      "type": "function"
    },
    {
      "inputs": [],
      "name": "getTotalCandidateNum",
      "outputs": [
        {
          "internalType": "uint256",
          "name": "",
          "type": "uint256"
        }
      ],
      "stateMutability": "view",
      "type": "function"
    },
    {
      "inputs": [],
      "name": "getTotalVoteCount",
      "outputs": [
        {
          "internalType": "uint256",
          "name": "",
          "type": "uint256"
        }
      ],
      "stateMutability": "view",
      "type": "function"
    },
    {
      "inputs": [
        {
          "internalType": "string",
          "name": "name",
          "type": "string"
        }
      ],
      "name": "registerCandidate",
      "outputs": [],
      "stateMutability": "nonpayable",
      "type": "function"
    },
    {
      "inputs": [],
      "name": "restartVoteSession",
      "outputs": [],
      "stateMutability": "nonpayable",
      "type": "function"
    },
    {
      "inputs": [],
      "name": "startVoteSession",
      "outputs": [],
      "stateMutability": "nonpayable",
      "type": "function"
    },
    {
      "inputs": [],
      "name": "totalCandidateNum",
      "outputs": [
        {
          "internalType": "uint256",
          "name": "",
          "type": "uint256"
        }
      ],
      "stateMutability": "view",
      "type": "function"
    },
    {
      "inputs": [],
      "name": "totalVoteCount",
      "outputs": [
        {
          "internalType": "uint256",
          "name": "",
          "type": "uint256"
        }
      ],
      "stateMutability": "view",
      "type": "function"
    },
    {
      "inputs": [
        {
          "internalType": "uint256",
          "name": "candidateId",
          "type": "uint256"
        }
      ],
      "name": "vote",
      "outputs": [],
      "stateMutability": "nonpayable",
      "type": "function"
    },
    {
      "inputs": [
        {
          "internalType": "uint256",
          "name": "candidateId",
          "type": "uint256"
        }
      ],
      "name": "voteAndGetNFT",
      "outputs": [
        {
          "internalType": "uint256",
          "name": "",
          "type": "uint256"
        }
      ],
      "stateMutability": "nonpayable",
      "type": "function"
    },
    {
      "inputs": [
        {
          "internalType": "address",
          "name": "",
          "type": "address"
        }
      ],
      "name": "voters",
      "outputs": [
        {
          "internalType": "bool",
          "name": "",
          "type": "bool"
        }
      ],
      "stateMutability": "view",
      "type": "function"
    },
    {
      "inputs": [
        {
          "internalType": "address",
          "name": "",
          "type": "address"
        }
      ],
      "name": "votersToToken",
      "outputs": [
        {
          "internalType": "uint256",
          "name": "",
          "type": "uint256"
        }
      ],
      "stateMutability": "view",
      "type": "function"
    }
  ],
  "bytecode": "0x608060405234801561001057600080fd5b50600280546001600160a81b031916336101000260ff1916179055610cca8061003a6000396000f3fe608060405234801561001057600080fd5b506004361061010b5760003560e01c8063a3ec138d116100a2578063eaef034911610071578063eaef03491461022f578063f74c168d1461023c578063f780dbb814610244578063f851a4401461024d578063ff594a241461027d57600080fd5b8063a3ec138d146101d1578063aaa98346146101f4578063b315c597146101fc578063e13804a71461020f57600080fd5b80633477ee2e116100de5780633477ee2e1461015c578063822b0ceb1461017e578063893d8f4c146101b55780639eb88db6146101be57600080fd5b80630121b93f14610110578063122902a6146101255780631c0115be14610142578063288c72e814610154575b600080fd5b61012361011e366004610948565b610285565b005b60025460ff165b6040516101399190610977565b60405180910390f35b6003545b604051908152602001610139565b6101466103a4565b61016f61016a366004610948565b6103dd565b604051610139939291906109ec565b6101a561018c366004610a15565b60025461010090046001600160a01b0390811691161490565b6040519015158152602001610139565b61014660045481565b6101236101cc366004610a5b565b610488565b6101a56101df366004610a15565b60016020526000908152604090205460ff1681565b61012361056a565b61014661020a366004610948565b610624565b61022261021d366004610948565b6106f9565b6040516101399190610b0c565b60025461012c9060ff1681565b6101236107bf565b61014660035481565b6002546102659061010090046001600160a01b031681565b6040516001600160a01b039091168152602001610139565b610123610837565b6002805460ff16600381111561029d5761029d610961565b146102c35760405162461bcd60e51b81526004016102ba90610b1f565b60405180910390fd5b8060035481106102e55760405162461bcd60e51b81526004016102ba90610b60565b3360009081526001602052604090205460ff16156103515760405162461bcd60e51b815260206004820152602360248201527f4572726f723a2074686520766f7465722068617320616c726561647920766f7460448201526232b21760e91b60648201526084016102ba565b336000908152600160208181526040808420805460ff1916909317909255848352829052812060020180549161038683610bad565b90915550506004805490600061039b83610bad565b91905055505050565b60025460009061010090046001600160a01b031633146103d65760405162461bcd60e51b81526004016102ba90610bc8565b5060045490565b600060208190529081526040902080546001820180549192916103ff90610bff565b80601f016020809104026020016040519081016040528092919081815260200182805461042b90610bff565b80156104785780601f1061044d57610100808354040283529160200191610478565b820191906000526020600020905b81548152906001019060200180831161045b57829003601f168201915b5050505050908060020154905083565b600060025460ff1660038111156104a1576104a1610961565b146104be5760405162461bcd60e51b81526004016102ba90610c34565b604080516060810182526003548082526020808301858152600084860181905292835282825293909120825181559251805192939261050392600185019201906108af565b50604091909101516002909101556003805490600061052183610bad565b91905055507f7df257de6fe1b563377d932788d3a11eb1915bf8dd8cbfd2f3d72a08baecb61e60016003546105569190610c7d565b60405190815260200160405180910390a150565b60025461010090046001600160a01b031633146105995760405162461bcd60e51b81526004016102ba90610bc8565b600160025460ff1660038111156105b2576105b2610961565b1461060f5760405162461bcd60e51b815260206004820152602760248201527f4572726f723a20537461747573206973206e6f7420726567697374657243616e6044820152663222b73232b21760c91b60648201526084016102ba565b60028054819060ff19166001825b0217905550565b60025460009061010090046001600160a01b031633146106565760405162461bcd60e51b81526004016102ba90610bc8565b600360025460ff16600381111561066f5761066f610961565b146106bc5760405162461bcd60e51b815260206004820152601f60248201527f4572726f723a20537461747573206973206e6f7420766f7465456e6465642e0060448201526064016102ba565b8160035481106106de5760405162461bcd60e51b81526004016102ba90610b60565b60008381526020819052604090206002015491505b50919050565b606081600354811061071d5760405162461bcd60e51b81526004016102ba90610b60565b6000838152602081905260409020600101805461073990610bff565b80601f016020809104026020016040519081016040528092919081815260200182805461076590610bff565b80156107b25780601f10610787576101008083540402835291602001916107b2565b820191906000526020600020905b81548152906001019060200180831161079557829003601f168201915b5050505050915050919050565b60025461010090046001600160a01b031633146107ee5760405162461bcd60e51b81526004016102ba90610bc8565b6002805460ff16600381111561080657610806610961565b146108235760405162461bcd60e51b81526004016102ba90610b1f565b600280546003919060ff191660018361061d565b60025461010090046001600160a01b031633146108665760405162461bcd60e51b81526004016102ba90610bc8565b600060025460ff16600381111561087f5761087f610961565b1461089c5760405162461bcd60e51b81526004016102ba90610c34565b600280546001919060ff1916828061061d565b8280546108bb90610bff565b90600052602060002090601f0160209004810192826108dd5760008555610923565b82601f106108f657805160ff1916838001178555610923565b82800160010185558215610923579182015b82811115610923578251825591602001919060010190610908565b5061092f929150610933565b5090565b5b8082111561092f5760008155600101610934565b60006020828403121561095a57600080fd5b5035919050565b634e487b7160e01b600052602160045260246000fd5b602081016004831061099957634e487b7160e01b600052602160045260246000fd5b91905290565b6000815180845260005b818110156109c5576020818501810151868301820152016109a9565b818111156109d7576000602083870101525b50601f01601f19169290920160200192915050565b838152606060208201526000610a05606083018561099f565b9050826040830152949350505050565b600060208284031215610a2757600080fd5b81356001600160a01b0381168114610a3e57600080fd5b9392505050565b634e487b7160e01b600052604160045260246000fd5b600060208284031215610a6d57600080fd5b813567ffffffffffffffff80821115610a8557600080fd5b818401915084601f830112610a9957600080fd5b813581811115610aab57610aab610a45565b604051601f8201601f19908116603f01168101908382118183101715610ad357610ad3610a45565b81604052828152876020848701011115610aec57600080fd5b826020860160208301376000928101602001929092525095945050505050565b602081526000610a3e602083018461099f565b60208082526021908201527f4572726f723a20537461747573206973206e6f7420766f7465537461727465646040820152601760f91b606082015260800190565b6020808252601b908201527f4572726f723a20696e76616c69642063616e64696461746549642e0000000000604082015260600190565b634e487b7160e01b600052601160045260246000fd5b6000600019821415610bc157610bc1610b97565b5060010190565b6020808252601d908201527f4572726f723a206f6e6c792061646d696e20697320616c6c6f7765642e000000604082015260600190565b600181811c90821680610c1357607f821691505b602082108114156106f357634e487b7160e01b600052602260045260246000fd5b60208082526029908201527f4572726f723a20537461747573206973206e6f7420726567697374657243616e6040820152683229ba30b93a32b21760b91b606082015260800190565b600082821015610c8f57610c8f610b97565b50039056fea26469706673582212202fca244cec7f1efa7296ae2aa12dea46525f4f9e8a36b275954f3c60958801ed64736f6c63430008090033",
  "linkReferences": {},
  "deployedLinkReferences": {}
}