{
  "_format": "hh-sol-artifact-1",
  "contractName": "Election_step2",
  "sourceName": "contracts/contracts/Election_step2.sol",
  "abi": [
    {
      "inputs": [
        {
          "internalType": "address",
          "name": "_NFTTokenCA",
          "type": "address"
        },
        {
          "internalType": "string",
          "name": "_description",
          "type": "string"
        },
        {
          "internalType": "uint256",
          "name": "_isShowResultImm",
          "type": "uint256"
        }
      ],
      "stateMutability": "nonpayable",
      "type": "constructor"
    },
    {
      "inputs": [],
      "name": "MAXREGISTERNUM",
      "outputs": [
        {
          "internalType": "uint256",
          "name": "",
          "type": "uint256"
        }
      ],
      "stateMutability": "view",
      "type": "function"
    },
    {
      "inputs": [],
      "name": "NFTTokenCA",
      "outputs": [
        {
          "internalType": "address",
          "name": "",
          "type": "address"
        }
      ],
      "stateMutability": "view",
      "type": "function"
    },
    {
      "inputs": [],
      "name": "VoteNFT",
      "outputs": [
        {
          "internalType": "contract NFTToken",
          "name": "",
          "type": "address"
        }
      ],
      "stateMutability": "view",
      "type": "function"
    },
    {
      "inputs": [],
      "name": "admin",
      "outputs": [
        {
          "internalType": "address",
          "name": "",
          "type": "address"
        }
      ],
      "stateMutability": "view",
      "type": "function"
    },
    {
      "inputs": [
        {
          "internalType": "uint256",
          "name": "",
          "type": "uint256"
        }
      ],
      "name": "candidates",
      "outputs": [
        {
          "internalType": "uint256",
          "name": "id",
          "type": "uint256"
        },
        {
          "internalType": "string",
          "name": "name",
          "type": "string"
        },
        {
          "internalType": "uint256",
          "name": "voteCount",
          "type": "uint256"
        }
      ],
      "stateMutability": "view",
      "type": "function"
    },
    {
      "inputs": [],
      "name": "electionStatus",
      "outputs": [
        {
          "internalType": "enum Election_step2.ElectionStatus",
          "name": "",
          "type": "uint8"
        }
      ],
      "stateMutability": "view",
      "type": "function"
    },
    {
      "inputs": [],
      "name": "endVoteSession",
      "outputs": [],
      "stateMutability": "nonpayable",
      "type": "function"
    },
    {
      "inputs": [],
      "name": "getAllCandidateNames",
      "outputs": [
        {
          "internalType": "string[]",
          "name": "",
          "type": "string[]"
        }
      ],
      "stateMutability": "view",
      "type": "function"
    },
    {
      "inputs": [],
      "name": "getAllCandidateVoteCounts",
      "outputs": [
        {
          "internalType": "uint256[]",
          "name": "",
          "type": "uint256[]"
        }
      ],
      "stateMutability": "view",
      "type": "function"
    },
    {
      "inputs": [
        {
          "internalType": "uint256",
          "name": "id",
          "type": "uint256"
        }
      ],
      "name": "getCandidateName",
      "outputs": [
        {
          "internalType": "string",
          "name": "",
          "type": "string"
        }
      ],
      "stateMutability": "view",
      "type": "function"
    },
    {
      "inputs": [
        {
          "internalType": "uint256",
          "name": "id",
          "type": "uint256"
        }
      ],
      "name": "getCandidateVoteCount",
      "outputs": [
        {
          "internalType": "uint256",
          "name": "",
          "type": "uint256"
        }
      ],
      "stateMutability": "view",
      "type": "function"
    },
    {
      "inputs": [],
      "name": "getDescription",
      "outputs": [
        {
          "internalType": "string",
          "name": "",
          "type": "string"
        }
      ],
      "stateMutability": "view",
      "type": "function"
    },
    {
      "inputs": [],
      "name": "getElectionStatus",
      "outputs": [
        {
          "internalType": "enum Election_step2.ElectionStatus",
          "name": "",
          "type": "uint8"
        }
      ],
      "stateMutability": "view",
      "type": "function"
    },
    {
      "inputs": [
        {
          "internalType": "address",
          "name": "addr",
          "type": "address"
        }
      ],
      "name": "getHasVoted",
      "outputs": [
        {
          "internalType": "bool",
          "name": "",
          "type": "bool"
        }
      ],
      "stateMutability": "view",
      "type": "function"
    },
    {
      "inputs": [
        {
          "internalType": "address",
          "name": "addr",
          "type": "address"
        }
      ],
      "name": "getIsAdmin",
      "outputs": [
        {
          "internalType": "bool",
          "name": "",
          "type": "bool"
        }
      ],
      "stateMutability": "view",
      "type": "function"
    },
    {
      "inputs": [],
      "name": "getIsShowResultImm",
      "outputs": [
        {
          "internalType": "uint256",
          "name": "",
          "type": "uint256"
        }
      ],
      "stateMutability": "view",
      "type": "function"
    },
    {
      "inputs": [],
      "name": "getNFTTokenCA",
      "outputs": [
        {
          "internalType": "address",
          "name": "",
          "type": "address"
        }
      ],
      "stateMutability": "view",
      "type": "function"
    },
    {
      "inputs": [
        {
          "internalType": "address",
          "name": "addr",
          "type": "address"
        }
      ],
      "name": "getRecentTokenId",
      "outputs": [
        {
          "internalType": "int256",
          "name": "",
          "type": "int256"
        }
      ],
      "stateMutability": "view",
      "type": "function"
    },
    {
      "inputs": [
        {
          "internalType": "address",
          "name": "addr",
          "type": "address"
        }
      ],
      "name": "getRegisterNum",
      "outputs": [
        {
          "internalType": "uint256",
          "name": "",
          "type": "uint256"
        }
      ],
      "stateMutability": "view",
      "type": "function"
    },
    {
      "inputs": [
        {
          "internalType": "address",
          "name": "addr",
          "type": "address"
        }
      ],
      "name": "getTokenIds",
      "outputs": [
        {
          "internalType": "uint256[]",
          "name": "",
          "type": "uint256[]"
        }
      ],
      "stateMutability": "view",
      "type": "function"
    },
    {
      "inputs": [],
      "name": "getTotalCandidateNum",
      "outputs": [
        {
          "internalType": "uint256",
          "name": "",
          "type": "uint256"
        }
      ],
      "stateMutability": "view",
      "type": "function"
    },
    {
      "inputs": [],
      "name": "getTotalVoteCount",
      "outputs": [
        {
          "internalType": "uint256",
          "name": "",
          "type": "uint256"
        }
      ],
      "stateMutability": "view",
      "type": "function"
    },
    {
      "inputs": [],
      "name": "isShowResultImm",
      "outputs": [
        {
          "internalType": "uint256",
          "name": "",
          "type": "uint256"
        }
      ],
      "stateMutability": "view",
      "type": "function"
    },
    {
      "inputs": [
        {
          "internalType": "string",
          "name": "name",
          "type": "string"
        }
      ],
      "name": "registerCandidateAndGetNFT",
      "outputs": [],
      "stateMutability": "nonpayable",
      "type": "function"
    },
    {
      "inputs": [],
      "name": "restartVoteSession",
      "outputs": [],
      "stateMutability": "nonpayable",
      "type": "function"
    },
    {
      "inputs": [],
      "name": "startVoteSession",
      "outputs": [],
      "stateMutability": "nonpayable",
      "type": "function"
    },
    {
      "inputs": [],
      "name": "totalCandidateNum",
      "outputs": [
        {
          "internalType": "uint256",
          "name": "",
          "type": "uint256"
        }
      ],
      "stateMutability": "view",
      "type": "function"
    },
    {
      "inputs": [],
      "name": "totalVoteCount",
      "outputs": [
        {
          "internalType": "uint256",
          "name": "",
          "type": "uint256"
        }
      ],
      "stateMutability": "view",
      "type": "function"
    },
    {
      "inputs": [
        {
          "internalType": "uint256[]",
          "name": "candidateIds",
          "type": "uint256[]"
        }
      ],
      "name": "voteAndGetNFT",
      "outputs": [
        {
          "internalType": "uint256",
          "name": "",
          "type": "uint256"
        }
      ],
      "stateMutability": "nonpayable",
      "type": "function"
    },
    {
      "inputs": [
        {
          "internalType": "address",
          "name": "",
          "type": "address"
        }
      ],
      "name": "voters",
      "outputs": [
        {
          "internalType": "uint8",
          "name": "flag",
          "type": "uint8"
        },
        {
          "internalType": "bool",
          "name": "hasVoted",
          "type": "bool"
        },
        {
          "internalType": "uint256",
          "name": "registerNum",
          "type": "uint256"
        }
      ],
      "stateMutability": "view",
      "type": "function"
    }
  ],
  "bytecode": "0x60806040523480156200001157600080fd5b50604051620019b5380380620019b5833981016040819052620000349162000160565b60048054610100600160a81b0319163361010002179055815162000060906007906020850190620000a4565b50600180546001600160a01b03949094166001600160a01b031994851681179091556008919091556004805460ff19169055600080549093161790915550620002a6565b828054620000b29062000269565b90600052602060002090601f016020900481019282620000d6576000855562000121565b82601f10620000f157805160ff191683800117855562000121565b8280016001018555821562000121579182015b828111156200012157825182559160200191906001019062000104565b506200012f92915062000133565b5090565b5b808211156200012f576000815560010162000134565b634e487b7160e01b600052604160045260246000fd5b6000806000606084860312156200017657600080fd5b83516001600160a01b03811681146200018e57600080fd5b602085810151919450906001600160401b0380821115620001ae57600080fd5b818701915087601f830112620001c357600080fd5b815181811115620001d857620001d86200014a565b604051601f8201601f19908116603f011681019083821181831017156200020357620002036200014a565b816040528281528a868487010111156200021c57600080fd5b600093505b8284101562000240578484018601518185018701529285019262000221565b82841115620002525760008684830101525b809750505050505050604084015190509250925092565b600181811c908216806200027e57607f821691505b60208210811415620002a057634e487b7160e01b600052602260045260246000fd5b50919050565b6116ff80620002b66000396000f3fe608060405234801561001057600080fd5b50600436106101da5760003560e01c8063968fb51011610104578063d004b036116100a2578063eaef034911610071578063eaef034914610453578063f74c168d14610460578063f780dbb814610468578063f851a4401461047157600080fd5b8063d004b03614610412578063d9cc8c8714610425578063e13804a71461042d578063e9fd3f051461044057600080fd5b8063aaa98346116100de578063aaa98346146103cf578063b315c597146103d7578063bd88580e146103ea578063c77da043146103fd57600080fd5b8063968fb510146103585780639cd066bf1461036b578063a3ec138d1461037c57600080fd5b806343776ed71161017c5780636de8bcb91161014b5780636de8bcb9146102d2578063822b0ceb14610313578063884ea17d1461033a578063893d8f4c1461034f57600080fd5b806343776ed71461028357806347070f07146102965780634868bff21461029e57806363c93f02146102c957600080fd5b80631c0115be116101b85780631c0115be1461021b578063288c72e81461022d5780633477ee2e146102355780633e7dac6b1461025757600080fd5b8063122902a6146101df5780631a092541146101fc5780631ae0b24214610211575b600080fd5b60045460ff165b6040516101f39190611142565b60405180910390f35b610204610489565b6040516101f391906111b7565b61021961051b565b005b6005545b6040519081526020016101f3565b60065461021f565b6102486102433660046111d1565b6105cf565b6040516101f3939291906111ea565b61021f610265366004611213565b6001600160a01b031660009081526003602052604090206001015490565b61021f610291366004611283565b61067a565b61021f600381565b6001546102b1906001600160a01b031681565b6040516001600160a01b0390911681526020016101f3565b61021f60085481565b6103036102e0366004611213565b6001600160a01b0316600090815260036020526040902054610100900460ff1690565b60405190151581526020016101f3565b610303610321366004611213565b60045461010090046001600160a01b0390811691161490565b61034261072e565b6040516101f39190611329565b61021f60065481565b61021961036636600461138b565b610860565b6001546001600160a01b03166102b1565b6103b061038a366004611213565b6003602052600090815260409020805460019091015460ff808316926101009004169083565b6040805160ff90941684529115156020840152908201526060016101f3565b61021961090d565b61021f6103e53660046111d1565b610972565b61021f6103f8366004611213565b610a28565b610405610a9d565b6040516101f39190611420565b610405610420366004611213565b610bb5565b60085461021f565b61020461043b3660046111d1565b610c24565b6000546102b1906001600160a01b031681565b6004546101e69060ff1681565b610219610cea565b61021f60055481565b6004546102b19061010090046001600160a01b031681565b60606007805461049890611464565b80601f01602080910402602001604051908101604052809291908181526020018280546104c490611464565b80156105115780601f106104e657610100808354040283529160200191610511565b820191906000526020600020905b8154815290600101906020018083116104f457829003601f168201915b5050505050905090565b60045461010090046001600160a01b031633146105535760405162461bcd60e51b815260040161054a90611499565b60405180910390fd5b600260045460ff16600281111561056c5761056c61112c565b146105b95760405162461bcd60e51b815260206004820152601f60248201527f4572726f723a20537461747573206973206e6f7420766f7465456e6465642e00604482015260640161054a565b600480546001919060ff191682805b0217905550565b600260205260009081526040902080546001820180549192916105f190611464565b80601f016020809104026020016040519081016040528092919081815260200182805461061d90611464565b801561066a5780601f1061063f5761010080835404028352916020019161066a565b820191906000526020600020905b81548152906001019060200180831161064d57829003601f168201915b5050505050908060020154905083565b600061068582610d63565b600080546040516245ce9d60e21b81523360048201526001600160a01b03909116906301173a7490602401602060405180830381600087803b1580156106ca57600080fd5b505af11580156106de573d6000803e3d6000fd5b505050506040513d601f19601f8201168201806040525081019061070291906114d0565b336000908152600360209081526040822060020180546001810182559083529120018190559392505050565b6060600060055467ffffffffffffffff81111561074d5761074d61123c565b60405190808252806020026020018201604052801561078057816020015b606081526020019060019003908161076b5790505b50905060005b60055481101561085a57600081815260026020526040902060010180546107ac90611464565b80601f01602080910402602001604051908101604052809291908181526020018280546107d890611464565b80156108255780601f106107fa57610100808354040283529160200191610825565b820191906000526020600020905b81548152906001019060200180831161080857829003601f168201915b505050505082828151811061083c5761083c6114e9565b6020026020010181905250808061085290611515565b915050610786565b50919050565b61086981610eff565b600080546040516245ce9d60e21b81523360048201526001600160a01b03909116906301173a7490602401602060405180830381600087803b1580156108ae57600080fd5b505af11580156108c2573d6000803e3d6000fd5b505050506040513d601f19601f820116820180604052508101906108e691906114d0565b33600090815260036020908152604082206002018054600181018255908352912001555050565b60045461010090046001600160a01b0316331461093c5760405162461bcd60e51b815260040161054a90611499565b600060045460ff1660028111156109555761095561112c565b146105b95760405162461bcd60e51b815260040161054a90611530565b6000600854600114156109b85733600090815260036020526040902054610100900460ff166109b35760405162461bcd60e51b815260040161054a90611579565b6109ee565b600260045460ff1660028111156109d1576109d161112c565b146109ee5760405162461bcd60e51b815260040161054a906115c5565b816005548110610a105760405162461bcd60e51b815260040161054a90611622565b50506000908152600260208190526040909120015490565b6001600160a01b03811660009081526003602052604081205460ff1615610a94576001600160a01b03821660009081526003602052604090206002018054610a7290600190611659565b81548110610a8257610a826114e9565b90600052602060002001549050919050565b50600019919050565b606060085460011415610ae35733600090815260036020526040902054610100900460ff16610ade5760405162461bcd60e51b815260040161054a90611579565b610b19565b600260045460ff166002811115610afc57610afc61112c565b14610b195760405162461bcd60e51b815260040161054a906115c5565b600060055467ffffffffffffffff811115610b3657610b3661123c565b604051908082528060200260200182016040528015610b5f578160200160208202803683370190505b50905060005b60055481101561085a576002600082815260200190815260200160002060020154828281518110610b9857610b986114e9565b602090810291909101015280610bad81611515565b915050610b65565b6001600160a01b038116600090815260036020908152604091829020600201805483518184028101840190945280845260609392830182828015610c1857602002820191906000526020600020905b815481526020019060010190808311610c04575b50505050509050919050565b6060816005548110610c485760405162461bcd60e51b815260040161054a90611622565b60008381526002602052604090206001018054610c6490611464565b80601f0160208091040260200160405190810160405280929190818152602001828054610c9090611464565b8015610cdd5780601f10610cb257610100808354040283529160200191610cdd565b820191906000526020600020905b815481529060010190602001808311610cc057829003601f168201915b5050505050915050919050565b60045461010090046001600160a01b03163314610d195760405162461bcd60e51b815260040161054a90611499565b600160045460ff166002811115610d3257610d3261112c565b14610d4f5760405162461bcd60e51b815260040161054a90611670565b600480546002919060ff19166001836105c8565b600160045460ff166002811115610d7c57610d7c61112c565b14610d995760405162461bcd60e51b815260040161054a90611670565b33600090815260036020526040902054610100900460ff1615610dfe5760405162461bcd60e51b815260206004820152601e60248201527f4572726f723a20796f752063616e20766f7465206f6e6c79206f6e63652e0000604482015260640161054a565b80600160005b8251811015610e4657600554838281518110610e2257610e226114e9565b602002602001015110610e3457600091505b80610e3e81611515565b915050610e04565b5080610e645760405162461bcd60e51b815260040161054a90611622565b60005b8351811015610ec85760026000858381518110610e8657610e866114e9565b602002602001015181526020019081526020016000206002016000815480929190610eb090611515565b91905055508080610ec090611515565b915050610e67565b5060068054906000610ed983611515565b9091555050336000908152600360205260409020805461ff001916610100179055505050565b600060045460ff166002811115610f1857610f1861112c565b14610f355760405162461bcd60e51b815260040161054a90611530565b3360009081526003602081905260409091206001015410610fbe5760405162461bcd60e51b815260206004820152603a60248201527f4572726f723a20766f74657220686173206c696d6974206f6e206e756d62657260448201527f206f66207265676973746572696e672063616e64696461746573000000000000606482015260840161054a565b6040805160608101825260055480825260208083018581526000848601819052928352600282529390912082518155925180519293926110049260018501920190611093565b50604091909101516002909101556005805490600061102283611515565b90915550503360009081526003602052604090205460ff161561106f5733600090815260036020526040812060019081018054919290916110649084906116b1565b909155506110909050565b336000908152600360205260409020805460ff191660019081178255908101555b50565b82805461109f90611464565b90600052602060002090601f0160209004810192826110c15760008555611107565b82601f106110da57805160ff1916838001178555611107565b82800160010185558215611107579182015b828111156111075782518255916020019190600101906110ec565b50611113929150611117565b5090565b5b808211156111135760008155600101611118565b634e487b7160e01b600052602160045260246000fd5b602081016003831061116457634e487b7160e01b600052602160045260246000fd5b91905290565b6000815180845260005b8181101561119057602081850181015186830182015201611174565b818111156111a2576000602083870101525b50601f01601f19169290920160200192915050565b6020815260006111ca602083018461116a565b9392505050565b6000602082840312156111e357600080fd5b5035919050565b838152606060208201526000611203606083018561116a565b9050826040830152949350505050565b60006020828403121561122557600080fd5b81356001600160a01b03811681146111ca57600080fd5b634e487b7160e01b600052604160045260246000fd5b604051601f8201601f1916810167ffffffffffffffff8111828210171561127b5761127b61123c565b604052919050565b6000602080838503121561129657600080fd5b823567ffffffffffffffff808211156112ae57600080fd5b818501915085601f8301126112c257600080fd5b8135818111156112d4576112d461123c565b8060051b91506112e5848301611252565b81815291830184019184810190888411156112ff57600080fd5b938501935b8385101561131d57843582529385019390850190611304565b98975050505050505050565b6000602080830181845280855180835260408601915060408160051b870101925083870160005b8281101561137e57603f1988860301845261136c85835161116a565b94509285019290850190600101611350565b5092979650505050505050565b6000602080838503121561139e57600080fd5b823567ffffffffffffffff808211156113b657600080fd5b818501915085601f8301126113ca57600080fd5b8135818111156113dc576113dc61123c565b6113ee601f8201601f19168501611252565b9150808252868482850101111561140457600080fd5b8084840185840137600090820190930192909252509392505050565b6020808252825182820181905260009190848201906040850190845b818110156114585783518352928401929184019160010161143c565b50909695505050505050565b600181811c9082168061147857607f821691505b6020821081141561085a57634e487b7160e01b600052602260045260246000fd5b6020808252601d908201527f4572726f723a206f6e6c792061646d696e20697320616c6c6f7765642e000000604082015260600190565b6000602082840312156114e257600080fd5b5051919050565b634e487b7160e01b600052603260045260246000fd5b634e487b7160e01b600052601160045260246000fd5b6000600019821415611529576115296114ff565b5060010190565b60208082526029908201527f4572726f723a20537461747573206973206e6f7420726567697374657243616e6040820152683229ba30b93a32b21760b91b606082015260800190565b6020808252602c908201527f4572726f723a204f6e6c792063616e207365652074686520726573756c74207760408201526b68656e20796f7520766f746560a01b606082015260800190565b6020808252603d908201527f4572726f723a20566f746520726573756c742063616e2062652073686f776e7760408201527f68656e2074686520766f74696e672073657373696f6e20656e6473732e000000606082015260800190565b6020808252601b908201527f4572726f723a20696e76616c69642063616e64696461746549642e0000000000604082015260600190565b60008282101561166b5761166b6114ff565b500390565b60208082526021908201527f4572726f723a20537461747573206973206e6f7420766f7465537461727465646040820152601760f91b606082015260800190565b600082198211156116c4576116c46114ff565b50019056fea26469706673582212205b917efac4e718fb5e93e3ce429ce1b86f855ca2ef8c652dc50e408a8195fe9164736f6c63430008090033",
  "linkReferences": {},
  "deployedLinkReferences": {}
}