{
  "_format": "hh-sol-artifact-1",
  "contractName": "Election_step2",
  "sourceName": "contracts/contracts/Election_step2.sol",
  "abi": [
    {
      "inputs": [
        {
          "internalType": "address",
          "name": "_NFTTokenCA",
          "type": "address"
        }
      ],
      "stateMutability": "nonpayable",
      "type": "constructor"
    },
    {
      "anonymous": false,
      "inputs": [
        {
          "indexed": false,
          "internalType": "uint256",
          "name": "id",
          "type": "uint256"
        }
      ],
      "name": "candRegisteredEvent",
      "type": "event"
    },
    {
      "anonymous": false,
      "inputs": [
        {
          "indexed": false,
          "internalType": "enum Election_step2.ElectionStatus",
          "name": "prev",
          "type": "uint8"
        },
        {
          "indexed": false,
          "internalType": "enum Election_step2.ElectionStatus",
          "name": "end",
          "type": "uint8"
        }
      ],
      "name": "statusChangedEvent",
      "type": "event"
    },
    {
      "anonymous": false,
      "inputs": [],
      "name": "voteDoneEvent",
      "type": "event"
    },
    {
      "inputs": [],
      "name": "NFTTokenCA",
      "outputs": [
        {
          "internalType": "address",
          "name": "",
          "type": "address"
        }
      ],
      "stateMutability": "view",
      "type": "function"
    },
    {
      "inputs": [],
      "name": "VoteNFT",
      "outputs": [
        {
          "internalType": "contract NFTToken",
          "name": "",
          "type": "address"
        }
      ],
      "stateMutability": "view",
      "type": "function"
    },
    {
      "inputs": [],
      "name": "admin",
      "outputs": [
        {
          "internalType": "address",
          "name": "",
          "type": "address"
        }
      ],
      "stateMutability": "view",
      "type": "function"
    },
    {
      "inputs": [
        {
          "internalType": "uint256",
          "name": "",
          "type": "uint256"
        }
      ],
      "name": "candidates",
      "outputs": [
        {
          "internalType": "uint256",
          "name": "id",
          "type": "uint256"
        },
        {
          "internalType": "string",
          "name": "name",
          "type": "string"
        },
        {
          "internalType": "uint256",
          "name": "voteCount",
          "type": "uint256"
        }
      ],
      "stateMutability": "view",
      "type": "function"
    },
    {
      "inputs": [],
      "name": "electionStatus",
      "outputs": [
        {
          "internalType": "enum Election_step2.ElectionStatus",
          "name": "",
          "type": "uint8"
        }
      ],
      "stateMutability": "view",
      "type": "function"
    },
    {
      "inputs": [],
      "name": "endRegisterCandSession",
      "outputs": [],
      "stateMutability": "nonpayable",
      "type": "function"
    },
    {
      "inputs": [],
      "name": "endVoteSession",
      "outputs": [],
      "stateMutability": "nonpayable",
      "type": "function"
    },
    {
      "inputs": [
        {
          "internalType": "uint256",
          "name": "id",
          "type": "uint256"
        }
      ],
      "name": "getCandidateName",
      "outputs": [
        {
          "internalType": "string",
          "name": "",
          "type": "string"
        }
      ],
      "stateMutability": "view",
      "type": "function"
    },
    {
      "inputs": [
        {
          "internalType": "uint256",
          "name": "id",
          "type": "uint256"
        }
      ],
      "name": "getCandidateVoteCount",
      "outputs": [
        {
          "internalType": "uint256",
          "name": "",
          "type": "uint256"
        }
      ],
      "stateMutability": "view",
      "type": "function"
    },
    {
      "inputs": [],
      "name": "getElectionStatus",
      "outputs": [
        {
          "internalType": "enum Election_step2.ElectionStatus",
          "name": "",
          "type": "uint8"
        }
      ],
      "stateMutability": "view",
      "type": "function"
    },
    {
      "inputs": [
        {
          "internalType": "address",
          "name": "addr",
          "type": "address"
        }
      ],
      "name": "getHasVoted",
      "outputs": [
        {
          "internalType": "bool",
          "name": "",
          "type": "bool"
        }
      ],
      "stateMutability": "view",
      "type": "function"
    },
    {
      "inputs": [
        {
          "internalType": "address",
          "name": "addr",
          "type": "address"
        }
      ],
      "name": "getIsAdmin",
      "outputs": [
        {
          "internalType": "bool",
          "name": "",
          "type": "bool"
        }
      ],
      "stateMutability": "view",
      "type": "function"
    },
    {
      "inputs": [],
      "name": "getNFTTokenCA",
      "outputs": [
        {
          "internalType": "address",
          "name": "",
          "type": "address"
        }
      ],
      "stateMutability": "view",
      "type": "function"
    },
    {
      "inputs": [
        {
          "internalType": "address",
          "name": "addr",
          "type": "address"
        }
      ],
      "name": "getTokenId",
      "outputs": [
        {
          "internalType": "uint256",
          "name": "",
          "type": "uint256"
        }
      ],
      "stateMutability": "view",
      "type": "function"
    },
    {
      "inputs": [],
      "name": "getTotalCandidateNum",
      "outputs": [
        {
          "internalType": "uint256",
          "name": "",
          "type": "uint256"
        }
      ],
      "stateMutability": "view",
      "type": "function"
    },
    {
      "inputs": [],
      "name": "getTotalVoteCount",
      "outputs": [
        {
          "internalType": "uint256",
          "name": "",
          "type": "uint256"
        }
      ],
      "stateMutability": "view",
      "type": "function"
    },
    {
      "inputs": [
        {
          "internalType": "string",
          "name": "name",
          "type": "string"
        }
      ],
      "name": "registerCandidate",
      "outputs": [],
      "stateMutability": "nonpayable",
      "type": "function"
    },
    {
      "inputs": [],
      "name": "restartVoteSession",
      "outputs": [],
      "stateMutability": "nonpayable",
      "type": "function"
    },
    {
      "inputs": [],
      "name": "startVoteSession",
      "outputs": [],
      "stateMutability": "nonpayable",
      "type": "function"
    },
    {
      "inputs": [],
      "name": "totalCandidateNum",
      "outputs": [
        {
          "internalType": "uint256",
          "name": "",
          "type": "uint256"
        }
      ],
      "stateMutability": "view",
      "type": "function"
    },
    {
      "inputs": [],
      "name": "totalVoteCount",
      "outputs": [
        {
          "internalType": "uint256",
          "name": "",
          "type": "uint256"
        }
      ],
      "stateMutability": "view",
      "type": "function"
    },
    {
      "inputs": [
        {
          "internalType": "uint256",
          "name": "candidateId",
          "type": "uint256"
        }
      ],
      "name": "vote",
      "outputs": [],
      "stateMutability": "nonpayable",
      "type": "function"
    },
    {
      "inputs": [
        {
          "internalType": "uint256",
          "name": "candidateId",
          "type": "uint256"
        }
      ],
      "name": "voteAndGetNFT",
      "outputs": [
        {
          "internalType": "uint256",
          "name": "",
          "type": "uint256"
        }
      ],
      "stateMutability": "nonpayable",
      "type": "function"
    },
    {
      "inputs": [
        {
          "internalType": "address",
          "name": "",
          "type": "address"
        }
      ],
      "name": "voters",
      "outputs": [
        {
          "internalType": "bool",
          "name": "",
          "type": "bool"
        }
      ],
      "stateMutability": "view",
      "type": "function"
    },
    {
      "inputs": [
        {
          "internalType": "address",
          "name": "",
          "type": "address"
        }
      ],
      "name": "votersToToken",
      "outputs": [
        {
          "internalType": "uint256",
          "name": "",
          "type": "uint256"
        }
      ],
      "stateMutability": "view",
      "type": "function"
    }
  ],
  "bytecode": "0x608060405234801561001057600080fd5b5060405161100638038061100683398101604081905261002f91610079565b600580546001600160a81b031916336101000260ff1916179055600180546001600160a01b03929092166001600160a01b03199283168117909155600080549092161790556100a9565b60006020828403121561008b57600080fd5b81516001600160a01b03811681146100a257600080fd5b9392505050565b610f4e806100b86000396000f3fe608060405234801561001057600080fd5b50600436106101735760003560e01c80639cd066bf116100de578063e9fd3f0511610097578063f74c168d11610071578063f74c168d14610383578063f780dbb81461038b578063f851a44014610394578063ff594a24146103ac57600080fd5b8063e9fd3f051461033a578063eaef03491461034d578063f15376861461035a57600080fd5b80639cd066bf146102b85780639eb88db6146102c9578063a3ec138d146102dc578063aaa98346146102ff578063b315c59714610307578063e13804a71461031a57600080fd5b80634868bff2116101305780634868bff2146101ee578063613df3b4146102195780636de8bcb9146102395780636e4397c314610275578063822b0ceb14610288578063893d8f4c146102af57600080fd5b80630121b93f14610178578063122902a61461018d5780631ae0b242146101aa5780631c0115be146101b2578063288c72e8146101c45780633477ee2e146101cc575b600080fd5b61018b610186366004610bb3565b6103b4565b005b60055460ff165b6040516101a19190610be2565b60405180910390f35b61018b6104d4565b6006545b6040519081526020016101a1565b6101b6610580565b6101df6101da366004610bb3565b6105b9565b6040516101a193929190610c57565b600154610201906001600160a01b031681565b6040516001600160a01b0390911681526020016101a1565b6101b6610227366004610c80565b60046020526000908152604090205481565b610265610247366004610c80565b6001600160a01b031660009081526003602052604090205460ff1690565b60405190151581526020016101a1565b6101b6610283366004610bb3565b610664565b610265610296366004610c80565b60055461010090046001600160a01b0390811691161490565b6101b660075481565b6001546001600160a01b0316610201565b61018b6102d7366004610cc6565b610705565b6102656102ea366004610c80565b60036020526000908152604090205460ff1681565b61018b6107e8565b6101b6610315366004610bb3565b61088d565b61032d610328366004610bb3565b610963565b6040516101a19190610d77565b600054610201906001600160a01b031681565b6005546101949060ff1681565b6101b6610368366004610c80565b6001600160a01b031660009081526004602052604090205490565b61018b610a29565b6101b660065481565b6005546102019061010090046001600160a01b031681565b61018b610aa2565b600260055460ff1660038111156103cd576103cd610bcc565b146103f35760405162461bcd60e51b81526004016103ea90610d8a565b60405180910390fd5b8060065481106104155760405162461bcd60e51b81526004016103ea90610dcb565b3360009081526003602052604090205460ff16156104815760405162461bcd60e51b815260206004820152602360248201527f4572726f723a2074686520766f7465722068617320616c726561647920766f7460448201526232b21760e91b60648201526084016103ea565b336000908152600360209081526040808320805460ff191660011790558483526002918290528220018054916104b683610e18565b9091555050600780549060006104cb83610e18565b91905055505050565b60055461010090046001600160a01b031633146105035760405162461bcd60e51b81526004016103ea90610e33565b600360055460ff16600381111561051c5761051c610bcc565b146105695760405162461bcd60e51b815260206004820152601f60248201527f4572726f723a20537461747573206973206e6f7420766f7465456e6465642e0060448201526064016103ea565b600580546002919060ff19166001835b0217905550565b60055460009061010090046001600160a01b031633146105b25760405162461bcd60e51b81526004016103ea90610e33565b5060075490565b600260205260009081526040902080546001820180549192916105db90610e6a565b80601f016020809104026020016040519081016040528092919081815260200182805461060790610e6a565b80156106545780601f1061062957610100808354040283529160200191610654565b820191906000526020600020905b81548152906001019060200180831161063757829003601f168201915b5050505050908060020154905083565b600061066f826103b4565b600080546040516245ce9d60e21b81523360048201526001600160a01b03909116906301173a7490602401602060405180830381600087803b1580156106b457600080fd5b505af11580156106c8573d6000803e3d6000fd5b505050506040513d601f19601f820116820180604052508101906106ec9190610e9f565b3360009081526004602052604090208190559392505050565b600060055460ff16600381111561071e5761071e610bcc565b1461073b5760405162461bcd60e51b81526004016103ea90610eb8565b6040805160608101825260065480825260208083018581526000848601819052928352600282529390912082518155925180519293926107819260018501920190610b1a565b50604091909101516002909101556006805490600061079f83610e18565b91905055507f7df257de6fe1b563377d932788d3a11eb1915bf8dd8cbfd2f3d72a08baecb61e60016006546107d49190610f01565b60405190815260200160405180910390a150565b60055461010090046001600160a01b031633146108175760405162461bcd60e51b81526004016103ea90610e33565b600160055460ff16600381111561083057610830610bcc565b146105695760405162461bcd60e51b815260206004820152602760248201527f4572726f723a20537461747573206973206e6f7420726567697374657243616e6044820152663222b73232b21760c91b60648201526084016103ea565b60055460009061010090046001600160a01b031633146108bf5760405162461bcd60e51b81526004016103ea90610e33565b600360055460ff1660038111156108d8576108d8610bcc565b146109255760405162461bcd60e51b815260206004820152601f60248201527f4572726f723a20537461747573206973206e6f7420766f7465456e6465642e0060448201526064016103ea565b8160065481106109475760405162461bcd60e51b81526004016103ea90610dcb565b6000838152600260208190526040909120015491505b50919050565b60608160065481106109875760405162461bcd60e51b81526004016103ea90610dcb565b600083815260026020526040902060010180546109a390610e6a565b80601f01602080910402602001604051908101604052809291908181526020018280546109cf90610e6a565b8015610a1c5780601f106109f157610100808354040283529160200191610a1c565b820191906000526020600020905b8154815290600101906020018083116109ff57829003601f168201915b5050505050915050919050565b60055461010090046001600160a01b03163314610a585760405162461bcd60e51b81526004016103ea90610e33565b600260055460ff166003811115610a7157610a71610bcc565b14610a8e5760405162461bcd60e51b81526004016103ea90610d8a565b600580546003919060ff1916600183610579565b60055461010090046001600160a01b03163314610ad15760405162461bcd60e51b81526004016103ea90610e33565b600060055460ff166003811115610aea57610aea610bcc565b14610b075760405162461bcd60e51b81526004016103ea90610eb8565b600580546001919060ff19168280610579565b828054610b2690610e6a565b90600052602060002090601f016020900481019282610b485760008555610b8e565b82601f10610b6157805160ff1916838001178555610b8e565b82800160010185558215610b8e579182015b82811115610b8e578251825591602001919060010190610b73565b50610b9a929150610b9e565b5090565b5b80821115610b9a5760008155600101610b9f565b600060208284031215610bc557600080fd5b5035919050565b634e487b7160e01b600052602160045260246000fd5b6020810160048310610c0457634e487b7160e01b600052602160045260246000fd5b91905290565b6000815180845260005b81811015610c3057602081850181015186830182015201610c14565b81811115610c42576000602083870101525b50601f01601f19169290920160200192915050565b838152606060208201526000610c706060830185610c0a565b9050826040830152949350505050565b600060208284031215610c9257600080fd5b81356001600160a01b0381168114610ca957600080fd5b9392505050565b634e487b7160e01b600052604160045260246000fd5b600060208284031215610cd857600080fd5b813567ffffffffffffffff80821115610cf057600080fd5b818401915084601f830112610d0457600080fd5b813581811115610d1657610d16610cb0565b604051601f8201601f19908116603f01168101908382118183101715610d3e57610d3e610cb0565b81604052828152876020848701011115610d5757600080fd5b826020860160208301376000928101602001929092525095945050505050565b602081526000610ca96020830184610c0a565b60208082526021908201527f4572726f723a20537461747573206973206e6f7420766f7465537461727465646040820152601760f91b606082015260800190565b6020808252601b908201527f4572726f723a20696e76616c69642063616e64696461746549642e0000000000604082015260600190565b634e487b7160e01b600052601160045260246000fd5b6000600019821415610e2c57610e2c610e02565b5060010190565b6020808252601d908201527f4572726f723a206f6e6c792061646d696e20697320616c6c6f7765642e000000604082015260600190565b600181811c90821680610e7e57607f821691505b6020821081141561095d57634e487b7160e01b600052602260045260246000fd5b600060208284031215610eb157600080fd5b5051919050565b60208082526029908201527f4572726f723a20537461747573206973206e6f7420726567697374657243616e6040820152683229ba30b93a32b21760b91b606082015260800190565b600082821015610f1357610f13610e02565b50039056fea2646970667358221220730f3cfc590aaf88b19b3ba0272e8ea154988055ddb528bda77e4b1645fd494264736f6c63430008090033",
  "linkReferences": {},
  "deployedLinkReferences": {}
}