{
  "_format": "hh-sol-artifact-1",
  "contractName": "Election_step2",
  "sourceName": "contracts/contracts/Election_step2.sol",
  "abi": [
    {
      "inputs": [
        {
          "internalType": "address",
          "name": "_NFTTokenCA",
          "type": "address"
        },
        {
          "internalType": "string",
          "name": "_description",
          "type": "string"
        },
        {
          "internalType": "uint256",
          "name": "_isShowResultImm",
          "type": "uint256"
        }
      ],
      "stateMutability": "nonpayable",
      "type": "constructor"
    },
    {
      "inputs": [],
      "name": "MAXREGISTERNUM",
      "outputs": [
        {
          "internalType": "uint256",
          "name": "",
          "type": "uint256"
        }
      ],
      "stateMutability": "view",
      "type": "function"
    },
    {
      "inputs": [],
      "name": "NFTTokenCA",
      "outputs": [
        {
          "internalType": "address",
          "name": "",
          "type": "address"
        }
      ],
      "stateMutability": "view",
      "type": "function"
    },
    {
      "inputs": [],
      "name": "VoteNFT",
      "outputs": [
        {
          "internalType": "contract NFTToken",
          "name": "",
          "type": "address"
        }
      ],
      "stateMutability": "view",
      "type": "function"
    },
    {
      "inputs": [],
      "name": "admin",
      "outputs": [
        {
          "internalType": "address",
          "name": "",
          "type": "address"
        }
      ],
      "stateMutability": "view",
      "type": "function"
    },
    {
      "inputs": [
        {
          "internalType": "uint256",
          "name": "",
          "type": "uint256"
        }
      ],
      "name": "candidates",
      "outputs": [
        {
          "internalType": "uint256",
          "name": "id",
          "type": "uint256"
        },
        {
          "internalType": "string",
          "name": "name",
          "type": "string"
        },
        {
          "internalType": "uint256",
          "name": "voteCount",
          "type": "uint256"
        }
      ],
      "stateMutability": "view",
      "type": "function"
    },
    {
      "inputs": [],
      "name": "electionStatus",
      "outputs": [
        {
          "internalType": "enum Election_step2.ElectionStatus",
          "name": "",
          "type": "uint8"
        }
      ],
      "stateMutability": "view",
      "type": "function"
    },
    {
      "inputs": [],
      "name": "endVoteSession",
      "outputs": [],
      "stateMutability": "nonpayable",
      "type": "function"
    },
    {
      "inputs": [],
      "name": "getAllCandidateNames",
      "outputs": [
        {
          "internalType": "string[]",
          "name": "",
          "type": "string[]"
        }
      ],
      "stateMutability": "view",
      "type": "function"
    },
    {
      "inputs": [],
      "name": "getAllCandidateVoteCounts",
      "outputs": [
        {
          "internalType": "uint256[]",
          "name": "",
          "type": "uint256[]"
        }
      ],
      "stateMutability": "view",
      "type": "function"
    },
    {
      "inputs": [
        {
          "internalType": "uint256",
          "name": "id",
          "type": "uint256"
        }
      ],
      "name": "getCandidateName",
      "outputs": [
        {
          "internalType": "string",
          "name": "",
          "type": "string"
        }
      ],
      "stateMutability": "view",
      "type": "function"
    },
    {
      "inputs": [
        {
          "internalType": "uint256",
          "name": "id",
          "type": "uint256"
        }
      ],
      "name": "getCandidateVoteCount",
      "outputs": [
        {
          "internalType": "uint256",
          "name": "",
          "type": "uint256"
        }
      ],
      "stateMutability": "view",
      "type": "function"
    },
    {
      "inputs": [],
      "name": "getDescription",
      "outputs": [
        {
          "internalType": "string",
          "name": "",
          "type": "string"
        }
      ],
      "stateMutability": "view",
      "type": "function"
    },
    {
      "inputs": [],
      "name": "getElectionStatus",
      "outputs": [
        {
          "internalType": "enum Election_step2.ElectionStatus",
          "name": "",
          "type": "uint8"
        }
      ],
      "stateMutability": "view",
      "type": "function"
    },
    {
      "inputs": [
        {
          "internalType": "address",
          "name": "addr",
          "type": "address"
        }
      ],
      "name": "getHasVoted",
      "outputs": [
        {
          "internalType": "bool",
          "name": "",
          "type": "bool"
        }
      ],
      "stateMutability": "view",
      "type": "function"
    },
    {
      "inputs": [
        {
          "internalType": "address",
          "name": "addr",
          "type": "address"
        }
      ],
      "name": "getIsAdmin",
      "outputs": [
        {
          "internalType": "bool",
          "name": "",
          "type": "bool"
        }
      ],
      "stateMutability": "view",
      "type": "function"
    },
    {
      "inputs": [],
      "name": "getNFTTokenCA",
      "outputs": [
        {
          "internalType": "address",
          "name": "",
          "type": "address"
        }
      ],
      "stateMutability": "view",
      "type": "function"
    },
    {
      "inputs": [
        {
          "internalType": "address",
          "name": "addr",
          "type": "address"
        }
      ],
      "name": "getRecentTokenId",
      "outputs": [
        {
          "internalType": "uint256",
          "name": "",
          "type": "uint256"
        }
      ],
      "stateMutability": "view",
      "type": "function"
    },
    {
      "inputs": [
        {
          "internalType": "address",
          "name": "addr",
          "type": "address"
        }
      ],
      "name": "getRegisterNum",
      "outputs": [
        {
          "internalType": "uint256",
          "name": "",
          "type": "uint256"
        }
      ],
      "stateMutability": "view",
      "type": "function"
    },
    {
      "inputs": [
        {
          "internalType": "address",
          "name": "addr",
          "type": "address"
        }
      ],
      "name": "getTokenIds",
      "outputs": [
        {
          "internalType": "uint256[]",
          "name": "",
          "type": "uint256[]"
        }
      ],
      "stateMutability": "view",
      "type": "function"
    },
    {
      "inputs": [],
      "name": "getTotalCandidateNum",
      "outputs": [
        {
          "internalType": "uint256",
          "name": "",
          "type": "uint256"
        }
      ],
      "stateMutability": "view",
      "type": "function"
    },
    {
      "inputs": [],
      "name": "getTotalVoteCount",
      "outputs": [
        {
          "internalType": "uint256",
          "name": "",
          "type": "uint256"
        }
      ],
      "stateMutability": "view",
      "type": "function"
    },
    {
      "inputs": [],
      "name": "isShowResultImm",
      "outputs": [
        {
          "internalType": "uint256",
          "name": "",
          "type": "uint256"
        }
      ],
      "stateMutability": "view",
      "type": "function"
    },
    {
      "inputs": [
        {
          "internalType": "string",
          "name": "name",
          "type": "string"
        }
      ],
      "name": "registerCandidateAndGetNFT",
      "outputs": [],
      "stateMutability": "nonpayable",
      "type": "function"
    },
    {
      "inputs": [],
      "name": "restartVoteSession",
      "outputs": [],
      "stateMutability": "nonpayable",
      "type": "function"
    },
    {
      "inputs": [],
      "name": "startVoteSession",
      "outputs": [],
      "stateMutability": "nonpayable",
      "type": "function"
    },
    {
      "inputs": [],
      "name": "totalCandidateNum",
      "outputs": [
        {
          "internalType": "uint256",
          "name": "",
          "type": "uint256"
        }
      ],
      "stateMutability": "view",
      "type": "function"
    },
    {
      "inputs": [],
      "name": "totalVoteCount",
      "outputs": [
        {
          "internalType": "uint256",
          "name": "",
          "type": "uint256"
        }
      ],
      "stateMutability": "view",
      "type": "function"
    },
    {
      "inputs": [
        {
          "internalType": "uint256[]",
          "name": "candidateIds",
          "type": "uint256[]"
        }
      ],
      "name": "voteAndGetNFT",
      "outputs": [
        {
          "internalType": "uint256",
          "name": "",
          "type": "uint256"
        }
      ],
      "stateMutability": "nonpayable",
      "type": "function"
    },
    {
      "inputs": [
        {
          "internalType": "address",
          "name": "",
          "type": "address"
        }
      ],
      "name": "voters",
      "outputs": [
        {
          "internalType": "uint8",
          "name": "flag",
          "type": "uint8"
        },
        {
          "internalType": "bool",
          "name": "hasVoted",
          "type": "bool"
        },
        {
          "internalType": "uint256",
          "name": "registerNum",
          "type": "uint256"
        }
      ],
      "stateMutability": "view",
      "type": "function"
    }
  ],
  "bytecode": "0x60806040523480156200001157600080fd5b506040516200197838038062001978833981016040819052620000349162000160565b60048054610100600160a81b0319163361010002179055815162000060906007906020850190620000a4565b50600180546001600160a01b03949094166001600160a01b031994851681179091556008919091556004805460ff19169055600080549093161790915550620002a6565b828054620000b29062000269565b90600052602060002090601f016020900481019282620000d6576000855562000121565b82601f10620000f157805160ff191683800117855562000121565b8280016001018555821562000121579182015b828111156200012157825182559160200191906001019062000104565b506200012f92915062000133565b5090565b5b808211156200012f576000815560010162000134565b634e487b7160e01b600052604160045260246000fd5b6000806000606084860312156200017657600080fd5b83516001600160a01b03811681146200018e57600080fd5b602085810151919450906001600160401b0380821115620001ae57600080fd5b818701915087601f830112620001c357600080fd5b815181811115620001d857620001d86200014a565b604051601f8201601f19908116603f011681019083821181831017156200020357620002036200014a565b816040528281528a868487010111156200021c57600080fd5b600093505b8284101562000240578484018601518185018701529285019262000221565b82841115620002525760008684830101525b809750505050505050604084015190509250925092565b600181811c908216806200027e57607f821691505b60208210811415620002a057634e487b7160e01b600052602260045260246000fd5b50919050565b6116c280620002b66000396000f3fe608060405234801561001057600080fd5b50600436106101cf5760003560e01c8063893d8f4c11610104578063c77da043116100a2578063eaef034911610071578063eaef034914610440578063f74c168d1461044d578063f780dbb814610455578063f851a4401461045e57600080fd5b8063c77da043146103f2578063d004b03614610407578063e13804a71461041a578063e9fd3f051461042d57600080fd5b8063a3ec138d116100de578063a3ec138d14610371578063aaa98346146103c4578063b315c597146103cc578063bd88580e146103df57600080fd5b8063893d8f4c14610344578063968fb5101461034d5780639cd066bf1461036057600080fd5b806343776ed71161017157806363c93f021161014b57806363c93f02146102be5780636de8bcb9146102c7578063822b0ceb14610308578063884ea17d1461032f57600080fd5b806343776ed71461027857806347070f071461028b5780634868bff21461029357600080fd5b80631c0115be116101ad5780631c0115be14610210578063288c72e8146102225780633477ee2e1461022a5780633e7dac6b1461024c57600080fd5b8063122902a6146101d45780631a092541146101f15780631ae0b24214610206575b600080fd5b60045460ff165b6040516101e89190611105565b60405180910390f35b6101f9610476565b6040516101e8919061117a565b61020e610508565b005b6005545b6040519081526020016101e8565b600654610214565b61023d610238366004611194565b6105bc565b6040516101e8939291906111ad565b61021461025a3660046111d6565b6001600160a01b031660009081526003602052604090206001015490565b610214610286366004611246565b610667565b610214600381565b6001546102a6906001600160a01b031681565b6040516001600160a01b0390911681526020016101e8565b61021460085481565b6102f86102d53660046111d6565b6001600160a01b0316600090815260036020526040902054610100900460ff1690565b60405190151581526020016101e8565b6102f86103163660046111d6565b60045461010090046001600160a01b0390811691161490565b61033761071b565b6040516101e891906112ec565b61021460065481565b61020e61035b36600461134e565b61084d565b6001546001600160a01b03166102a6565b6103a561037f3660046111d6565b6003602052600090815260409020805460019091015460ff808316926101009004169083565b6040805160ff90941684529115156020840152908201526060016101e8565b61020e6108fa565b6102146103da366004611194565b61095f565b6102146103ed3660046111d6565b610a15565b6103fa610a60565b6040516101e891906113e3565b6103fa6104153660046111d6565b610b78565b6101f9610428366004611194565b610be7565b6000546102a6906001600160a01b031681565b6004546101db9060ff1681565b61020e610cad565b61021460055481565b6004546102a69061010090046001600160a01b031681565b60606007805461048590611427565b80601f01602080910402602001604051908101604052809291908181526020018280546104b190611427565b80156104fe5780601f106104d3576101008083540402835291602001916104fe565b820191906000526020600020905b8154815290600101906020018083116104e157829003601f168201915b5050505050905090565b60045461010090046001600160a01b031633146105405760405162461bcd60e51b81526004016105379061145c565b60405180910390fd5b600260045460ff166002811115610559576105596110ef565b146105a65760405162461bcd60e51b815260206004820152601f60248201527f4572726f723a20537461747573206973206e6f7420766f7465456e6465642e006044820152606401610537565b600480546001919060ff191682805b0217905550565b600260205260009081526040902080546001820180549192916105de90611427565b80601f016020809104026020016040519081016040528092919081815260200182805461060a90611427565b80156106575780601f1061062c57610100808354040283529160200191610657565b820191906000526020600020905b81548152906001019060200180831161063a57829003601f168201915b5050505050908060020154905083565b600061067282610d26565b600080546040516245ce9d60e21b81523360048201526001600160a01b03909116906301173a7490602401602060405180830381600087803b1580156106b757600080fd5b505af11580156106cb573d6000803e3d6000fd5b505050506040513d601f19601f820116820180604052508101906106ef9190611493565b336000908152600360209081526040822060020180546001810182559083529120018190559392505050565b6060600060055467ffffffffffffffff81111561073a5761073a6111ff565b60405190808252806020026020018201604052801561076d57816020015b60608152602001906001900390816107585790505b50905060005b600554811015610847576000818152600260205260409020600101805461079990611427565b80601f01602080910402602001604051908101604052809291908181526020018280546107c590611427565b80156108125780601f106107e757610100808354040283529160200191610812565b820191906000526020600020905b8154815290600101906020018083116107f557829003601f168201915b5050505050828281518110610829576108296114ac565b6020026020010181905250808061083f906114d8565b915050610773565b50919050565b61085681610ec2565b600080546040516245ce9d60e21b81523360048201526001600160a01b03909116906301173a7490602401602060405180830381600087803b15801561089b57600080fd5b505af11580156108af573d6000803e3d6000fd5b505050506040513d601f19601f820116820180604052508101906108d39190611493565b33600090815260036020908152604082206002018054600181018255908352912001555050565b60045461010090046001600160a01b031633146109295760405162461bcd60e51b81526004016105379061145c565b600060045460ff166002811115610942576109426110ef565b146105a65760405162461bcd60e51b8152600401610537906114f3565b6000600854600114156109a55733600090815260036020526040902054610100900460ff166109a05760405162461bcd60e51b81526004016105379061153c565b6109db565b600260045460ff1660028111156109be576109be6110ef565b146109db5760405162461bcd60e51b815260040161053790611588565b8160055481106109fd5760405162461bcd60e51b8152600401610537906115e5565b50506000908152600260208190526040909120015490565b6001600160a01b03811660009081526003602052604081206002018054610a3e9060019061161c565b81548110610a4e57610a4e6114ac565b90600052602060002001549050919050565b606060085460011415610aa65733600090815260036020526040902054610100900460ff16610aa15760405162461bcd60e51b81526004016105379061153c565b610adc565b600260045460ff166002811115610abf57610abf6110ef565b14610adc5760405162461bcd60e51b815260040161053790611588565b600060055467ffffffffffffffff811115610af957610af96111ff565b604051908082528060200260200182016040528015610b22578160200160208202803683370190505b50905060005b600554811015610847576002600082815260200190815260200160002060020154828281518110610b5b57610b5b6114ac565b602090810291909101015280610b70816114d8565b915050610b28565b6001600160a01b038116600090815260036020908152604091829020600201805483518184028101840190945280845260609392830182828015610bdb57602002820191906000526020600020905b815481526020019060010190808311610bc7575b50505050509050919050565b6060816005548110610c0b5760405162461bcd60e51b8152600401610537906115e5565b60008381526002602052604090206001018054610c2790611427565b80601f0160208091040260200160405190810160405280929190818152602001828054610c5390611427565b8015610ca05780601f10610c7557610100808354040283529160200191610ca0565b820191906000526020600020905b815481529060010190602001808311610c8357829003601f168201915b5050505050915050919050565b60045461010090046001600160a01b03163314610cdc5760405162461bcd60e51b81526004016105379061145c565b600160045460ff166002811115610cf557610cf56110ef565b14610d125760405162461bcd60e51b815260040161053790611633565b600480546002919060ff19166001836105b5565b600160045460ff166002811115610d3f57610d3f6110ef565b14610d5c5760405162461bcd60e51b815260040161053790611633565b33600090815260036020526040902054610100900460ff1615610dc15760405162461bcd60e51b815260206004820152601e60248201527f4572726f723a20796f752063616e20766f7465206f6e6c79206f6e63652e00006044820152606401610537565b80600160005b8251811015610e0957600554838281518110610de557610de56114ac565b602002602001015110610df757600091505b80610e01816114d8565b915050610dc7565b5080610e275760405162461bcd60e51b8152600401610537906115e5565b60005b8351811015610e8b5760026000858381518110610e4957610e496114ac565b602002602001015181526020019081526020016000206002016000815480929190610e73906114d8565b91905055508080610e83906114d8565b915050610e2a565b5060068054906000610e9c836114d8565b9091555050336000908152600360205260409020805461ff001916610100179055505050565b600060045460ff166002811115610edb57610edb6110ef565b14610ef85760405162461bcd60e51b8152600401610537906114f3565b3360009081526003602081905260409091206001015410610f815760405162461bcd60e51b815260206004820152603a60248201527f4572726f723a20766f74657220686173206c696d6974206f6e206e756d62657260448201527f206f66207265676973746572696e672063616e646964617465730000000000006064820152608401610537565b604080516060810182526005548082526020808301858152600084860181905292835260028252939091208251815592518051929392610fc79260018501920190611056565b506040919091015160029091015560058054906000610fe5836114d8565b90915550503360009081526003602052604090205460ff1615611032573360009081526003602052604081206001908101805491929091611027908490611674565b909155506110539050565b336000908152600360205260409020805460ff191660019081178255908101555b50565b82805461106290611427565b90600052602060002090601f01602090048101928261108457600085556110ca565b82601f1061109d57805160ff19168380011785556110ca565b828001600101855582156110ca579182015b828111156110ca5782518255916020019190600101906110af565b506110d69291506110da565b5090565b5b808211156110d657600081556001016110db565b634e487b7160e01b600052602160045260246000fd5b602081016003831061112757634e487b7160e01b600052602160045260246000fd5b91905290565b6000815180845260005b8181101561115357602081850181015186830182015201611137565b81811115611165576000602083870101525b50601f01601f19169290920160200192915050565b60208152600061118d602083018461112d565b9392505050565b6000602082840312156111a657600080fd5b5035919050565b8381526060602082015260006111c6606083018561112d565b9050826040830152949350505050565b6000602082840312156111e857600080fd5b81356001600160a01b038116811461118d57600080fd5b634e487b7160e01b600052604160045260246000fd5b604051601f8201601f1916810167ffffffffffffffff8111828210171561123e5761123e6111ff565b604052919050565b6000602080838503121561125957600080fd5b823567ffffffffffffffff8082111561127157600080fd5b818501915085601f83011261128557600080fd5b813581811115611297576112976111ff565b8060051b91506112a8848301611215565b81815291830184019184810190888411156112c257600080fd5b938501935b838510156112e0578435825293850193908501906112c7565b98975050505050505050565b6000602080830181845280855180835260408601915060408160051b870101925083870160005b8281101561134157603f1988860301845261132f85835161112d565b94509285019290850190600101611313565b5092979650505050505050565b6000602080838503121561136157600080fd5b823567ffffffffffffffff8082111561137957600080fd5b818501915085601f83011261138d57600080fd5b81358181111561139f5761139f6111ff565b6113b1601f8201601f19168501611215565b915080825286848285010111156113c757600080fd5b8084840185840137600090820190930192909252509392505050565b6020808252825182820181905260009190848201906040850190845b8181101561141b578351835292840192918401916001016113ff565b50909695505050505050565b600181811c9082168061143b57607f821691505b6020821081141561084757634e487b7160e01b600052602260045260246000fd5b6020808252601d908201527f4572726f723a206f6e6c792061646d696e20697320616c6c6f7765642e000000604082015260600190565b6000602082840312156114a557600080fd5b5051919050565b634e487b7160e01b600052603260045260246000fd5b634e487b7160e01b600052601160045260246000fd5b60006000198214156114ec576114ec6114c2565b5060010190565b60208082526029908201527f4572726f723a20537461747573206973206e6f7420726567697374657243616e6040820152683229ba30b93a32b21760b91b606082015260800190565b6020808252602c908201527f4572726f723a204f6e6c792063616e207365652074686520726573756c74207760408201526b68656e20796f7520766f746560a01b606082015260800190565b6020808252603d908201527f4572726f723a20566f746520726573756c742063616e2062652073686f776e7760408201527f68656e2074686520766f74696e672073657373696f6e20656e6473732e000000606082015260800190565b6020808252601b908201527f4572726f723a20696e76616c69642063616e64696461746549642e0000000000604082015260600190565b60008282101561162e5761162e6114c2565b500390565b60208082526021908201527f4572726f723a20537461747573206973206e6f7420766f7465537461727465646040820152601760f91b606082015260800190565b60008219821115611687576116876114c2565b50019056fea2646970667358221220a6667a59cd1f8c82a5ed1b5126895bfb28d80c951682aacd2becb57ed002cd9f64736f6c63430008090033",
  "linkReferences": {},
  "deployedLinkReferences": {}
}