{
  "_format": "hh-sol-artifact-1",
  "contractName": "Election_step2",
  "sourceName": "contracts/contracts/Election_step2.sol",
  "abi": [
    {
      "inputs": [
        {
          "internalType": "address",
          "name": "_NFTTokenCA",
          "type": "address"
        }
      ],
      "stateMutability": "nonpayable",
      "type": "constructor"
    },
    {
      "anonymous": false,
      "inputs": [
        {
          "indexed": false,
          "internalType": "uint256",
          "name": "id",
          "type": "uint256"
        }
      ],
      "name": "candRegisteredEvent",
      "type": "event"
    },
    {
      "anonymous": false,
      "inputs": [
        {
          "indexed": false,
          "internalType": "enum Election_step2.ElectionStatus",
          "name": "prev",
          "type": "uint8"
        },
        {
          "indexed": false,
          "internalType": "enum Election_step2.ElectionStatus",
          "name": "end",
          "type": "uint8"
        }
      ],
      "name": "statusChangedEvent",
      "type": "event"
    },
    {
      "anonymous": false,
      "inputs": [],
      "name": "voteDoneEvent",
      "type": "event"
    },
    {
      "inputs": [],
      "name": "NFTTokenCA",
      "outputs": [
        {
          "internalType": "address",
          "name": "",
          "type": "address"
        }
      ],
      "stateMutability": "view",
      "type": "function"
    },
    {
      "inputs": [],
      "name": "VoteNFT",
      "outputs": [
        {
          "internalType": "contract NFTToken",
          "name": "",
          "type": "address"
        }
      ],
      "stateMutability": "view",
      "type": "function"
    },
    {
      "inputs": [],
      "name": "admin",
      "outputs": [
        {
          "internalType": "address",
          "name": "",
          "type": "address"
        }
      ],
      "stateMutability": "view",
      "type": "function"
    },
    {
      "inputs": [
        {
          "internalType": "uint256",
          "name": "",
          "type": "uint256"
        }
      ],
      "name": "candidates",
      "outputs": [
        {
          "internalType": "uint256",
          "name": "id",
          "type": "uint256"
        },
        {
          "internalType": "string",
          "name": "name",
          "type": "string"
        },
        {
          "internalType": "uint256",
          "name": "voteCount",
          "type": "uint256"
        }
      ],
      "stateMutability": "view",
      "type": "function"
    },
    {
      "inputs": [],
      "name": "electionStatus",
      "outputs": [
        {
          "internalType": "enum Election_step2.ElectionStatus",
          "name": "",
          "type": "uint8"
        }
      ],
      "stateMutability": "view",
      "type": "function"
    },
    {
      "inputs": [],
      "name": "endVoteSession",
      "outputs": [],
      "stateMutability": "nonpayable",
      "type": "function"
    },
    {
      "inputs": [
        {
          "internalType": "uint256",
          "name": "id",
          "type": "uint256"
        }
      ],
      "name": "getCandidateName",
      "outputs": [
        {
          "internalType": "string",
          "name": "",
          "type": "string"
        }
      ],
      "stateMutability": "view",
      "type": "function"
    },
    {
      "inputs": [
        {
          "internalType": "uint256",
          "name": "id",
          "type": "uint256"
        }
      ],
      "name": "getCandidateVoteCount",
      "outputs": [
        {
          "internalType": "uint256",
          "name": "",
          "type": "uint256"
        }
      ],
      "stateMutability": "view",
      "type": "function"
    },
    {
      "inputs": [],
      "name": "getElectionStatus",
      "outputs": [
        {
          "internalType": "enum Election_step2.ElectionStatus",
          "name": "",
          "type": "uint8"
        }
      ],
      "stateMutability": "view",
      "type": "function"
    },
    {
      "inputs": [
        {
          "internalType": "address",
          "name": "addr",
          "type": "address"
        }
      ],
      "name": "getHasVoted",
      "outputs": [
        {
          "internalType": "bool",
          "name": "",
          "type": "bool"
        }
      ],
      "stateMutability": "view",
      "type": "function"
    },
    {
      "inputs": [
        {
          "internalType": "address",
          "name": "addr",
          "type": "address"
        }
      ],
      "name": "getIsAdmin",
      "outputs": [
        {
          "internalType": "bool",
          "name": "",
          "type": "bool"
        }
      ],
      "stateMutability": "view",
      "type": "function"
    },
    {
      "inputs": [],
      "name": "getNFTTokenCA",
      "outputs": [
        {
          "internalType": "address",
          "name": "",
          "type": "address"
        }
      ],
      "stateMutability": "view",
      "type": "function"
    },
    {
      "inputs": [
        {
          "internalType": "address",
          "name": "addr",
          "type": "address"
        }
      ],
      "name": "getTokenId",
      "outputs": [
        {
          "internalType": "uint256",
          "name": "",
          "type": "uint256"
        }
      ],
      "stateMutability": "view",
      "type": "function"
    },
    {
      "inputs": [],
      "name": "getTotalCandidateNum",
      "outputs": [
        {
          "internalType": "uint256",
          "name": "",
          "type": "uint256"
        }
      ],
      "stateMutability": "view",
      "type": "function"
    },
    {
      "inputs": [],
      "name": "getTotalVoteCount",
      "outputs": [
        {
          "internalType": "uint256",
          "name": "",
          "type": "uint256"
        }
      ],
      "stateMutability": "view",
      "type": "function"
    },
    {
      "inputs": [
        {
          "internalType": "string",
          "name": "name",
          "type": "string"
        }
      ],
      "name": "registerCandidate",
      "outputs": [],
      "stateMutability": "nonpayable",
      "type": "function"
    },
    {
      "inputs": [],
      "name": "restartVoteSession",
      "outputs": [],
      "stateMutability": "nonpayable",
      "type": "function"
    },
    {
      "inputs": [],
      "name": "startVoteSession",
      "outputs": [],
      "stateMutability": "nonpayable",
      "type": "function"
    },
    {
      "inputs": [],
      "name": "totalCandidateNum",
      "outputs": [
        {
          "internalType": "uint256",
          "name": "",
          "type": "uint256"
        }
      ],
      "stateMutability": "view",
      "type": "function"
    },
    {
      "inputs": [],
      "name": "totalVoteCount",
      "outputs": [
        {
          "internalType": "uint256",
          "name": "",
          "type": "uint256"
        }
      ],
      "stateMutability": "view",
      "type": "function"
    },
    {
      "inputs": [
        {
          "internalType": "uint256",
          "name": "candidateId",
          "type": "uint256"
        }
      ],
      "name": "vote",
      "outputs": [],
      "stateMutability": "nonpayable",
      "type": "function"
    },
    {
      "inputs": [
        {
          "internalType": "uint256",
          "name": "candidateId",
          "type": "uint256"
        }
      ],
      "name": "voteAndGetNFT",
      "outputs": [
        {
          "internalType": "uint256",
          "name": "",
          "type": "uint256"
        }
      ],
      "stateMutability": "nonpayable",
      "type": "function"
    },
    {
      "inputs": [
        {
          "internalType": "address",
          "name": "",
          "type": "address"
        }
      ],
      "name": "voters",
      "outputs": [
        {
          "internalType": "bool",
          "name": "",
          "type": "bool"
        }
      ],
      "stateMutability": "view",
      "type": "function"
    },
    {
      "inputs": [
        {
          "internalType": "address",
          "name": "",
          "type": "address"
        }
      ],
      "name": "votersToToken",
      "outputs": [
        {
          "internalType": "uint256",
          "name": "",
          "type": "uint256"
        }
      ],
      "stateMutability": "view",
      "type": "function"
    }
  ],
  "bytecode": "0x608060405234801561001057600080fd5b50604051610efa380380610efa83398101604081905261002f91610079565b600580546001600160a81b031916336101000260ff1916179055600180546001600160a01b03929092166001600160a01b03199283168117909155600080549092161790556100a9565b60006020828403121561008b57600080fd5b81516001600160a01b03811681146100a257600080fd5b9392505050565b610e42806100b86000396000f3fe608060405234801561001057600080fd5b50600436106101585760003560e01c80639cd066bf116100c3578063e9fd3f051161007c578063e9fd3f051461031f578063eaef034914610332578063f15376861461033f578063f74c168d14610368578063f780dbb814610370578063f851a4401461037957600080fd5b80639cd066bf1461029d5780639eb88db6146102ae578063a3ec138d146102c1578063aaa98346146102e4578063b315c597146102ec578063e13804a7146102ff57600080fd5b80634868bff2116101155780634868bff2146101d3578063613df3b4146101fe5780636de8bcb91461021e5780636e4397c31461025a578063822b0ceb1461026d578063893d8f4c1461029457600080fd5b80630121b93f1461015d578063122902a6146101725780631ae0b2421461018f5780631c0115be14610197578063288c72e8146101a95780633477ee2e146101b1575b600080fd5b61017061016b366004610aa7565b610391565b005b60055460ff165b6040516101869190610ad6565b60405180910390f35b6101706104b1565b6006545b604051908152602001610186565b61019b61055c565b6101c46101bf366004610aa7565b610595565b60405161018693929190610b4b565b6001546101e6906001600160a01b031681565b6040516001600160a01b039091168152602001610186565b61019b61020c366004610b74565b60046020526000908152604090205481565b61024a61022c366004610b74565b6001600160a01b031660009081526003602052604090205460ff1690565b6040519015158152602001610186565b61019b610268366004610aa7565b610640565b61024a61027b366004610b74565b60055461010090046001600160a01b0390811691161490565b61019b60075481565b6001546001600160a01b03166101e6565b6101706102bc366004610bba565b6106e1565b61024a6102cf366004610b74565b60036020526000908152604090205460ff1681565b6101706107c4565b61019b6102fa366004610aa7565b610829565b61031261030d366004610aa7565b6108cf565b6040516101869190610c6b565b6000546101e6906001600160a01b031681565b6005546101799060ff1681565b61019b61034d366004610b74565b6001600160a01b031660009081526004602052604090205490565b610170610995565b61019b60065481565b6005546101e69061010090046001600160a01b031681565b600160055460ff1660028111156103aa576103aa610ac0565b146103d05760405162461bcd60e51b81526004016103c790610c7e565b60405180910390fd5b8060065481106103f25760405162461bcd60e51b81526004016103c790610cbf565b3360009081526003602052604090205460ff161561045e5760405162461bcd60e51b815260206004820152602360248201527f4572726f723a2074686520766f7465722068617320616c726561647920766f7460448201526232b21760e91b60648201526084016103c7565b336000908152600360209081526040808320805460ff1916600117905584835260029182905282200180549161049383610d0c565b9091555050600780549060006104a883610d0c565b91905055505050565b60055461010090046001600160a01b031633146104e05760405162461bcd60e51b81526004016103c790610d27565b600260055460ff1660028111156104f9576104f9610ac0565b146105465760405162461bcd60e51b815260206004820152601f60248201527f4572726f723a20537461747573206973206e6f7420766f7465456e6465642e0060448201526064016103c7565b600580546001919060ff191682805b0217905550565b60055460009061010090046001600160a01b0316331461058e5760405162461bcd60e51b81526004016103c790610d27565b5060075490565b600260205260009081526040902080546001820180549192916105b790610d5e565b80601f01602080910402602001604051908101604052809291908181526020018280546105e390610d5e565b80156106305780601f1061060557610100808354040283529160200191610630565b820191906000526020600020905b81548152906001019060200180831161061357829003601f168201915b5050505050908060020154905083565b600061064b82610391565b600080546040516245ce9d60e21b81523360048201526001600160a01b03909116906301173a7490602401602060405180830381600087803b15801561069057600080fd5b505af11580156106a4573d6000803e3d6000fd5b505050506040513d601f19601f820116820180604052508101906106c89190610d93565b3360009081526004602052604090208190559392505050565b600060055460ff1660028111156106fa576106fa610ac0565b146107175760405162461bcd60e51b81526004016103c790610dac565b60408051606081018252600654808252602080830185815260008486018190529283526002825293909120825181559251805192939261075d9260018501920190610a0e565b50604091909101516002909101556006805490600061077b83610d0c565b91905055507f7df257de6fe1b563377d932788d3a11eb1915bf8dd8cbfd2f3d72a08baecb61e60016006546107b09190610df5565b60405190815260200160405180910390a150565b60055461010090046001600160a01b031633146107f35760405162461bcd60e51b81526004016103c790610d27565b600060055460ff16600281111561080c5761080c610ac0565b146105465760405162461bcd60e51b81526004016103c790610dac565b6000600260055460ff16600281111561084457610844610ac0565b146108915760405162461bcd60e51b815260206004820152601f60248201527f4572726f723a20537461747573206973206e6f7420766f7465456e6465642e0060448201526064016103c7565b8160065481106108b35760405162461bcd60e51b81526004016103c790610cbf565b6000838152600260208190526040909120015491505b50919050565b60608160065481106108f35760405162461bcd60e51b81526004016103c790610cbf565b6000838152600260205260409020600101805461090f90610d5e565b80601f016020809104026020016040519081016040528092919081815260200182805461093b90610d5e565b80156109885780601f1061095d57610100808354040283529160200191610988565b820191906000526020600020905b81548152906001019060200180831161096b57829003601f168201915b5050505050915050919050565b60055461010090046001600160a01b031633146109c45760405162461bcd60e51b81526004016103c790610d27565b600160055460ff1660028111156109dd576109dd610ac0565b146109fa5760405162461bcd60e51b81526004016103c790610c7e565b600580546002919060ff1916600183610555565b828054610a1a90610d5e565b90600052602060002090601f016020900481019282610a3c5760008555610a82565b82601f10610a5557805160ff1916838001178555610a82565b82800160010185558215610a82579182015b82811115610a82578251825591602001919060010190610a67565b50610a8e929150610a92565b5090565b5b80821115610a8e5760008155600101610a93565b600060208284031215610ab957600080fd5b5035919050565b634e487b7160e01b600052602160045260246000fd5b6020810160038310610af857634e487b7160e01b600052602160045260246000fd5b91905290565b6000815180845260005b81811015610b2457602081850181015186830182015201610b08565b81811115610b36576000602083870101525b50601f01601f19169290920160200192915050565b838152606060208201526000610b646060830185610afe565b9050826040830152949350505050565b600060208284031215610b8657600080fd5b81356001600160a01b0381168114610b9d57600080fd5b9392505050565b634e487b7160e01b600052604160045260246000fd5b600060208284031215610bcc57600080fd5b813567ffffffffffffffff80821115610be457600080fd5b818401915084601f830112610bf857600080fd5b813581811115610c0a57610c0a610ba4565b604051601f8201601f19908116603f01168101908382118183101715610c3257610c32610ba4565b81604052828152876020848701011115610c4b57600080fd5b826020860160208301376000928101602001929092525095945050505050565b602081526000610b9d6020830184610afe565b60208082526021908201527f4572726f723a20537461747573206973206e6f7420766f7465537461727465646040820152601760f91b606082015260800190565b6020808252601b908201527f4572726f723a20696e76616c69642063616e64696461746549642e0000000000604082015260600190565b634e487b7160e01b600052601160045260246000fd5b6000600019821415610d2057610d20610cf6565b5060010190565b6020808252601d908201527f4572726f723a206f6e6c792061646d696e20697320616c6c6f7765642e000000604082015260600190565b600181811c90821680610d7257607f821691505b602082108114156108c957634e487b7160e01b600052602260045260246000fd5b600060208284031215610da557600080fd5b5051919050565b60208082526029908201527f4572726f723a20537461747573206973206e6f7420726567697374657243616e6040820152683229ba30b93a32b21760b91b606082015260800190565b600082821015610e0757610e07610cf6565b50039056fea26469706673582212202c0bf426b6707b16d33a20754fbd3dff825106c904ebd1be1160430f5bec198164736f6c63430008090033",
  "linkReferences": {},
  "deployedLinkReferences": {}
}