{
  "_format": "hh-sol-artifact-1",
  "contractName": "Contract",
  "sourceName": "contracts/Contract.sol",
  "abi": [
    {
      "inputs": [],
      "stateMutability": "nonpayable",
      "type": "constructor"
    },
    {
      "anonymous": false,
      "inputs": [
        {
          "indexed": true,
          "internalType": "address",
          "name": "owner",
          "type": "address"
        },
        {
          "indexed": true,
          "internalType": "address",
          "name": "approved",
          "type": "address"
        },
        {
          "indexed": true,
          "internalType": "uint256",
          "name": "tokenId",
          "type": "uint256"
        }
      ],
      "name": "Approval",
      "type": "event"
    },
    {
      "anonymous": false,
      "inputs": [
        {
          "indexed": true,
          "internalType": "address",
          "name": "owner",
          "type": "address"
        },
        {
          "indexed": true,
          "internalType": "address",
          "name": "operator",
          "type": "address"
        },
        {
          "indexed": false,
          "internalType": "bool",
          "name": "approved",
          "type": "bool"
        }
      ],
      "name": "ApprovalForAll",
      "type": "event"
    },
    {
      "anonymous": false,
      "inputs": [
        {
          "indexed": true,
          "internalType": "bytes32",
          "name": "role",
          "type": "bytes32"
        },
        {
          "indexed": true,
          "internalType": "bytes32",
          "name": "previousAdminRole",
          "type": "bytes32"
        },
        {
          "indexed": true,
          "internalType": "bytes32",
          "name": "newAdminRole",
          "type": "bytes32"
        }
      ],
      "name": "RoleAdminChanged",
      "type": "event"
    },
    {
      "anonymous": false,
      "inputs": [
        {
          "indexed": true,
          "internalType": "bytes32",
          "name": "role",
          "type": "bytes32"
        },
        {
          "indexed": true,
          "internalType": "address",
          "name": "account",
          "type": "address"
        },
        {
          "indexed": true,
          "internalType": "address",
          "name": "sender",
          "type": "address"
        }
      ],
      "name": "RoleGranted",
      "type": "event"
    },
    {
      "anonymous": false,
      "inputs": [
        {
          "indexed": true,
          "internalType": "bytes32",
          "name": "role",
          "type": "bytes32"
        },
        {
          "indexed": true,
          "internalType": "address",
          "name": "account",
          "type": "address"
        },
        {
          "indexed": true,
          "internalType": "address",
          "name": "sender",
          "type": "address"
        }
      ],
      "name": "RoleRevoked",
      "type": "event"
    },
    {
      "anonymous": false,
      "inputs": [
        {
          "indexed": true,
          "internalType": "address",
          "name": "from",
          "type": "address"
        },
        {
          "indexed": true,
          "internalType": "address",
          "name": "to",
          "type": "address"
        },
        {
          "indexed": true,
          "internalType": "uint256",
          "name": "tokenId",
          "type": "uint256"
        }
      ],
      "name": "Transfer",
      "type": "event"
    },
    {
      "inputs": [],
      "name": "DEFAULT_ADMIN_ROLE",
      "outputs": [
        {
          "internalType": "bytes32",
          "name": "",
          "type": "bytes32"
        }
      ],
      "stateMutability": "view",
      "type": "function"
    },
    {
      "inputs": [],
      "name": "MINTER_ROLE",
      "outputs": [
        {
          "internalType": "bytes32",
          "name": "",
          "type": "bytes32"
        }
      ],
      "stateMutability": "view",
      "type": "function"
    },
    {
      "inputs": [
        {
          "internalType": "address",
          "name": "to",
          "type": "address"
        },
        {
          "internalType": "uint256",
          "name": "tokenId",
          "type": "uint256"
        }
      ],
      "name": "approve",
      "outputs": [],
      "stateMutability": "nonpayable",
      "type": "function"
    },
    {
      "inputs": [
        {
          "internalType": "address",
          "name": "owner",
          "type": "address"
        }
      ],
      "name": "balanceOf",
      "outputs": [
        {
          "internalType": "uint256",
          "name": "",
          "type": "uint256"
        }
      ],
      "stateMutability": "view",
      "type": "function"
    },
    {
      "inputs": [
        {
          "internalType": "uint256",
          "name": "tokenId",
          "type": "uint256"
        }
      ],
      "name": "getApproved",
      "outputs": [
        {
          "internalType": "address",
          "name": "",
          "type": "address"
        }
      ],
      "stateMutability": "view",
      "type": "function"
    },
    {
      "inputs": [
        {
          "internalType": "bytes32",
          "name": "role",
          "type": "bytes32"
        }
      ],
      "name": "getRoleAdmin",
      "outputs": [
        {
          "internalType": "bytes32",
          "name": "",
          "type": "bytes32"
        }
      ],
      "stateMutability": "view",
      "type": "function"
    },
    {
      "inputs": [
        {
          "internalType": "bytes32",
          "name": "role",
          "type": "bytes32"
        },
        {
          "internalType": "address",
          "name": "account",
          "type": "address"
        }
      ],
      "name": "grantRole",
      "outputs": [],
      "stateMutability": "nonpayable",
      "type": "function"
    },
    {
      "inputs": [
        {
          "internalType": "bytes32",
          "name": "role",
          "type": "bytes32"
        },
        {
          "internalType": "address",
          "name": "account",
          "type": "address"
        }
      ],
      "name": "hasRole",
      "outputs": [
        {
          "internalType": "bool",
          "name": "",
          "type": "bool"
        }
      ],
      "stateMutability": "view",
      "type": "function"
    },
    {
      "inputs": [
        {
          "internalType": "address",
          "name": "owner",
          "type": "address"
        },
        {
          "internalType": "address",
          "name": "operator",
          "type": "address"
        }
      ],
      "name": "isApprovedForAll",
      "outputs": [
        {
          "internalType": "bool",
          "name": "",
          "type": "bool"
        }
      ],
      "stateMutability": "view",
      "type": "function"
    },
    {
      "inputs": [],
      "name": "name",
      "outputs": [
        {
          "internalType": "string",
          "name": "",
          "type": "string"
        }
      ],
      "stateMutability": "view",
      "type": "function"
    },
    {
      "inputs": [
        {
          "internalType": "uint256",
          "name": "tokenId",
          "type": "uint256"
        }
      ],
      "name": "ownerOf",
      "outputs": [
        {
          "internalType": "address",
          "name": "",
          "type": "address"
        }
      ],
      "stateMutability": "view",
      "type": "function"
    },
    {
      "inputs": [
        {
          "internalType": "bytes32",
          "name": "role",
          "type": "bytes32"
        },
        {
          "internalType": "address",
          "name": "account",
          "type": "address"
        }
      ],
      "name": "renounceRole",
      "outputs": [],
      "stateMutability": "nonpayable",
      "type": "function"
    },
    {
      "inputs": [
        {
          "internalType": "bytes32",
          "name": "role",
          "type": "bytes32"
        },
        {
          "internalType": "address",
          "name": "account",
          "type": "address"
        }
      ],
      "name": "revokeRole",
      "outputs": [],
      "stateMutability": "nonpayable",
      "type": "function"
    },
    {
      "inputs": [
        {
          "internalType": "address",
          "name": "to",
          "type": "address"
        }
      ],
      "name": "safeMint",
      "outputs": [],
      "stateMutability": "nonpayable",
      "type": "function"
    },
    {
      "inputs": [
        {
          "internalType": "address",
          "name": "from",
          "type": "address"
        },
        {
          "internalType": "address",
          "name": "to",
          "type": "address"
        },
        {
          "internalType": "uint256",
          "name": "tokenId",
          "type": "uint256"
        }
      ],
      "name": "safeTransferFrom",
      "outputs": [],
      "stateMutability": "nonpayable",
      "type": "function"
    },
    {
      "inputs": [
        {
          "internalType": "address",
          "name": "from",
          "type": "address"
        },
        {
          "internalType": "address",
          "name": "to",
          "type": "address"
        },
        {
          "internalType": "uint256",
          "name": "tokenId",
          "type": "uint256"
        },
        {
          "internalType": "bytes",
          "name": "data",
          "type": "bytes"
        }
      ],
      "name": "safeTransferFrom",
      "outputs": [],
      "stateMutability": "nonpayable",
      "type": "function"
    },
    {
      "inputs": [
        {
          "internalType": "address",
          "name": "operator",
          "type": "address"
        },
        {
          "internalType": "bool",
          "name": "approved",
          "type": "bool"
        }
      ],
      "name": "setApprovalForAll",
      "outputs": [],
      "stateMutability": "nonpayable",
      "type": "function"
    },
    {
      "inputs": [
        {
          "internalType": "bytes4",
          "name": "interfaceId",
          "type": "bytes4"
        }
      ],
      "name": "supportsInterface",
      "outputs": [
        {
          "internalType": "bool",
          "name": "",
          "type": "bool"
        }
      ],
      "stateMutability": "view",
      "type": "function"
    },
    {
      "inputs": [],
      "name": "symbol",
      "outputs": [
        {
          "internalType": "string",
          "name": "",
          "type": "string"
        }
      ],
      "stateMutability": "view",
      "type": "function"
    },
    {
      "inputs": [
        {
          "internalType": "uint256",
          "name": "tokenId",
          "type": "uint256"
        }
      ],
      "name": "tokenURI",
      "outputs": [
        {
          "internalType": "string",
          "name": "",
          "type": "string"
        }
      ],
      "stateMutability": "view",
      "type": "function"
    },
    {
      "inputs": [
        {
          "internalType": "address",
          "name": "from",
          "type": "address"
        },
        {
          "internalType": "address",
          "name": "to",
          "type": "address"
        },
        {
          "internalType": "uint256",
          "name": "tokenId",
          "type": "uint256"
        }
      ],
      "name": "transferFrom",
      "outputs": [],
      "stateMutability": "nonpayable",
      "type": "function"
    }
  ],
  "bytecode": "0x60806040523480156200001157600080fd5b50604080518082018252600881526710dbdb9d1c9858dd60c21b60208083019182528351808501909452600384526221a7a760e91b9084015281519192916200005d916000916200015c565b508051620000739060019060208401906200015c565b506200008591506000905033620000b7565b620000b17f9f2df0fed2c77648de5860a4cc508cd0818c85b8b8a1ab4ceeef8d981c8956a633620000b7565b6200023f565b60008281526006602090815260408083206001600160a01b038516845290915290205460ff16620001585760008281526006602090815260408083206001600160a01b03851684529091529020805460ff19166001179055620001173390565b6001600160a01b0316816001600160a01b0316837f2f8788117e7eff1d82e926ec794901d17c78024a50270940304540a733656f0d60405160405180910390a45b5050565b8280546200016a9062000202565b90600052602060002090601f0160209004810192826200018e5760008555620001d9565b82601f10620001a957805160ff1916838001178555620001d9565b82800160010185558215620001d9579182015b82811115620001d9578251825591602001919060010190620001bc565b50620001e7929150620001eb565b5090565b5b80821115620001e75760008155600101620001ec565b600181811c908216806200021757607f821691505b602082108114156200023957634e487b7160e01b600052602260045260246000fd5b50919050565b611987806200024f6000396000f3fe608060405234801561001057600080fd5b50600436106101375760003560e01c80636352211e116100b8578063a22cb4651161007c578063a22cb46514610292578063b88d4fde146102a5578063c87b56dd146102b8578063d5391393146102cb578063d547741f146102f2578063e985e9c51461030557600080fd5b80636352211e1461024957806370a082311461025c57806391d148541461026f57806395d89b4114610282578063a217fddf1461028a57600080fd5b8063248a9ca3116100ff578063248a9ca3146101cc5780632f2ff15d146101fd57806336568abe1461021057806340d097c31461022357806342842e0e1461023657600080fd5b806301ffc9a71461013c57806306fdde0314610164578063081812fc14610179578063095ea7b3146101a457806323b872dd146101b9575b600080fd5b61014f61014a3660046113f8565b610341565b60405190151581526020015b60405180910390f35b61016c610352565b60405161015b919061146d565b61018c610187366004611480565b6103e4565b6040516001600160a01b03909116815260200161015b565b6101b76101b23660046114b5565b61040b565b005b6101b76101c73660046114df565b610526565b6101ef6101da366004611480565b60009081526006602052604090206001015490565b60405190815260200161015b565b6101b761020b36600461151b565b610557565b6101b761021e36600461151b565b61057c565b6101b7610231366004611547565b6105fa565b6101b76102443660046114df565b610649565b61018c610257366004611480565b610664565b6101ef61026a366004611547565b6106c4565b61014f61027d36600461151b565b61074a565b61016c610775565b6101ef600081565b6101b76102a0366004611562565b610784565b6101b76102b33660046115b4565b61078f565b61016c6102c6366004611480565b6107c7565b6101ef7f9f2df0fed2c77648de5860a4cc508cd0818c85b8b8a1ab4ceeef8d981c8956a681565b6101b761030036600461151b565b61083b565b61014f610313366004611690565b6001600160a01b03918216600090815260056020908152604080832093909416825291909152205460ff1690565b600061034c82610860565b92915050565b606060008054610361906116ba565b80601f016020809104026020016040519081016040528092919081815260200182805461038d906116ba565b80156103da5780601f106103af576101008083540402835291602001916103da565b820191906000526020600020905b8154815290600101906020018083116103bd57829003601f168201915b5050505050905090565b60006103ef82610885565b506000908152600460205260409020546001600160a01b031690565b600061041682610664565b9050806001600160a01b0316836001600160a01b031614156104895760405162461bcd60e51b815260206004820152602160248201527f4552433732313a20617070726f76616c20746f2063757272656e74206f776e656044820152603960f91b60648201526084015b60405180910390fd5b336001600160a01b03821614806104a557506104a58133610313565b6105175760405162461bcd60e51b815260206004820152603d60248201527f4552433732313a20617070726f76652063616c6c6572206973206e6f7420746f60448201527f6b656e206f776e6572206f7220617070726f76656420666f7220616c6c0000006064820152608401610480565b61052183836108e7565b505050565b6105303382610955565b61054c5760405162461bcd60e51b8152600401610480906116f5565b6105218383836109d4565b60008281526006602052604090206001015461057281610b38565b6105218383610b42565b6001600160a01b03811633146105ec5760405162461bcd60e51b815260206004820152602f60248201527f416363657373436f6e74726f6c3a2063616e206f6e6c792072656e6f756e636560448201526e103937b632b9903337b91039b2b63360891b6064820152608401610480565b6105f68282610bc8565b5050565b7f9f2df0fed2c77648de5860a4cc508cd0818c85b8b8a1ab4ceeef8d981c8956a661062481610b38565b600061062f60075490565b905061063f600780546001019055565b6105218382610c2f565b6105218383836040518060200160405280600081525061078f565b6000818152600260205260408120546001600160a01b03168061034c5760405162461bcd60e51b8152602060048201526018602482015277115490cdcc8c4e881a5b9d985b1a59081d1bdad95b88125160421b6044820152606401610480565b60006001600160a01b03821661072e5760405162461bcd60e51b815260206004820152602960248201527f4552433732313a2061646472657373207a65726f206973206e6f7420612076616044820152683634b21037bbb732b960b91b6064820152608401610480565b506001600160a01b031660009081526003602052604090205490565b60009182526006602090815260408084206001600160a01b0393909316845291905290205460ff1690565b606060018054610361906116ba565b6105f6338383610c49565b6107993383610955565b6107b55760405162461bcd60e51b8152600401610480906116f5565b6107c184848484610d18565b50505050565b60606107d282610885565b60006107e960408051602081019091526000815290565b905060008151116108095760405180602001604052806000815250610834565b8061081384610d4b565b604051602001610824929190611742565b6040516020818303038152906040525b9392505050565b60008281526006602052604090206001015461085681610b38565b6105218383610bc8565b60006001600160e01b03198216637965db0b60e01b148061034c575061034c82610de8565b6000818152600260205260409020546001600160a01b03166108e45760405162461bcd60e51b8152602060048201526018602482015277115490cdcc8c4e881a5b9d985b1a59081d1bdad95b88125160421b6044820152606401610480565b50565b600081815260046020526040902080546001600160a01b0319166001600160a01b038416908117909155819061091c82610664565b6001600160a01b03167f8c5be1e5ebec7d5bd14f71427d1e84f3dd0314c0f7b2291e5b200ac8c7c3b92560405160405180910390a45050565b60008061096183610664565b9050806001600160a01b0316846001600160a01b031614806109a857506001600160a01b0380821660009081526005602090815260408083209388168352929052205460ff165b806109cc5750836001600160a01b03166109c1846103e4565b6001600160a01b0316145b949350505050565b826001600160a01b03166109e782610664565b6001600160a01b031614610a0d5760405162461bcd60e51b815260040161048090611771565b6001600160a01b038216610a6f5760405162461bcd60e51b8152602060048201526024808201527f4552433732313a207472616e7366657220746f20746865207a65726f206164646044820152637265737360e01b6064820152608401610480565b826001600160a01b0316610a8282610664565b6001600160a01b031614610aa85760405162461bcd60e51b815260040161048090611771565b600081815260046020908152604080832080546001600160a01b03199081169091556001600160a01b0387811680865260038552838620805460001901905590871680865283862080546001019055868652600290945282852080549092168417909155905184937fddf252ad1be2c89b69c2b068fc378daa952ba7f163c4a11628f55a4df523b3ef91a4505050565b6108e48133610e38565b610b4c828261074a565b6105f65760008281526006602090815260408083206001600160a01b03851684529091529020805460ff19166001179055610b843390565b6001600160a01b0316816001600160a01b0316837f2f8788117e7eff1d82e926ec794901d17c78024a50270940304540a733656f0d60405160405180910390a45050565b610bd2828261074a565b156105f65760008281526006602090815260408083206001600160a01b0385168085529252808320805460ff1916905551339285917ff6391f5c32d9c69d2a47ea670b442974b53935d1edc7fd64eb21e047a839171b9190a45050565b6105f6828260405180602001604052806000815250610e91565b816001600160a01b0316836001600160a01b03161415610cab5760405162461bcd60e51b815260206004820152601960248201527f4552433732313a20617070726f766520746f2063616c6c6572000000000000006044820152606401610480565b6001600160a01b03838116600081815260056020908152604080832094871680845294825291829020805460ff191686151590811790915591519182527f17307eab39ab6107e8899845ad3d59bd9653f200f220920489ca2b5937696c31910160405180910390a3505050565b610d238484846109d4565b610d2f84848484610ec4565b6107c15760405162461bcd60e51b8152600401610480906117b6565b60606000610d5883610fd1565b600101905060008167ffffffffffffffff811115610d7857610d7861159e565b6040519080825280601f01601f191660200182016040528015610da2576020820181803683370190505b5090508181016020015b600019016f181899199a1a9b1b9c1cb0b131b232b360811b600a86061a8153600a8504945084610ddb57610de0565b610dac565b509392505050565b60006001600160e01b031982166380ac58cd60e01b1480610e1957506001600160e01b03198216635b5e139f60e01b145b8061034c57506301ffc9a760e01b6001600160e01b031983161461034c565b610e42828261074a565b6105f657610e4f816110a9565b610e5a8360206110bb565b604051602001610e6b929190611808565b60408051601f198184030181529082905262461bcd60e51b82526104809160040161146d565b610e9b8383611257565b610ea86000848484610ec4565b6105215760405162461bcd60e51b8152600401610480906117b6565b60006001600160a01b0384163b15610fc657604051630a85bd0160e11b81526001600160a01b0385169063150b7a0290610f0890339089908890889060040161187d565b602060405180830381600087803b158015610f2257600080fd5b505af1925050508015610f52575060408051601f3d908101601f19168201909252610f4f918101906118ba565b60015b610fac573d808015610f80576040519150601f19603f3d011682016040523d82523d6000602084013e610f85565b606091505b508051610fa45760405162461bcd60e51b8152600401610480906117b6565b805181602001fd5b6001600160e01b031916630a85bd0160e11b1490506109cc565b506001949350505050565b60008072184f03e93ff9f4daa797ed6e38ed64bf6a1f0160401b83106110105772184f03e93ff9f4daa797ed6e38ed64bf6a1f0160401b830492506040015b6d04ee2d6d415b85acef8100000000831061103c576d04ee2d6d415b85acef8100000000830492506020015b662386f26fc10000831061105a57662386f26fc10000830492506010015b6305f5e1008310611072576305f5e100830492506008015b612710831061108657612710830492506004015b60648310611098576064830492506002015b600a831061034c5760010192915050565b606061034c6001600160a01b03831660145b606060006110ca8360026118ed565b6110d590600261190c565b67ffffffffffffffff8111156110ed576110ed61159e565b6040519080825280601f01601f191660200182016040528015611117576020820181803683370190505b509050600360fc1b8160008151811061113257611132611924565b60200101906001600160f81b031916908160001a905350600f60fb1b8160018151811061116157611161611924565b60200101906001600160f81b031916908160001a90535060006111858460026118ed565b61119090600161190c565b90505b6001811115611208576f181899199a1a9b1b9c1cb0b131b232b360811b85600f16601081106111c4576111c4611924565b1a60f81b8282815181106111da576111da611924565b60200101906001600160f81b031916908160001a90535060049490941c936112018161193a565b9050611193565b5083156108345760405162461bcd60e51b815260206004820181905260248201527f537472696e67733a20686578206c656e67746820696e73756666696369656e746044820152606401610480565b6001600160a01b0382166112ad5760405162461bcd60e51b815260206004820181905260248201527f4552433732313a206d696e7420746f20746865207a65726f20616464726573736044820152606401610480565b6000818152600260205260409020546001600160a01b0316156113125760405162461bcd60e51b815260206004820152601c60248201527f4552433732313a20746f6b656e20616c7265616479206d696e746564000000006044820152606401610480565b6000818152600260205260409020546001600160a01b0316156113775760405162461bcd60e51b815260206004820152601c60248201527f4552433732313a20746f6b656e20616c7265616479206d696e746564000000006044820152606401610480565b6001600160a01b038216600081815260036020908152604080832080546001019055848352600290915280822080546001600160a01b0319168417905551839291907fddf252ad1be2c89b69c2b068fc378daa952ba7f163c4a11628f55a4df523b3ef908290a45050565b6001600160e01b0319811681146108e457600080fd5b60006020828403121561140a57600080fd5b8135610834816113e2565b60005b83811015611430578181015183820152602001611418565b838111156107c15750506000910152565b60008151808452611459816020860160208601611415565b601f01601f19169290920160200192915050565b6020815260006108346020830184611441565b60006020828403121561149257600080fd5b5035919050565b80356001600160a01b03811681146114b057600080fd5b919050565b600080604083850312156114c857600080fd5b6114d183611499565b946020939093013593505050565b6000806000606084860312156114f457600080fd5b6114fd84611499565b925061150b60208501611499565b9150604084013590509250925092565b6000806040838503121561152e57600080fd5b8235915061153e60208401611499565b90509250929050565b60006020828403121561155957600080fd5b61083482611499565b6000806040838503121561157557600080fd5b61157e83611499565b91506020830135801515811461159357600080fd5b809150509250929050565b634e487b7160e01b600052604160045260246000fd5b600080600080608085870312156115ca57600080fd5b6115d385611499565b93506115e160208601611499565b925060408501359150606085013567ffffffffffffffff8082111561160557600080fd5b818701915087601f83011261161957600080fd5b81358181111561162b5761162b61159e565b604051601f8201601f19908116603f011681019083821181831017156116535761165361159e565b816040528281528a602084870101111561166c57600080fd5b82602086016020830137600060208483010152809550505050505092959194509250565b600080604083850312156116a357600080fd5b6116ac83611499565b915061153e60208401611499565b600181811c908216806116ce57607f821691505b602082108114156116ef57634e487b7160e01b600052602260045260246000fd5b50919050565b6020808252602d908201527f4552433732313a2063616c6c6572206973206e6f7420746f6b656e206f776e6560408201526c1c881bdc88185c1c1c9bdd9959609a1b606082015260800190565b60008351611754818460208801611415565b835190830190611768818360208801611415565b01949350505050565b60208082526025908201527f4552433732313a207472616e736665722066726f6d20696e636f72726563742060408201526437bbb732b960d91b606082015260800190565b60208082526032908201527f4552433732313a207472616e7366657220746f206e6f6e20455243373231526560408201527131b2b4bb32b91034b6b83632b6b2b73a32b960711b606082015260800190565b7f416363657373436f6e74726f6c3a206163636f756e7420000000000000000000815260008351611840816017850160208801611415565b7001034b99036b4b9b9b4b733903937b6329607d1b6017918401918201528351611871816028840160208801611415565b01602801949350505050565b6001600160a01b03858116825284166020820152604081018390526080606082018190526000906118b090830184611441565b9695505050505050565b6000602082840312156118cc57600080fd5b8151610834816113e2565b634e487b7160e01b600052601160045260246000fd5b6000816000190483118215151615611907576119076118d7565b500290565b6000821982111561191f5761191f6118d7565b500190565b634e487b7160e01b600052603260045260246000fd5b600081611949576119496118d7565b50600019019056fea264697066735822122081fa4c09fe848e5ded57b2255d24bfbd0143480a5a461a3fb84c786606e6f9ac64736f6c63430008090033",
  "linkReferences": {},
  "deployedLinkReferences": {}
}